{
  "contractName": "APMNamehash",
  "abi": [
    {
      "constant": true,
      "inputs": [],
      "name": "APM_NODE",
      "outputs": [
        {
          "name": "",
          "type": "bytes32"
        }
      ],
      "payable": false,
      "stateMutability": "view",
      "type": "function"
    },
    {
      "constant": true,
      "inputs": [],
      "name": "PUBLIC_RESOLVER_NODE",
      "outputs": [
        {
          "name": "",
          "type": "bytes32"
        }
      ],
      "payable": false,
      "stateMutability": "view",
      "type": "function"
    },
    {
      "constant": true,
      "inputs": [],
      "name": "ETH_TLD_LABEL",
      "outputs": [
        {
          "name": "",
          "type": "bytes32"
        }
      ],
      "payable": false,
      "stateMutability": "view",
      "type": "function"
    },
    {
      "constant": true,
      "inputs": [],
      "name": "ENS_ROOT",
      "outputs": [
        {
          "name": "",
          "type": "bytes32"
        }
      ],
      "payable": false,
      "stateMutability": "view",
      "type": "function"
    },
    {
      "constant": true,
      "inputs": [],
      "name": "PUBLIC_RESOLVER_LABEL",
      "outputs": [
        {
          "name": "",
          "type": "bytes32"
        }
      ],
      "payable": false,
      "stateMutability": "view",
      "type": "function"
    },
    {
      "constant": true,
      "inputs": [],
      "name": "ETH_TLD_NODE",
      "outputs": [
        {
          "name": "",
          "type": "bytes32"
        }
      ],
      "payable": false,
      "stateMutability": "view",
      "type": "function"
    }
  ],
  "bytecode": "0x608060405234801561001057600080fd5b50610673806100206000396000f300608060405260043610610078576000357c0100000000000000000000000000000000000000000000000000000000900463ffffffff168063097207781461007d5780633f82e2c6146100b05780639b227a97146100e3578063a9bf1c9f14610116578063c84b1ce714610149578063fdee38a91461017c575b600080fd5b34801561008957600080fd5b506100926101af565b60405180826000191660001916815260200191505060405180910390f35b3480156100bc57600080fd5b506100c5610353565b60405180826000191660001916815260200191505060405180910390f35b3480156100ef57600080fd5b506100f86104f7565b60405180826000191660001916815260200191505060405180910390f35b34801561012257600080fd5b5061012b610530565b60405180826000191660001916815260200191505060405180910390f35b34801561015557600080fd5b5061015e610538565b60405180826000191660001916815260200191505060405180910390f35b34801561018857600080fd5b50610191610571565b60405180826000191660001916815260200191505060405180910390f35b600060010260405180807f6574680000000000000000000000000000000000000000000000000000000000815250600301905060405180910390206040516020018083600019166000191681526020018260001916600019168152602001925050506040516020818303038152906040526040518082805190602001908083835b6020831015156102555780518252602082019150602081019050602083039250610230565b6001836020036101000a038019825116818451168082178552505050505050905001915050604051809103902060405180807f617261676f6e706d000000000000000000000000000000000000000000000000815250600801905060405180910390206040516020018083600019166000191681526020018260001916600019168152602001925050506040516020818303038152906040526040518082805190602001908083835b60208310151561032357805182526020820191506020810190506020830392506102fe565b6001836020036101000a038019825116818451168082178552505050505050905001915050604051809103902081565b600060010260405180807f6574680000000000000000000000000000000000000000000000000000000000815250600301905060405180910390206040516020018083600019166000191681526020018260001916600019168152602001925050506040516020818303038152906040526040518082805190602001908083835b6020831015156103f957805182526020820191506020810190506020830392506103d4565b6001836020036101000a038019825116818451168082178552505050505050905001915050604051809103902060405180807f7265736f6c766572000000000000000000000000000000000000000000000000815250600801905060405180910390206040516020018083600019166000191681526020018260001916600019168152602001925050506040516020818303038152906040526040518082805190602001908083835b6020831015156104c757805182526020820191506020810190506020830392506104a2565b6001836020036101000a038019825116818451168082178552505050505050905001915050604051809103902081565b60405180807f65746800000000000000000000000000000000000000000000000000000000008152506003019050604051809103902081565b600060010281565b60405180807f7265736f6c7665720000000000000000000000000000000000000000000000008152506008019050604051809103902081565b600060010260405180807f6574680000000000000000000000000000000000000000000000000000000000815250600301905060405180910390206040516020018083600019166000191681526020018260001916600019168152602001925050506040516020818303038152906040526040518082805190602001908083835b60208310151561061757805182526020820191506020810190506020830392506105f2565b6001836020036101000a0380198251168184511680821785525050505050509050019150506040518091039020815600a165627a7a723058206caf2f713178c19fc8d3677f7f2dc23fb5e88da36c885bf4aa785556c17ef46b0029",
  "source": "/*\n * SPDX-License-Identitifer:    MIT\n */\n\npragma solidity ^0.4.24;\n\nimport \"../ens/ENSConstants.sol\";\n\n\ncontract APMNamehash is ENSConstants {\n    bytes32 constant public APM_NODE = keccak256(abi.encodePacked(ETH_TLD_NODE, keccak256(\"aragonpm\")));\n\n    function apmNamehash(string name) internal pure returns (bytes32) {\n        return keccak256(abi.encodePacked(APM_NODE, keccak256(bytes(name))));\n    }\n}\n",
  "sourcePath": "@aragon/os/contracts/apm/APMNamehash.sol",
  "compiler": {
    "name": "solc",
    "version": "0.4.24+commit.e67f0147.Emscripten.clang"
  },
  "schemaVersion": "2.0.1",
  "updatedAt": "2018-09-08T13:56:44.067Z"
}