{
  "contractName": "AppProxyUpgradeable",
  "abi": [
    {
      "constant": true,
      "inputs": [],
      "name": "FWD_GAS_LIMIT",
      "outputs": [
        {
          "name": "",
          "type": "uint256"
        }
      ],
      "payable": false,
      "stateMutability": "view",
      "type": "function"
    },
    {
      "constant": true,
      "inputs": [],
      "name": "KERNEL_APP_ID",
      "outputs": [
        {
          "name": "",
          "type": "bytes32"
        }
      ],
      "payable": false,
      "stateMutability": "view",
      "type": "function"
    },
    {
      "constant": true,
      "inputs": [],
      "name": "APP_ADDR_NAMESPACE",
      "outputs": [
        {
          "name": "",
          "type": "bytes32"
        }
      ],
      "payable": false,
      "stateMutability": "view",
      "type": "function"
    },
    {
      "constant": true,
      "inputs": [],
      "name": "FORWARDING",
      "outputs": [
        {
          "name": "",
          "type": "uint256"
        }
      ],
      "payable": false,
      "stateMutability": "view",
      "type": "function"
    },
    {
      "constant": true,
      "inputs": [],
      "name": "isDepositable",
      "outputs": [
        {
          "name": "",
          "type": "bool"
        }
      ],
      "payable": false,
      "stateMutability": "view",
      "type": "function"
    },
    {
      "constant": true,
      "inputs": [],
      "name": "CORE_NAMESPACE",
      "outputs": [
        {
          "name": "",
          "type": "bytes32"
        }
      ],
      "payable": false,
      "stateMutability": "view",
      "type": "function"
    },
    {
      "constant": true,
      "inputs": [],
      "name": "UPGRADEABLE",
      "outputs": [
        {
          "name": "",
          "type": "uint256"
        }
      ],
      "payable": false,
      "stateMutability": "view",
      "type": "function"
    },
    {
      "constant": true,
      "inputs": [],
      "name": "appId",
      "outputs": [
        {
          "name": "",
          "type": "bytes32"
        }
      ],
      "payable": false,
      "stateMutability": "view",
      "type": "function"
    },
    {
      "constant": true,
      "inputs": [],
      "name": "ACL_APP_ID",
      "outputs": [
        {
          "name": "",
          "type": "bytes32"
        }
      ],
      "payable": false,
      "stateMutability": "view",
      "type": "function"
    },
    {
      "constant": true,
      "inputs": [],
      "name": "kernel",
      "outputs": [
        {
          "name": "",
          "type": "address"
        }
      ],
      "payable": false,
      "stateMutability": "view",
      "type": "function"
    },
    {
      "constant": true,
      "inputs": [],
      "name": "APP_BASES_NAMESPACE",
      "outputs": [
        {
          "name": "",
          "type": "bytes32"
        }
      ],
      "payable": false,
      "stateMutability": "view",
      "type": "function"
    },
    {
      "inputs": [
        {
          "name": "_kernel",
          "type": "address"
        },
        {
          "name": "_appId",
          "type": "bytes32"
        },
        {
          "name": "_initializePayload",
          "type": "bytes"
        }
      ],
      "payable": false,
      "stateMutability": "nonpayable",
      "type": "constructor"
    },
    {
      "payable": true,
      "stateMutability": "payable",
      "type": "fallback"
    },
    {
      "anonymous": false,
      "inputs": [
        {
          "indexed": false,
          "name": "sender",
          "type": "address"
        },
        {
          "indexed": false,
          "name": "value",
          "type": "uint256"
        }
      ],
      "name": "ProxyDeposit",
      "type": "event"
    },
    {
      "constant": true,
      "inputs": [],
      "name": "implementation",
      "outputs": [
        {
          "name": "",
          "type": "address"
        }
      ],
      "payable": false,
      "stateMutability": "view",
      "type": "function"
    },
    {
      "constant": true,
      "inputs": [],
      "name": "proxyType",
      "outputs": [
        {
          "name": "proxyTypeId",
          "type": "uint256"
        }
      ],
      "payable": false,
      "stateMutability": "pure",
      "type": "function"
    }
  ],
  "bytecode": "0x60806040523480156200001157600080fd5b5060405162000bd438038062000bd48339810180604052810190808051906020019092919080519060200190929190805182019291905050508282826000620000698462000172640100000000026401000000009004565b6200008383620001bf640100000000026401000000009004565b6200009d836200020c640100000000026401000000009004565b90506000825111156200016557620000c48162000315640100000000026401000000009004565b1515620000d057600080fd5b8073ffffffffffffffffffffffffffffffffffffffff168260405180828051906020019080838360005b8381101562000117578082015181840152602081019050620000fa565b50505050905090810190601f168015620001455780820380516001836020036101000a031916815260200191505b50915050600060405180830381855af491505015156200016457600080fd5b5b50505050505050620003cf565b620001bc817f4172f0f7d2289153072b0a6ca36959e0cbe2efc3afe50fc81636caa96338137b600102600019166200036964010000000002620007bb179091906401000000009004565b50565b62000209817fd625496217aa6a3453eecb9c3489dc5a53e6c67b444329ea2b2cbc9ff547639b600102600019166200037064010000000002620007c2179091906401000000009004565b50565b60006200022762000377640100000000026401000000009004565b73ffffffffffffffffffffffffffffffffffffffff1663be00bbd87ff1f3eb40f5bc1ad1344716ced8b8a0431d840b5783aea1fd01786bc26f35ac0f600102846040518363ffffffff167c0100000000000000000000000000000000000000000000000000000000028152600401808360001916600019168152602001826000191660001916815260200192505050602060405180830381600087803b158015620002d157600080fd5b505af1158015620002e6573d6000803e3d6000fd5b505050506040513d6020811015620002fd57600080fd5b81019080805190602001909291905050509050919050565b600080600073ffffffffffffffffffffffffffffffffffffffff168373ffffffffffffffffffffffffffffffffffffffff16141562000358576000915062000363565b823b90506000811191505b50919050565b8082555050565b8082555050565b6000620003bf7f4172f0f7d2289153072b0a6ca36959e0cbe2efc3afe50fc81636caa96338137b60010260001916620003c464010000000002620007b0176401000000009004565b905090565b600081549050919050565b6107f580620003df6000396000f3006080604052600436106100c5576000357c0100000000000000000000000000000000000000000000000000000000900463ffffffff1680630ceafa2a146101bd5780631113ed0d146101e8578063178e60791461021b5780632b2584f61461024e5780634555d5c91461027957806348a0c8dd146102a45780635c60da1b146102d3578063756f60491461032a5780637e84a4ff1461035d57806380afdea814610388578063cbcc65eb146103bb578063d4aae0c4146103ee578063db8a61d414610445575b60006127105a1015610172576000341180156100e45750600080369050145b15156100ef57600080fd5b6100f7610478565b151561010257600080fd5b7f15eeaa57c7bd188c1388020bcadc2c436ec60d647d36ef5b9eb3c742217ddee13334604051808373ffffffffffffffffffffffffffffffffffffffff1673ffffffffffffffffffffffffffffffffffffffff1681526020018281526020019250505060405180910390a16101ba565b61017a6104af565b90506101b9816000368080601f0160208091040260200160405190810160405280939291908181526020018383808284378201915050505050506104c6565b5b50005b3480156101c957600080fd5b506101d2610509565b6040518082815260200191505060405180910390f35b3480156101f457600080fd5b506101fd61050f565b60405180826000191660001916815260200191505060405180910390f35b34801561022757600080fd5b50610230610536565b60405180826000191660001916815260200191505060405180910390f35b34801561025a57600080fd5b5061026361055d565b6040518082815260200191505060405180910390f35b34801561028557600080fd5b5061028e610562565b6040518082815260200191505060405180910390f35b3480156102b057600080fd5b506102b9610478565b604051808215151515815260200191505060405180910390f35b3480156102df57600080fd5b506102e86104af565b604051808273ffffffffffffffffffffffffffffffffffffffff1673ffffffffffffffffffffffffffffffffffffffff16815260200191505060405180910390f35b34801561033657600080fd5b5061033f61056b565b60405180826000191660001916815260200191505060405180910390f35b34801561036957600080fd5b50610372610592565b6040518082815260200191505060405180910390f35b34801561039457600080fd5b5061039d610597565b60405180826000191660001916815260200191505060405180910390f35b3480156103c757600080fd5b506103d06105ce565b60405180826000191660001916815260200191505060405180910390f35b3480156103fa57600080fd5b506104036105f5565b604051808273ffffffffffffffffffffffffffffffffffffffff1673ffffffffffffffffffffffffffffffffffffffff16815260200191505060405180910390f35b34801561045157600080fd5b5061045a61062c565b60405180826000191660001916815260200191505060405180910390f35b60006104aa7f665fd576fbbe6f247aff98f5c94a561e3f71ec2d3c988d56f12d342396c50cea60010260001916610653565b905090565b60006104c16104bc610597565b61065e565b905090565b60006104d183610753565b15156104dc57600080fd5b612710905060008083516020850186855a03f43d604051816000823e8260008114610505578282f35b8282fd5b61271081565b7f3b4bf6bf3ad5000ecf0f989d5befde585c6860fea3e574a4fab4c49d1c177d9c60010281565b7fd6f028ca0e8edb4a8c9757ca4fdccab25fa1e0317da1188108f7d2dee14902fb60010281565b600181565b60006002905090565b7fc681a85306374a5ab27f0bbc385296a54bcd314a1948b6cf61c4ea1bc44bb9f860010281565b600281565b60006105c97fd625496217aa6a3453eecb9c3489dc5a53e6c67b444329ea2b2cbc9ff547639b600102600019166107a5565b905090565b7fe3262375f45a6e2026b7e7b18c2b807434f2508fe1a2a3dfb493c7df8f4aad6a60010281565b60006106277f4172f0f7d2289153072b0a6ca36959e0cbe2efc3afe50fc81636caa96338137b600102600019166107b0565b905090565b7ff1f3eb40f5bc1ad1344716ced8b8a0431d840b5783aea1fd01786bc26f35ac0f60010281565b600081549050919050565b60006106686105f5565b73ffffffffffffffffffffffffffffffffffffffff1663be00bbd87ff1f3eb40f5bc1ad1344716ced8b8a0431d840b5783aea1fd01786bc26f35ac0f600102846040518363ffffffff167c0100000000000000000000000000000000000000000000000000000000028152600401808360001916600019168152602001826000191660001916815260200192505050602060405180830381600087803b15801561071157600080fd5b505af1158015610725573d6000803e3d6000fd5b505050506040513d602081101561073b57600080fd5b81019080805190602001909291905050509050919050565b600080600073ffffffffffffffffffffffffffffffffffffffff168373ffffffffffffffffffffffffffffffffffffffff161415610794576000915061079f565b823b90506000811191505b50919050565b600081549050919050565b600081549050919050565b8082555050565b80825550505600a165627a7a72305820a5333a7f752ee39bd2ee8dc03d71014c939e60b64a54f322b77bbf633f82f4e90029",
  "source": "pragma solidity 0.4.24;\n\nimport \"./AppProxyBase.sol\";\n\n\ncontract AppProxyUpgradeable is AppProxyBase {\n    /**\n    * @dev Initialize AppProxyUpgradeable (makes it an upgradeable Aragon app)\n    * @param _kernel Reference to organization kernel for the app\n    * @param _appId Identifier for app\n    * @param _initializePayload Payload for call to be made after setup to initialize\n    */\n    constructor(IKernel _kernel, bytes32 _appId, bytes _initializePayload)\n        AppProxyBase(_kernel, _appId, _initializePayload)\n        public // solium-disable-line visibility-first\n    {\n\n    }\n\n    /**\n     * @dev ERC897, the address the proxy would delegate calls to\n     */\n    function implementation() public view returns (address) {\n        return getAppBase(appId());\n    }\n\n    /**\n     * @dev ERC897, whether it is a forwarding (1) or an upgradeable (2) proxy\n     */\n    function proxyType() public pure returns (uint256 proxyTypeId) {\n        return UPGRADEABLE;\n    }\n}\n",
  "sourcePath": "@aragon/os/contracts/apps/AppProxyUpgradeable.sol",
  "compiler": {
    "name": "solc",
    "version": "0.4.24+commit.e67f0147.Emscripten.clang"
  },
  "schemaVersion": "2.0.1",
  "updatedAt": "2018-09-08T13:56:44.078Z"
}