{
  "contractName": "AppProxyPinned",
  "abi": [
    {
      "constant": true,
      "inputs": [],
      "name": "FWD_GAS_LIMIT",
      "outputs": [
        {
          "name": "",
          "type": "uint256"
        }
      ],
      "payable": false,
      "stateMutability": "view",
      "type": "function"
    },
    {
      "constant": true,
      "inputs": [],
      "name": "KERNEL_APP_ID",
      "outputs": [
        {
          "name": "",
          "type": "bytes32"
        }
      ],
      "payable": false,
      "stateMutability": "view",
      "type": "function"
    },
    {
      "constant": true,
      "inputs": [],
      "name": "APP_ADDR_NAMESPACE",
      "outputs": [
        {
          "name": "",
          "type": "bytes32"
        }
      ],
      "payable": false,
      "stateMutability": "view",
      "type": "function"
    },
    {
      "constant": true,
      "inputs": [],
      "name": "FORWARDING",
      "outputs": [
        {
          "name": "",
          "type": "uint256"
        }
      ],
      "payable": false,
      "stateMutability": "view",
      "type": "function"
    },
    {
      "constant": true,
      "inputs": [],
      "name": "isDepositable",
      "outputs": [
        {
          "name": "",
          "type": "bool"
        }
      ],
      "payable": false,
      "stateMutability": "view",
      "type": "function"
    },
    {
      "constant": true,
      "inputs": [],
      "name": "CORE_NAMESPACE",
      "outputs": [
        {
          "name": "",
          "type": "bytes32"
        }
      ],
      "payable": false,
      "stateMutability": "view",
      "type": "function"
    },
    {
      "constant": true,
      "inputs": [],
      "name": "UPGRADEABLE",
      "outputs": [
        {
          "name": "",
          "type": "uint256"
        }
      ],
      "payable": false,
      "stateMutability": "view",
      "type": "function"
    },
    {
      "constant": true,
      "inputs": [],
      "name": "appId",
      "outputs": [
        {
          "name": "",
          "type": "bytes32"
        }
      ],
      "payable": false,
      "stateMutability": "view",
      "type": "function"
    },
    {
      "constant": true,
      "inputs": [],
      "name": "ACL_APP_ID",
      "outputs": [
        {
          "name": "",
          "type": "bytes32"
        }
      ],
      "payable": false,
      "stateMutability": "view",
      "type": "function"
    },
    {
      "constant": true,
      "inputs": [],
      "name": "kernel",
      "outputs": [
        {
          "name": "",
          "type": "address"
        }
      ],
      "payable": false,
      "stateMutability": "view",
      "type": "function"
    },
    {
      "constant": true,
      "inputs": [],
      "name": "APP_BASES_NAMESPACE",
      "outputs": [
        {
          "name": "",
          "type": "bytes32"
        }
      ],
      "payable": false,
      "stateMutability": "view",
      "type": "function"
    },
    {
      "inputs": [
        {
          "name": "_kernel",
          "type": "address"
        },
        {
          "name": "_appId",
          "type": "bytes32"
        },
        {
          "name": "_initializePayload",
          "type": "bytes"
        }
      ],
      "payable": false,
      "stateMutability": "nonpayable",
      "type": "constructor"
    },
    {
      "payable": true,
      "stateMutability": "payable",
      "type": "fallback"
    },
    {
      "anonymous": false,
      "inputs": [
        {
          "indexed": false,
          "name": "sender",
          "type": "address"
        },
        {
          "indexed": false,
          "name": "value",
          "type": "uint256"
        }
      ],
      "name": "ProxyDeposit",
      "type": "event"
    },
    {
      "constant": true,
      "inputs": [],
      "name": "implementation",
      "outputs": [
        {
          "name": "",
          "type": "address"
        }
      ],
      "payable": false,
      "stateMutability": "view",
      "type": "function"
    },
    {
      "constant": true,
      "inputs": [],
      "name": "proxyType",
      "outputs": [
        {
          "name": "proxyTypeId",
          "type": "uint256"
        }
      ],
      "payable": false,
      "stateMutability": "pure",
      "type": "function"
    }
  ],
  "bytecode": "0x60806040523480156200001157600080fd5b5060405162000c1938038062000c1983398101806040528101908080519060200190929190805190602001909291908051820192919050505082828260006200006984620001e3640100000000026401000000009004565b620000838362000230640100000000026401000000009004565b6200009d836200027d640100000000026401000000009004565b90506000825111156200016557620000c48162000386640100000000026401000000009004565b1515620000d057600080fd5b8073ffffffffffffffffffffffffffffffffffffffff168260405180828051906020019080838360005b8381101562000117578082015181840152602081019050620000fa565b50505050905090810190601f168015620001455780820380516001836020036101000a031916815260200191505b50915050600060405180830381855af491505015156200016457600080fd5b5b505050506200019c62000187836200027d640100000000026401000000009004565b620003da640100000000026401000000009004565b620001ce620001b962000427640100000000026401000000009004565b62000386640100000000026401000000009004565b1515620001da57600080fd5b505050620004da565b6200022d817f4172f0f7d2289153072b0a6ca36959e0cbe2efc3afe50fc81636caa96338137b600102600019166200047464010000000002620006f5179091906401000000009004565b50565b6200027a817fd625496217aa6a3453eecb9c3489dc5a53e6c67b444329ea2b2cbc9ff547639b600102600019166200047b64010000000002620006fc179091906401000000009004565b50565b60006200029862000482640100000000026401000000009004565b73ffffffffffffffffffffffffffffffffffffffff1663be00bbd87ff1f3eb40f5bc1ad1344716ced8b8a0431d840b5783aea1fd01786bc26f35ac0f600102846040518363ffffffff167c0100000000000000000000000000000000000000000000000000000000028152600401808360001916600019168152602001826000191660001916815260200192505050602060405180830381600087803b1580156200034257600080fd5b505af115801562000357573d6000803e3d6000fd5b505050506040513d60208110156200036e57600080fd5b81019080805190602001909291905050509050919050565b600080600073ffffffffffffffffffffffffffffffffffffffff168373ffffffffffffffffffffffffffffffffffffffff161415620003c95760009150620003d4565b823b90506000811191505b50919050565b62000424817fdee64df20d65e53d7f51cb6ab6d921a0a6a638a91e942e1d8d02df28e31c038e600102600019166200047464010000000002620006f5179091906401000000009004565b50565b60006200046f7fdee64df20d65e53d7f51cb6ab6d921a0a6a638a91e942e1d8d02df28e31c038e60010260001916620004cf64010000000002620006ea176401000000009004565b905090565b8082555050565b8082555050565b6000620004ca7f4172f0f7d2289153072b0a6ca36959e0cbe2efc3afe50fc81636caa96338137b60010260001916620004cf64010000000002620006ea176401000000009004565b905090565b600081549050919050565b61072f80620004ea6000396000f3006080604052600436106100c5576000357c0100000000000000000000000000000000000000000000000000000000900463ffffffff1680630ceafa2a146101bd5780631113ed0d146101e8578063178e60791461021b5780632b2584f61461024e5780634555d5c91461027957806348a0c8dd146102a45780635c60da1b146102d3578063756f60491461032a5780637e84a4ff1461035d57806380afdea814610388578063cbcc65eb146103bb578063d4aae0c4146103ee578063db8a61d414610445575b60006127105a1015610172576000341180156100e45750600080369050145b15156100ef57600080fd5b6100f7610478565b151561010257600080fd5b7f15eeaa57c7bd188c1388020bcadc2c436ec60d647d36ef5b9eb3c742217ddee13334604051808373ffffffffffffffffffffffffffffffffffffffff1673ffffffffffffffffffffffffffffffffffffffff1681526020018281526020019250505060405180910390a16101ba565b61017a6104af565b90506101b9816000368080601f0160208091040260200160405190810160405280939291908181526020018383808284378201915050505050506104be565b5b50005b3480156101c957600080fd5b506101d2610501565b6040518082815260200191505060405180910390f35b3480156101f457600080fd5b506101fd610507565b60405180826000191660001916815260200191505060405180910390f35b34801561022757600080fd5b5061023061052e565b60405180826000191660001916815260200191505060405180910390f35b34801561025a57600080fd5b50610263610555565b6040518082815260200191505060405180910390f35b34801561028557600080fd5b5061028e61055a565b6040518082815260200191505060405180910390f35b3480156102b057600080fd5b506102b9610478565b604051808215151515815260200191505060405180910390f35b3480156102df57600080fd5b506102e86104af565b604051808273ffffffffffffffffffffffffffffffffffffffff1673ffffffffffffffffffffffffffffffffffffffff16815260200191505060405180910390f35b34801561033657600080fd5b5061033f610563565b60405180826000191660001916815260200191505060405180910390f35b34801561036957600080fd5b5061037261058a565b6040518082815260200191505060405180910390f35b34801561039457600080fd5b5061039d61058f565b60405180826000191660001916815260200191505060405180910390f35b3480156103c757600080fd5b506103d06105c6565b60405180826000191660001916815260200191505060405180910390f35b3480156103fa57600080fd5b506104036105ed565b604051808273ffffffffffffffffffffffffffffffffffffffff1673ffffffffffffffffffffffffffffffffffffffff16815260200191505060405180910390f35b34801561045157600080fd5b5061045a610624565b60405180826000191660001916815260200191505060405180910390f35b60006104aa7f665fd576fbbe6f247aff98f5c94a561e3f71ec2d3c988d56f12d342396c50cea6001026000191661064b565b905090565b60006104b9610656565b905090565b60006104c98361068d565b15156104d457600080fd5b612710905060008083516020850186855a03f43d604051816000823e82600081146104fd578282f35b8282fd5b61271081565b7f3b4bf6bf3ad5000ecf0f989d5befde585c6860fea3e574a4fab4c49d1c177d9c60010281565b7fd6f028ca0e8edb4a8c9757ca4fdccab25fa1e0317da1188108f7d2dee14902fb60010281565b600181565b60006001905090565b7fc681a85306374a5ab27f0bbc385296a54bcd314a1948b6cf61c4ea1bc44bb9f860010281565b600281565b60006105c17fd625496217aa6a3453eecb9c3489dc5a53e6c67b444329ea2b2cbc9ff547639b600102600019166106df565b905090565b7fe3262375f45a6e2026b7e7b18c2b807434f2508fe1a2a3dfb493c7df8f4aad6a60010281565b600061061f7f4172f0f7d2289153072b0a6ca36959e0cbe2efc3afe50fc81636caa96338137b600102600019166106ea565b905090565b7ff1f3eb40f5bc1ad1344716ced8b8a0431d840b5783aea1fd01786bc26f35ac0f60010281565b600081549050919050565b60006106887fdee64df20d65e53d7f51cb6ab6d921a0a6a638a91e942e1d8d02df28e31c038e600102600019166106ea565b905090565b600080600073ffffffffffffffffffffffffffffffffffffffff168373ffffffffffffffffffffffffffffffffffffffff1614156106ce57600091506106d9565b823b90506000811191505b50919050565b600081549050919050565b600081549050919050565b8082555050565b80825550505600a165627a7a72305820a80b185e1a5bf0860ee0dda99e5ded92294c72be2983423e7f9d441e4cf6f2d90029",
  "source": "pragma solidity 0.4.24;\n\nimport \"../common/UnstructuredStorage.sol\";\nimport \"../common/IsContract.sol\";\nimport \"./AppProxyBase.sol\";\n\n\ncontract AppProxyPinned is IsContract, AppProxyBase {\n    using UnstructuredStorage for bytes32;\n\n    // keccak256(\"aragonOS.appStorage.pinnedCode\"), used by Proxy Pinned\n    bytes32 internal constant PINNED_CODE_POSITION = 0xdee64df20d65e53d7f51cb6ab6d921a0a6a638a91e942e1d8d02df28e31c038e;\n\n    /**\n    * @dev Initialize AppProxyPinned (makes it an un-upgradeable Aragon app)\n    * @param _kernel Reference to organization kernel for the app\n    * @param _appId Identifier for app\n    * @param _initializePayload Payload for call to be made after setup to initialize\n    */\n    constructor(IKernel _kernel, bytes32 _appId, bytes _initializePayload)\n        AppProxyBase(_kernel, _appId, _initializePayload)\n        public // solium-disable-line visibility-first\n    {\n        setPinnedCode(getAppBase(_appId));\n        require(isContract(pinnedCode()));\n    }\n\n    /**\n     * @dev ERC897, the address the proxy would delegate calls to\n     */\n    function implementation() public view returns (address) {\n        return pinnedCode();\n    }\n\n    /**\n     * @dev ERC897, whether it is a forwarding (1) or an upgradeable (2) proxy\n     */\n    function proxyType() public pure returns (uint256 proxyTypeId) {\n        return FORWARDING;\n    }\n\n    function setPinnedCode(address _pinnedCode) internal {\n        PINNED_CODE_POSITION.setStorageAddress(_pinnedCode);\n    }\n\n    function pinnedCode() internal view returns (address) {\n        return PINNED_CODE_POSITION.getStorageAddress();\n    }\n}\n",
  "sourcePath": "@aragon/os/contracts/apps/AppProxyPinned.sol",
  "compiler": {
    "name": "solc",
    "version": "0.4.24+commit.e67f0147.Emscripten.clang"
  },
  "schemaVersion": "2.0.1",
  "updatedAt": "2018-09-08T13:56:44.077Z"
}