{
  "contractName": "DAOFactory",
  "abi": [
    {
      "constant": true,
      "inputs": [],
      "name": "baseACL",
      "outputs": [
        {
          "name": "",
          "type": "address"
        }
      ],
      "payable": false,
      "stateMutability": "view",
      "type": "function"
    },
    {
      "constant": true,
      "inputs": [],
      "name": "regFactory",
      "outputs": [
        {
          "name": "",
          "type": "address"
        }
      ],
      "payable": false,
      "stateMutability": "view",
      "type": "function"
    },
    {
      "constant": true,
      "inputs": [],
      "name": "baseKernel",
      "outputs": [
        {
          "name": "",
          "type": "address"
        }
      ],
      "payable": false,
      "stateMutability": "view",
      "type": "function"
    },
    {
      "inputs": [
        {
          "name": "_baseKernel",
          "type": "address"
        },
        {
          "name": "_baseACL",
          "type": "address"
        },
        {
          "name": "_regFactory",
          "type": "address"
        }
      ],
      "payable": false,
      "stateMutability": "nonpayable",
      "type": "constructor"
    },
    {
      "anonymous": false,
      "inputs": [
        {
          "indexed": false,
          "name": "dao",
          "type": "address"
        }
      ],
      "name": "DeployDAO",
      "type": "event"
    },
    {
      "anonymous": false,
      "inputs": [
        {
          "indexed": false,
          "name": "reg",
          "type": "address"
        }
      ],
      "name": "DeployEVMScriptRegistry",
      "type": "event"
    },
    {
      "constant": false,
      "inputs": [
        {
          "name": "_root",
          "type": "address"
        }
      ],
      "name": "newDAO",
      "outputs": [
        {
          "name": "",
          "type": "address"
        }
      ],
      "payable": false,
      "stateMutability": "nonpayable",
      "type": "function"
    }
  ],
  "bytecode": "0x608060405234801561001057600080fd5b50604051606080611bb2833981018060405281019080805190602001909291908051906020019092919080519060200190929190505050600073ffffffffffffffffffffffffffffffffffffffff168173ffffffffffffffffffffffffffffffffffffffff161415156100bf5780600260006101000a81548173ffffffffffffffffffffffffffffffffffffffff021916908373ffffffffffffffffffffffffffffffffffffffff1602179055505b826000806101000a81548173ffffffffffffffffffffffffffffffffffffffff021916908373ffffffffffffffffffffffffffffffffffffffff16021790555081600160006101000a81548173ffffffffffffffffffffffffffffffffffffffff021916908373ffffffffffffffffffffffffffffffffffffffff160217905550505050611a60806101526000396000f300608060405260043610610062576000357c0100000000000000000000000000000000000000000000000000000000900463ffffffff168063086b339e1461006757806321687444146100be578063656362b514610141578063b16dd13014610198575b600080fd5b34801561007357600080fd5b5061007c6101ef565b604051808273ffffffffffffffffffffffffffffffffffffffff1673ffffffffffffffffffffffffffffffffffffffff16815260200191505060405180910390f35b3480156100ca57600080fd5b506100ff600480360381019080803573ffffffffffffffffffffffffffffffffffffffff169060200190929190505050610215565b604051808273ffffffffffffffffffffffffffffffffffffffff1673ffffffffffffffffffffffffffffffffffffffff16815260200191505060405180910390f35b34801561014d57600080fd5b506101566110fc565b604051808273ffffffffffffffffffffffffffffffffffffffff1673ffffffffffffffffffffffffffffffffffffffff16815260200191505060405180910390f35b3480156101a457600080fd5b506101ad611122565b604051808273ffffffffffffffffffffffffffffffffffffffff1673ffffffffffffffffffffffffffffffffffffffff16815260200191505060405180910390f35b600160009054906101000a900473ffffffffffffffffffffffffffffffffffffffff1681565b6000806000806000806000809054906101000a900473ffffffffffffffffffffffffffffffffffffffff16610248611147565b808273ffffffffffffffffffffffffffffffffffffffff1673ffffffffffffffffffffffffffffffffffffffff168152602001915050604051809103906000f08015801561029a573d6000803e3d6000fd5b509450600073ffffffffffffffffffffffffffffffffffffffff16600260009054906101000a900473ffffffffffffffffffffffffffffffffffffffff1673ffffffffffffffffffffffffffffffffffffffff161415610402578473ffffffffffffffffffffffffffffffffffffffff1663485cc955600160009054906101000a900473ffffffffffffffffffffffffffffffffffffffff16896040518363ffffffff167c0100000000000000000000000000000000000000000000000000000000028152600401808373ffffffffffffffffffffffffffffffffffffffff1673ffffffffffffffffffffffffffffffffffffffff1681526020018273ffffffffffffffffffffffffffffffffffffffff1673ffffffffffffffffffffffffffffffffffffffff16815260200192505050600060405180830381600087803b1580156103e557600080fd5b505af11580156103f9573d6000803e3d6000fd5b5050505061108c565b8473ffffffffffffffffffffffffffffffffffffffff1663485cc955600160009054906101000a900473ffffffffffffffffffffffffffffffffffffffff16306040518363ffffffff167c0100000000000000000000000000000000000000000000000000000000028152600401808373ffffffffffffffffffffffffffffffffffffffff1673ffffffffffffffffffffffffffffffffffffffff1681526020018273ffffffffffffffffffffffffffffffffffffffff1673ffffffffffffffffffffffffffffffffffffffff16815260200192505050600060405180830381600087803b1580156104f357600080fd5b505af1158015610507573d6000803e3d6000fd5b505050508473ffffffffffffffffffffffffffffffffffffffff1663de2873596040518163ffffffff167c0100000000000000000000000000000000000000000000000000000000028152600401602060405180830381600087803b15801561056f57600080fd5b505af1158015610583573d6000803e3d6000fd5b505050506040513d602081101561059957600080fd5b810190808051906020019092919050505093508373ffffffffffffffffffffffffffffffffffffffff16633d6ab68f6040518163ffffffff167c0100000000000000000000000000000000000000000000000000000000028152600401602060405180830381600087803b15801561061057600080fd5b505af1158015610624573d6000803e3d6000fd5b505050506040513d602081101561063a57600080fd5b810190808051906020019092919050505092508473ffffffffffffffffffffffffffffffffffffffff16638ea8dc9d6040518163ffffffff167c0100000000000000000000000000000000000000000000000000000000028152600401602060405180830381600087803b1580156106b157600080fd5b505af11580156106c5573d6000803e3d6000fd5b505050506040513d60208110156106db57600080fd5b810190808051906020019092919050505091508373ffffffffffffffffffffffffffffffffffffffff16630a8ed3db600260009054906101000a900473ffffffffffffffffffffffffffffffffffffffff1686866040518463ffffffff167c0100000000000000000000000000000000000000000000000000000000028152600401808473ffffffffffffffffffffffffffffffffffffffff1673ffffffffffffffffffffffffffffffffffffffff1681526020018373ffffffffffffffffffffffffffffffffffffffff1673ffffffffffffffffffffffffffffffffffffffff16815260200182600019166000191681526020019350505050600060405180830381600087803b1580156107ef57600080fd5b505af1158015610803573d6000803e3d6000fd5b505050508373ffffffffffffffffffffffffffffffffffffffff1663be038478600260009054906101000a900473ffffffffffffffffffffffffffffffffffffffff168785306040518563ffffffff167c0100000000000000000000000000000000000000000000000000000000028152600401808573ffffffffffffffffffffffffffffffffffffffff1673ffffffffffffffffffffffffffffffffffffffff1681526020018473ffffffffffffffffffffffffffffffffffffffff1673ffffffffffffffffffffffffffffffffffffffff16815260200183600019166000191681526020018273ffffffffffffffffffffffffffffffffffffffff1673ffffffffffffffffffffffffffffffffffffffff168152602001945050505050600060405180830381600087803b15801561093c57600080fd5b505af1158015610950573d6000803e3d6000fd5b50505050600260009054906101000a900473ffffffffffffffffffffffffffffffffffffffff1673ffffffffffffffffffffffffffffffffffffffff166333404143866040518263ffffffff167c0100000000000000000000000000000000000000000000000000000000028152600401808273ffffffffffffffffffffffffffffffffffffffff1673ffffffffffffffffffffffffffffffffffffffff168152602001915050602060405180830381600087803b158015610a1157600080fd5b505af1158015610a25573d6000803e3d6000fd5b505050506040513d6020811015610a3b57600080fd5b810190808051906020019092919050505090507f1a40224412580c1ae5a2fbe8029a565f49a3a029608a8fd9320b32477f31457981604051808273ffffffffffffffffffffffffffffffffffffffff1673ffffffffffffffffffffffffffffffffffffffff16815260200191505060405180910390a18373ffffffffffffffffffffffffffffffffffffffff16639d0effdb600260009054906101000a900473ffffffffffffffffffffffffffffffffffffffff1687856040518463ffffffff167c0100000000000000000000000000000000000000000000000000000000028152600401808473ffffffffffffffffffffffffffffffffffffffff1673ffffffffffffffffffffffffffffffffffffffff1681526020018373ffffffffffffffffffffffffffffffffffffffff1673ffffffffffffffffffffffffffffffffffffffff16815260200182600019166000191681526020019350505050600060405180830381600087803b158015610bb257600080fd5b505af1158015610bc6573d6000803e3d6000fd5b505050508373ffffffffffffffffffffffffffffffffffffffff1663a885508a86846040518363ffffffff167c0100000000000000000000000000000000000000000000000000000000028152600401808373ffffffffffffffffffffffffffffffffffffffff1673ffffffffffffffffffffffffffffffffffffffff168152602001826000191660001916815260200192505050600060405180830381600087803b158015610c7557600080fd5b505af1158015610c89573d6000803e3d6000fd5b505050508373ffffffffffffffffffffffffffffffffffffffff16639d0effdb600260009054906101000a900473ffffffffffffffffffffffffffffffffffffffff1686866040518463ffffffff167c0100000000000000000000000000000000000000000000000000000000028152600401808473ffffffffffffffffffffffffffffffffffffffff1673ffffffffffffffffffffffffffffffffffffffff1681526020018373ffffffffffffffffffffffffffffffffffffffff1673ffffffffffffffffffffffffffffffffffffffff16815260200182600019166000191681526020019350505050600060405180830381600087803b158015610d8e57600080fd5b505af1158015610da2573d6000803e3d6000fd5b505050508373ffffffffffffffffffffffffffffffffffffffff16639d0effdb3086866040518463ffffffff167c0100000000000000000000000000000000000000000000000000000000028152600401808473ffffffffffffffffffffffffffffffffffffffff1673ffffffffffffffffffffffffffffffffffffffff1681526020018373ffffffffffffffffffffffffffffffffffffffff1673ffffffffffffffffffffffffffffffffffffffff16815260200182600019166000191681526020019350505050600060405180830381600087803b158015610e8557600080fd5b505af1158015610e99573d6000803e3d6000fd5b505050508373ffffffffffffffffffffffffffffffffffffffff16630a8ed3db8886866040518463ffffffff167c0100000000000000000000000000000000000000000000000000000000028152600401808473ffffffffffffffffffffffffffffffffffffffff1673ffffffffffffffffffffffffffffffffffffffff1681526020018373ffffffffffffffffffffffffffffffffffffffff1673ffffffffffffffffffffffffffffffffffffffff16815260200182600019166000191681526020019350505050600060405180830381600087803b158015610f7c57600080fd5b505af1158015610f90573d6000803e3d6000fd5b505050508373ffffffffffffffffffffffffffffffffffffffff1663afd925df8886866040518463ffffffff167c0100000000000000000000000000000000000000000000000000000000028152600401808473ffffffffffffffffffffffffffffffffffffffff1673ffffffffffffffffffffffffffffffffffffffff1681526020018373ffffffffffffffffffffffffffffffffffffffff1673ffffffffffffffffffffffffffffffffffffffff16815260200182600019166000191681526020019350505050600060405180830381600087803b15801561107357600080fd5b505af1158015611087573d6000803e3d6000fd5b505050505b7f3a7eb042a769adf51e9be78b68ed7af0ad7b379246536efc376ed2ca0123828285604051808273ffffffffffffffffffffffffffffffffffffffff1673ffffffffffffffffffffffffffffffffffffffff16815260200191505060405180910390a18495505050505050919050565b600260009054906101000a900473ffffffffffffffffffffffffffffffffffffffff1681565b6000809054906101000a900473ffffffffffffffffffffffffffffffffffffffff1681565b6040516108dd80611158833901905600608060405234801561001057600080fd5b506040516020806108dd8339810180604052810190808051906020019092919050505061004b81610114640100000000026401000000009004565b151561005657600080fd5b806000807fc681a85306374a5ab27f0bbc385296a54bcd314a1948b6cf61c4ea1bc44bb9f86001026000191660001916815260200190815260200160002060007f3b4bf6bf3ad5000ecf0f989d5befde585c6860fea3e574a4fab4c49d1c177d9c6001026000191660001916815260200190815260200160002060006101000a81548173ffffffffffffffffffffffffffffffffffffffff021916908373ffffffffffffffffffffffffffffffffffffffff16021790555050610166565b600080600073ffffffffffffffffffffffffffffffffffffffff168373ffffffffffffffffffffffffffffffffffffffff1614156101555760009150610160565b823b90506000811191505b50919050565b610768806101756000396000f3006080604052600436106100c5576000357c0100000000000000000000000000000000000000000000000000000000900463ffffffff1680630ceafa2a146101bd5780631113ed0d146101e8578063178e60791461021b5780632b2584f61461024e5780634555d5c9146102795780634558850c146102a457806348a0c8dd146103235780635c60da1b14610352578063756f6049146103a95780637e84a4ff146103dc57806386070cfe14610407578063cbcc65eb1461043a578063db8a61d41461046d575b60006127105a1015610172576000341180156100e45750600080369050145b15156100ef57600080fd5b6100f76104a0565b151561010257600080fd5b7f15eeaa57c7bd188c1388020bcadc2c436ec60d647d36ef5b9eb3c742217ddee13334604051808373ffffffffffffffffffffffffffffffffffffffff1673ffffffffffffffffffffffffffffffffffffffff1681526020018281526020019250505060405180910390a16101ba565b61017a6104d7565b90506101b9816000368080601f016020809104026020016040519081016040528093929190818152602001838380828437820191505050505050610578565b5b50005b3480156101c957600080fd5b506101d26105bb565b6040518082815260200191505060405180910390f35b3480156101f457600080fd5b506101fd6105c1565b60405180826000191660001916815260200191505060405180910390f35b34801561022757600080fd5b506102306105e8565b60405180826000191660001916815260200191505060405180910390f35b34801561025a57600080fd5b5061026361060f565b6040518082815260200191505060405180910390f35b34801561028557600080fd5b5061028e610614565b6040518082815260200191505060405180910390f35b3480156102b057600080fd5b506102e16004803603810190808035600019169060200190929190803560001916906020019092919050505061061d565b604051808273ffffffffffffffffffffffffffffffffffffffff1673ffffffffffffffffffffffffffffffffffffffff16815260200191505060405180910390f35b34801561032f57600080fd5b506103386104a0565b604051808215151515815260200191505060405180910390f35b34801561035e57600080fd5b506103676104d7565b604051808273ffffffffffffffffffffffffffffffffffffffff1673ffffffffffffffffffffffffffffffffffffffff16815260200191505060405180910390f35b3480156103b557600080fd5b506103be61065f565b60405180826000191660001916815260200191505060405180910390f35b3480156103e857600080fd5b506103f1610686565b6040518082815260200191505060405180910390f35b34801561041357600080fd5b5061041c61068b565b60405180826000191660001916815260200191505060405180910390f35b34801561044657600080fd5b5061044f610691565b60405180826000191660001916815260200191505060405180910390f35b34801561047957600080fd5b506104826106b8565b60405180826000191660001916815260200191505060405180910390f35b60006104d27f665fd576fbbe6f247aff98f5c94a561e3f71ec2d3c988d56f12d342396c50cea600102600019166106df565b905090565b60008060007fc681a85306374a5ab27f0bbc385296a54bcd314a1948b6cf61c4ea1bc44bb9f86001026000191660001916815260200190815260200160002060007f3b4bf6bf3ad5000ecf0f989d5befde585c6860fea3e574a4fab4c49d1c177d9c6001026000191660001916815260200190815260200160002060009054906101000a900473ffffffffffffffffffffffffffffffffffffffff16905090565b6000610583836106ea565b151561058e57600080fd5b612710905060008083516020850186855a03f43d604051816000823e82600081146105b7578282f35b8282fd5b61271081565b7f3b4bf6bf3ad5000ecf0f989d5befde585c6860fea3e574a4fab4c49d1c177d9c60010281565b7fd6f028ca0e8edb4a8c9757ca4fdccab25fa1e0317da1188108f7d2dee14902fb60010281565b600181565b60006002905090565b60006020528160005260406000206020528060005260406000206000915091509054906101000a900473ffffffffffffffffffffffffffffffffffffffff1681565b7fc681a85306374a5ab27f0bbc385296a54bcd314a1948b6cf61c4ea1bc44bb9f860010281565b600281565b60015481565b7fe3262375f45a6e2026b7e7b18c2b807434f2508fe1a2a3dfb493c7df8f4aad6a60010281565b7ff1f3eb40f5bc1ad1344716ced8b8a0431d840b5783aea1fd01786bc26f35ac0f60010281565b600081549050919050565b600080600073ffffffffffffffffffffffffffffffffffffffff168373ffffffffffffffffffffffffffffffffffffffff16141561072b5760009150610736565b823b90506000811191505b509190505600a165627a7a72305820b29c7ca544427f9a4de1b60dc9b521ddc03c29c1cb07bda7b2c828fcd907e24e0029a165627a7a723058205ca40fd09c84b97581c573fd648811cba043b3ac92cde99d6d5a3dd11046f9a40029",
  "source": "pragma solidity 0.4.24;\n\nimport \"../kernel/IKernel.sol\";\nimport \"../kernel/Kernel.sol\";\nimport \"../kernel/KernelProxy.sol\";\n\nimport \"../acl/IACL.sol\";\nimport \"../acl/ACL.sol\";\n\nimport \"./EVMScriptRegistryFactory.sol\";\n\n\ncontract DAOFactory {\n    IKernel public baseKernel;\n    IACL public baseACL;\n    EVMScriptRegistryFactory public regFactory;\n\n    event DeployDAO(address dao);\n    event DeployEVMScriptRegistry(address reg);\n\n    constructor(IKernel _baseKernel, IACL _baseACL, EVMScriptRegistryFactory _regFactory) public {\n        // No need to init as it cannot be killed by devops199\n        if (address(_regFactory) != address(0)) {\n            regFactory = _regFactory;\n        }\n\n        baseKernel = _baseKernel;\n        baseACL = _baseACL;\n    }\n\n    /**\n    * @param _root Address that will be granted control to setup DAO permissions\n    */\n    function newDAO(address _root) public returns (Kernel) {\n        Kernel dao = Kernel(new KernelProxy(baseKernel));\n\n        if (address(regFactory) == address(0)) {\n            dao.initialize(baseACL, _root);\n        } else {\n            dao.initialize(baseACL, this);\n\n            ACL acl = ACL(dao.acl());\n            bytes32 permRole = acl.CREATE_PERMISSIONS_ROLE();\n            bytes32 appManagerRole = dao.APP_MANAGER_ROLE();\n\n            acl.grantPermission(regFactory, acl, permRole);\n\n            acl.createPermission(regFactory, dao, appManagerRole, this);\n\n            EVMScriptRegistry reg = regFactory.newEVMScriptRegistry(dao);\n            emit DeployEVMScriptRegistry(address(reg));\n\n            // Clean up permissions\n            // First, completely reset the APP_MANAGER_ROLE\n            acl.revokePermission(regFactory, dao, appManagerRole);\n            acl.removePermissionManager(dao, appManagerRole);\n\n            // Then, make root the only holder and manager of CREATE_PERMISSIONS_ROLE\n            acl.revokePermission(regFactory, acl, permRole);\n            acl.revokePermission(this, acl, permRole);\n            acl.grantPermission(_root, acl, permRole);\n            acl.setPermissionManager(_root, acl, permRole);\n        }\n\n        emit DeployDAO(address(dao));\n\n        return dao;\n    }\n}\n",
  "sourcePath": "@aragon/os/contracts/factory/DAOFactory.sol",
  "compiler": {
    "name": "solc",
    "version": "0.4.24+commit.e67f0147.Emscripten.clang"
  },
  "schemaVersion": "2.0.1",
  "updatedAt": "2018-09-08T13:56:44.163Z"
}