{
  "contractName": "ENSConstants",
  "abi": [
    {
      "constant": true,
      "inputs": [],
      "name": "PUBLIC_RESOLVER_NODE",
      "outputs": [
        {
          "name": "",
          "type": "bytes32"
        }
      ],
      "payable": false,
      "stateMutability": "view",
      "type": "function"
    },
    {
      "constant": true,
      "inputs": [],
      "name": "ETH_TLD_LABEL",
      "outputs": [
        {
          "name": "",
          "type": "bytes32"
        }
      ],
      "payable": false,
      "stateMutability": "view",
      "type": "function"
    },
    {
      "constant": true,
      "inputs": [],
      "name": "ENS_ROOT",
      "outputs": [
        {
          "name": "",
          "type": "bytes32"
        }
      ],
      "payable": false,
      "stateMutability": "view",
      "type": "function"
    },
    {
      "constant": true,
      "inputs": [],
      "name": "PUBLIC_RESOLVER_LABEL",
      "outputs": [
        {
          "name": "",
          "type": "bytes32"
        }
      ],
      "payable": false,
      "stateMutability": "view",
      "type": "function"
    },
    {
      "constant": true,
      "inputs": [],
      "name": "ETH_TLD_NODE",
      "outputs": [
        {
          "name": "",
          "type": "bytes32"
        }
      ],
      "payable": false,
      "stateMutability": "view",
      "type": "function"
    }
  ],
  "bytecode": "0x608060405234801561001057600080fd5b50610491806100206000396000f30060806040526004361061006d576000357c0100000000000000000000000000000000000000000000000000000000900463ffffffff1680633f82e2c6146100725780639b227a97146100a5578063a9bf1c9f146100d8578063c84b1ce71461010b578063fdee38a91461013e575b600080fd5b34801561007e57600080fd5b50610087610171565b60405180826000191660001916815260200191505060405180910390f35b3480156100b157600080fd5b506100ba610315565b60405180826000191660001916815260200191505060405180910390f35b3480156100e457600080fd5b506100ed61034e565b60405180826000191660001916815260200191505060405180910390f35b34801561011757600080fd5b50610120610356565b60405180826000191660001916815260200191505060405180910390f35b34801561014a57600080fd5b5061015361038f565b60405180826000191660001916815260200191505060405180910390f35b600060010260405180807f6574680000000000000000000000000000000000000000000000000000000000815250600301905060405180910390206040516020018083600019166000191681526020018260001916600019168152602001925050506040516020818303038152906040526040518082805190602001908083835b60208310151561021757805182526020820191506020810190506020830392506101f2565b6001836020036101000a038019825116818451168082178552505050505050905001915050604051809103902060405180807f7265736f6c766572000000000000000000000000000000000000000000000000815250600801905060405180910390206040516020018083600019166000191681526020018260001916600019168152602001925050506040516020818303038152906040526040518082805190602001908083835b6020831015156102e557805182526020820191506020810190506020830392506102c0565b6001836020036101000a038019825116818451168082178552505050505050905001915050604051809103902081565b60405180807f65746800000000000000000000000000000000000000000000000000000000008152506003019050604051809103902081565b600060010281565b60405180807f7265736f6c7665720000000000000000000000000000000000000000000000008152506008019050604051809103902081565b600060010260405180807f6574680000000000000000000000000000000000000000000000000000000000815250600301905060405180910390206040516020018083600019166000191681526020018260001916600019168152602001925050506040516020818303038152906040526040518082805190602001908083835b6020831015156104355780518252602082019150602081019050602083039250610410565b6001836020036101000a0380198251168184511680821785525050505050509050019150506040518091039020815600a165627a7a72305820f63c650361a6ace5b68258ff90428597c8bf17eba7fdce87bea21ecb1d9f51470029",
  "source": "/*\n * SPDX-License-Identitifer:    MIT\n */\n\npragma solidity ^0.4.24;\n\n\ncontract ENSConstants {\n    bytes32 constant public ENS_ROOT = bytes32(0);\n    bytes32 constant public ETH_TLD_LABEL = keccak256(\"eth\");\n    bytes32 constant public ETH_TLD_NODE = keccak256(abi.encodePacked(ENS_ROOT, ETH_TLD_LABEL));\n    bytes32 constant public PUBLIC_RESOLVER_LABEL = keccak256(\"resolver\");\n    bytes32 constant public PUBLIC_RESOLVER_NODE = keccak256(abi.encodePacked(ETH_TLD_NODE, PUBLIC_RESOLVER_LABEL));\n}\n",
  "sourcePath": "@aragon/os/contracts/ens/ENSConstants.sol",
  "compiler": {
    "name": "solc",
    "version": "0.4.24+commit.e67f0147.Emscripten.clang"
  },
  "schemaVersion": "2.0.1",
  "updatedAt": "2018-09-08T13:56:44.123Z"
}