{
  "contractName": "KernelProxy",
  "abi": [
    {
      "constant": true,
      "inputs": [],
      "name": "FWD_GAS_LIMIT",
      "outputs": [
        {
          "name": "",
          "type": "uint256"
        }
      ],
      "payable": false,
      "stateMutability": "view",
      "type": "function"
    },
    {
      "constant": true,
      "inputs": [],
      "name": "KERNEL_APP_ID",
      "outputs": [
        {
          "name": "",
          "type": "bytes32"
        }
      ],
      "payable": false,
      "stateMutability": "view",
      "type": "function"
    },
    {
      "constant": true,
      "inputs": [],
      "name": "APP_ADDR_NAMESPACE",
      "outputs": [
        {
          "name": "",
          "type": "bytes32"
        }
      ],
      "payable": false,
      "stateMutability": "view",
      "type": "function"
    },
    {
      "constant": true,
      "inputs": [],
      "name": "FORWARDING",
      "outputs": [
        {
          "name": "",
          "type": "uint256"
        }
      ],
      "payable": false,
      "stateMutability": "view",
      "type": "function"
    },
    {
      "constant": true,
      "inputs": [
        {
          "name": "",
          "type": "bytes32"
        },
        {
          "name": "",
          "type": "bytes32"
        }
      ],
      "name": "apps",
      "outputs": [
        {
          "name": "",
          "type": "address"
        }
      ],
      "payable": false,
      "stateMutability": "view",
      "type": "function"
    },
    {
      "constant": true,
      "inputs": [],
      "name": "isDepositable",
      "outputs": [
        {
          "name": "",
          "type": "bool"
        }
      ],
      "payable": false,
      "stateMutability": "view",
      "type": "function"
    },
    {
      "constant": true,
      "inputs": [],
      "name": "CORE_NAMESPACE",
      "outputs": [
        {
          "name": "",
          "type": "bytes32"
        }
      ],
      "payable": false,
      "stateMutability": "view",
      "type": "function"
    },
    {
      "constant": true,
      "inputs": [],
      "name": "UPGRADEABLE",
      "outputs": [
        {
          "name": "",
          "type": "uint256"
        }
      ],
      "payable": false,
      "stateMutability": "view",
      "type": "function"
    },
    {
      "constant": true,
      "inputs": [],
      "name": "recoveryVaultAppId",
      "outputs": [
        {
          "name": "",
          "type": "bytes32"
        }
      ],
      "payable": false,
      "stateMutability": "view",
      "type": "function"
    },
    {
      "constant": true,
      "inputs": [],
      "name": "ACL_APP_ID",
      "outputs": [
        {
          "name": "",
          "type": "bytes32"
        }
      ],
      "payable": false,
      "stateMutability": "view",
      "type": "function"
    },
    {
      "constant": true,
      "inputs": [],
      "name": "APP_BASES_NAMESPACE",
      "outputs": [
        {
          "name": "",
          "type": "bytes32"
        }
      ],
      "payable": false,
      "stateMutability": "view",
      "type": "function"
    },
    {
      "inputs": [
        {
          "name": "_kernelImpl",
          "type": "address"
        }
      ],
      "payable": false,
      "stateMutability": "nonpayable",
      "type": "constructor"
    },
    {
      "payable": true,
      "stateMutability": "payable",
      "type": "fallback"
    },
    {
      "anonymous": false,
      "inputs": [
        {
          "indexed": false,
          "name": "sender",
          "type": "address"
        },
        {
          "indexed": false,
          "name": "value",
          "type": "uint256"
        }
      ],
      "name": "ProxyDeposit",
      "type": "event"
    },
    {
      "constant": true,
      "inputs": [],
      "name": "proxyType",
      "outputs": [
        {
          "name": "proxyTypeId",
          "type": "uint256"
        }
      ],
      "payable": false,
      "stateMutability": "pure",
      "type": "function"
    },
    {
      "constant": true,
      "inputs": [],
      "name": "implementation",
      "outputs": [
        {
          "name": "",
          "type": "address"
        }
      ],
      "payable": false,
      "stateMutability": "view",
      "type": "function"
    }
  ],
  "bytecode": "0x608060405234801561001057600080fd5b506040516020806108dd8339810180604052810190808051906020019092919050505061004b81610114640100000000026401000000009004565b151561005657600080fd5b806000807fc681a85306374a5ab27f0bbc385296a54bcd314a1948b6cf61c4ea1bc44bb9f86001026000191660001916815260200190815260200160002060007f3b4bf6bf3ad5000ecf0f989d5befde585c6860fea3e574a4fab4c49d1c177d9c6001026000191660001916815260200190815260200160002060006101000a81548173ffffffffffffffffffffffffffffffffffffffff021916908373ffffffffffffffffffffffffffffffffffffffff16021790555050610166565b600080600073ffffffffffffffffffffffffffffffffffffffff168373ffffffffffffffffffffffffffffffffffffffff1614156101555760009150610160565b823b90506000811191505b50919050565b610768806101756000396000f3006080604052600436106100c5576000357c0100000000000000000000000000000000000000000000000000000000900463ffffffff1680630ceafa2a146101bd5780631113ed0d146101e8578063178e60791461021b5780632b2584f61461024e5780634555d5c9146102795780634558850c146102a457806348a0c8dd146103235780635c60da1b14610352578063756f6049146103a95780637e84a4ff146103dc57806386070cfe14610407578063cbcc65eb1461043a578063db8a61d41461046d575b60006127105a1015610172576000341180156100e45750600080369050145b15156100ef57600080fd5b6100f76104a0565b151561010257600080fd5b7f15eeaa57c7bd188c1388020bcadc2c436ec60d647d36ef5b9eb3c742217ddee13334604051808373ffffffffffffffffffffffffffffffffffffffff1673ffffffffffffffffffffffffffffffffffffffff1681526020018281526020019250505060405180910390a16101ba565b61017a6104d7565b90506101b9816000368080601f016020809104026020016040519081016040528093929190818152602001838380828437820191505050505050610578565b5b50005b3480156101c957600080fd5b506101d26105bb565b6040518082815260200191505060405180910390f35b3480156101f457600080fd5b506101fd6105c1565b60405180826000191660001916815260200191505060405180910390f35b34801561022757600080fd5b506102306105e8565b60405180826000191660001916815260200191505060405180910390f35b34801561025a57600080fd5b5061026361060f565b6040518082815260200191505060405180910390f35b34801561028557600080fd5b5061028e610614565b6040518082815260200191505060405180910390f35b3480156102b057600080fd5b506102e16004803603810190808035600019169060200190929190803560001916906020019092919050505061061d565b604051808273ffffffffffffffffffffffffffffffffffffffff1673ffffffffffffffffffffffffffffffffffffffff16815260200191505060405180910390f35b34801561032f57600080fd5b506103386104a0565b604051808215151515815260200191505060405180910390f35b34801561035e57600080fd5b506103676104d7565b604051808273ffffffffffffffffffffffffffffffffffffffff1673ffffffffffffffffffffffffffffffffffffffff16815260200191505060405180910390f35b3480156103b557600080fd5b506103be61065f565b60405180826000191660001916815260200191505060405180910390f35b3480156103e857600080fd5b506103f1610686565b6040518082815260200191505060405180910390f35b34801561041357600080fd5b5061041c61068b565b60405180826000191660001916815260200191505060405180910390f35b34801561044657600080fd5b5061044f610691565b60405180826000191660001916815260200191505060405180910390f35b34801561047957600080fd5b506104826106b8565b60405180826000191660001916815260200191505060405180910390f35b60006104d27f665fd576fbbe6f247aff98f5c94a561e3f71ec2d3c988d56f12d342396c50cea600102600019166106df565b905090565b60008060007fc681a85306374a5ab27f0bbc385296a54bcd314a1948b6cf61c4ea1bc44bb9f86001026000191660001916815260200190815260200160002060007f3b4bf6bf3ad5000ecf0f989d5befde585c6860fea3e574a4fab4c49d1c177d9c6001026000191660001916815260200190815260200160002060009054906101000a900473ffffffffffffffffffffffffffffffffffffffff16905090565b6000610583836106ea565b151561058e57600080fd5b612710905060008083516020850186855a03f43d604051816000823e82600081146105b7578282f35b8282fd5b61271081565b7f3b4bf6bf3ad5000ecf0f989d5befde585c6860fea3e574a4fab4c49d1c177d9c60010281565b7fd6f028ca0e8edb4a8c9757ca4fdccab25fa1e0317da1188108f7d2dee14902fb60010281565b600181565b60006002905090565b60006020528160005260406000206020528060005260406000206000915091509054906101000a900473ffffffffffffffffffffffffffffffffffffffff1681565b7fc681a85306374a5ab27f0bbc385296a54bcd314a1948b6cf61c4ea1bc44bb9f860010281565b600281565b60015481565b7fe3262375f45a6e2026b7e7b18c2b807434f2508fe1a2a3dfb493c7df8f4aad6a60010281565b7ff1f3eb40f5bc1ad1344716ced8b8a0431d840b5783aea1fd01786bc26f35ac0f60010281565b600081549050919050565b600080600073ffffffffffffffffffffffffffffffffffffffff168373ffffffffffffffffffffffffffffffffffffffff16141561072b5760009150610736565b823b90506000811191505b509190505600a165627a7a72305820b29c7ca544427f9a4de1b60dc9b521ddc03c29c1cb07bda7b2c828fcd907e24e0029",
  "source": "pragma solidity 0.4.24;\n\nimport \"./IKernel.sol\";\nimport \"./KernelStorage.sol\";\nimport \"../common/DepositableDelegateProxy.sol\";\nimport \"../common/IsContract.sol\";\n\n\ncontract KernelProxy is KernelStorage, IsContract, DepositableDelegateProxy {\n    /**\n    * @dev KernelProxy is a proxy contract to a kernel implementation. The implementation\n    *      can update the reference, which effectively upgrades the contract\n    * @param _kernelImpl Address of the contract used as implementation for kernel\n    */\n    constructor(IKernel _kernelImpl) public {\n        require(isContract(address(_kernelImpl)));\n        apps[CORE_NAMESPACE][KERNEL_APP_ID] = _kernelImpl;\n    }\n\n    /**\n     * @dev ERC897, whether it is a forwarding (1) or an upgradeable (2) proxy\n     */\n    function proxyType() public pure returns (uint256 proxyTypeId) {\n        return UPGRADEABLE;\n    }\n\n    /**\n    * @dev ERC897, the address the proxy would delegate calls to\n    */\n    function implementation() public view returns (address) {\n        return apps[CORE_NAMESPACE][KERNEL_APP_ID];\n    }\n}\n",
  "sourcePath": "@aragon/os/contracts/kernel/KernelProxy.sol",
  "compiler": {
    "name": "solc",
    "version": "0.4.24+commit.e67f0147.Emscripten.clang"
  },
  "schemaVersion": "2.0.1",
  "updatedAt": "2018-09-08T13:56:44.170Z"
}