{
  "contractName": "KitBase",
  "abi": [
    {
      "constant": true,
      "inputs": [],
      "name": "APM_NODE",
      "outputs": [
        {
          "name": "",
          "type": "bytes32"
        }
      ],
      "payable": false,
      "stateMutability": "view",
      "type": "function"
    },
    {
      "constant": true,
      "inputs": [],
      "name": "ens",
      "outputs": [
        {
          "name": "",
          "type": "address"
        }
      ],
      "payable": false,
      "stateMutability": "view",
      "type": "function"
    },
    {
      "constant": true,
      "inputs": [],
      "name": "PUBLIC_RESOLVER_NODE",
      "outputs": [
        {
          "name": "",
          "type": "bytes32"
        }
      ],
      "payable": false,
      "stateMutability": "view",
      "type": "function"
    },
    {
      "constant": true,
      "inputs": [],
      "name": "ETH_TLD_LABEL",
      "outputs": [
        {
          "name": "",
          "type": "bytes32"
        }
      ],
      "payable": false,
      "stateMutability": "view",
      "type": "function"
    },
    {
      "constant": true,
      "inputs": [],
      "name": "ENS_ROOT",
      "outputs": [
        {
          "name": "",
          "type": "bytes32"
        }
      ],
      "payable": false,
      "stateMutability": "view",
      "type": "function"
    },
    {
      "constant": true,
      "inputs": [],
      "name": "fac",
      "outputs": [
        {
          "name": "",
          "type": "address"
        }
      ],
      "payable": false,
      "stateMutability": "view",
      "type": "function"
    },
    {
      "constant": true,
      "inputs": [],
      "name": "PUBLIC_RESOLVER_LABEL",
      "outputs": [
        {
          "name": "",
          "type": "bytes32"
        }
      ],
      "payable": false,
      "stateMutability": "view",
      "type": "function"
    },
    {
      "constant": true,
      "inputs": [],
      "name": "ETH_TLD_NODE",
      "outputs": [
        {
          "name": "",
          "type": "bytes32"
        }
      ],
      "payable": false,
      "stateMutability": "view",
      "type": "function"
    },
    {
      "inputs": [
        {
          "name": "_fac",
          "type": "address"
        },
        {
          "name": "_ens",
          "type": "address"
        }
      ],
      "payable": false,
      "stateMutability": "nonpayable",
      "type": "constructor"
    },
    {
      "anonymous": false,
      "inputs": [
        {
          "indexed": false,
          "name": "dao",
          "type": "address"
        }
      ],
      "name": "DeployInstance",
      "type": "event"
    },
    {
      "anonymous": false,
      "inputs": [
        {
          "indexed": false,
          "name": "appProxy",
          "type": "address"
        },
        {
          "indexed": false,
          "name": "appId",
          "type": "bytes32"
        }
      ],
      "name": "InstalledApp",
      "type": "event"
    },
    {
      "constant": true,
      "inputs": [
        {
          "name": "appId",
          "type": "bytes32"
        }
      ],
      "name": "latestVersionAppBase",
      "outputs": [
        {
          "name": "base",
          "type": "address"
        }
      ],
      "payable": false,
      "stateMutability": "view",
      "type": "function"
    }
  ],
  "bytecode": "0x60806040523480156200001157600080fd5b506040516040806200125883398101806040528101908080519060200190929190805190602001909291905050506000816000806101000a81548173ffffffffffffffffffffffffffffffffffffffff021916908373ffffffffffffffffffffffffffffffffffffffff160217905550600073ffffffffffffffffffffffffffffffffffffffff168373ffffffffffffffffffffffffffffffffffffffff1614156200020957620001066040805190810160405280600881526020017f626172652d6b697400000000000000000000000000000000000000000000000081525062000254640100000000026401000000009004565b9050620001228162000500640100000000026401000000009004565b73ffffffffffffffffffffffffffffffffffffffff1663c3b314726040518163ffffffff167c0100000000000000000000000000000000000000000000000000000000028152600401602060405180830381600087803b1580156200018657600080fd5b505af11580156200019b573d6000803e3d6000fd5b505050506040513d6020811015620001b257600080fd5b8101908080519060200190929190505050600160006101000a81548173ffffffffffffffffffffffffffffffffffffffff021916908373ffffffffffffffffffffffffffffffffffffffff1602179055506200024b565b82600160006101000a81548173ffffffffffffffffffffffffffffffffffffffff021916908373ffffffffffffffffffffffffffffffffffffffff1602179055505b505050620007ab565b60008060010260405180807f6574680000000000000000000000000000000000000000000000000000000000815250600301905060405180910390206040516020018083600019166000191681526020018260001916600019168152602001925050506040516020818303038152906040526040518082805190602001908083835b602083101515620002fd5780518252602082019150602081019050602083039250620002d6565b6001836020036101000a038019825116818451168082178552505050505050905001915050604051809103902060405180807f617261676f6e706d000000000000000000000000000000000000000000000000815250600801905060405180910390206040516020018083600019166000191681526020018260001916600019168152602001925050506040516020818303038152906040526040518082805190602001908083835b602083101515620003cd5780518252602082019150602081019050602083039250620003a6565b6001836020036101000a0380198251168184511680821785525050505050509050019150506040518091039020826040518082805190602001908083835b6020831015156200043257805182526020820191506020810190506020830392506200040b565b6001836020036101000a03801982511681845116808217855250505050505090500191505060405180910390206040516020018083600019166000191681526020018260001916600019168152602001925050506040516020818303038152906040526040518082805190602001908083835b602083101515620004cc5780518252602082019150602081019050602083039250620004a5565b6001836020036101000a03801982511681845116808217855250505050505090500191505060405180910390209050919050565b6000806000809054906101000a900473ffffffffffffffffffffffffffffffffffffffff1673ffffffffffffffffffffffffffffffffffffffff16630178b8bf846040518263ffffffff167c0100000000000000000000000000000000000000000000000000000000028152600401808260001916600019168152602001915050602060405180830381600087803b1580156200059c57600080fd5b505af1158015620005b1573d6000803e3d6000fd5b505050506040513d6020811015620005c857600080fd5b810190808051906020019092919050505073ffffffffffffffffffffffffffffffffffffffff16633b3b57de846040518263ffffffff167c0100000000000000000000000000000000000000000000000000000000028152600401808260001916600019168152602001915050602060405180830381600087803b1580156200065057600080fd5b505af115801562000665573d6000803e3d6000fd5b505050506040513d60208110156200067c57600080fd5b810190808051906020019092919050505090508073ffffffffffffffffffffffffffffffffffffffff1663c36af4606040518163ffffffff167c0100000000000000000000000000000000000000000000000000000000028152600401600060405180830381600087803b158015620006f457600080fd5b505af115801562000709573d6000803e3d6000fd5b505050506040513d6000823e3d601f19601f8201168201806040525060a08110156200073457600080fd5b810190809190826060018051906020019092919080516401000000008111156200075d57600080fd5b828101905060208101848111156200077457600080fd5b81518560018202830111640100000000821117156200079257600080fd5b5050929190505050909150508092505081915050919050565b610a9d80620007bb6000396000f300608060405260043610610099576000357c0100000000000000000000000000000000000000000000000000000000900463ffffffff168063097207781461009e5780633f15457f146100d15780633f82e2c6146101285780639b227a971461015b578063a9bf1c9f1461018e578063c3b31472146101c1578063c6d2c71714610218578063c84b1ce714610289578063fdee38a9146102bc575b600080fd5b3480156100aa57600080fd5b506100b36102ef565b60405180826000191660001916815260200191505060405180910390f35b3480156100dd57600080fd5b506100e6610493565b604051808273ffffffffffffffffffffffffffffffffffffffff1673ffffffffffffffffffffffffffffffffffffffff16815260200191505060405180910390f35b34801561013457600080fd5b5061013d6104b8565b60405180826000191660001916815260200191505060405180910390f35b34801561016757600080fd5b5061017061065c565b60405180826000191660001916815260200191505060405180910390f35b34801561019a57600080fd5b506101a3610695565b60405180826000191660001916815260200191505060405180910390f35b3480156101cd57600080fd5b506101d661069d565b604051808273ffffffffffffffffffffffffffffffffffffffff1673ffffffffffffffffffffffffffffffffffffffff16815260200191505060405180910390f35b34801561022457600080fd5b5061024760048036038101908080356000191690602001909291905050506106c3565b604051808273ffffffffffffffffffffffffffffffffffffffff1673ffffffffffffffffffffffffffffffffffffffff16815260200191505060405180910390f35b34801561029557600080fd5b5061029e610962565b60405180826000191660001916815260200191505060405180910390f35b3480156102c857600080fd5b506102d161099b565b60405180826000191660001916815260200191505060405180910390f35b600060010260405180807f6574680000000000000000000000000000000000000000000000000000000000815250600301905060405180910390206040516020018083600019166000191681526020018260001916600019168152602001925050506040516020818303038152906040526040518082805190602001908083835b6020831015156103955780518252602082019150602081019050602083039250610370565b6001836020036101000a038019825116818451168082178552505050505050905001915050604051809103902060405180807f617261676f6e706d000000000000000000000000000000000000000000000000815250600801905060405180910390206040516020018083600019166000191681526020018260001916600019168152602001925050506040516020818303038152906040526040518082805190602001908083835b602083101515610463578051825260208201915060208101905060208303925061043e565b6001836020036101000a038019825116818451168082178552505050505050905001915050604051809103902081565b6000809054906101000a900473ffffffffffffffffffffffffffffffffffffffff1681565b600060010260405180807f6574680000000000000000000000000000000000000000000000000000000000815250600301905060405180910390206040516020018083600019166000191681526020018260001916600019168152602001925050506040516020818303038152906040526040518082805190602001908083835b60208310151561055e5780518252602082019150602081019050602083039250610539565b6001836020036101000a038019825116818451168082178552505050505050905001915050604051809103902060405180807f7265736f6c766572000000000000000000000000000000000000000000000000815250600801905060405180910390206040516020018083600019166000191681526020018260001916600019168152602001925050506040516020818303038152906040526040518082805190602001908083835b60208310151561062c5780518252602082019150602081019050602083039250610607565b6001836020036101000a038019825116818451168082178552505050505050905001915050604051809103902081565b60405180807f65746800000000000000000000000000000000000000000000000000000000008152506003019050604051809103902081565b600060010281565b600160009054906101000a900473ffffffffffffffffffffffffffffffffffffffff1681565b6000806000809054906101000a900473ffffffffffffffffffffffffffffffffffffffff1673ffffffffffffffffffffffffffffffffffffffff16630178b8bf846040518263ffffffff167c0100000000000000000000000000000000000000000000000000000000028152600401808260001916600019168152602001915050602060405180830381600087803b15801561075e57600080fd5b505af1158015610772573d6000803e3d6000fd5b505050506040513d602081101561078857600080fd5b810190808051906020019092919050505073ffffffffffffffffffffffffffffffffffffffff16633b3b57de846040518263ffffffff167c0100000000000000000000000000000000000000000000000000000000028152600401808260001916600019168152602001915050602060405180830381600087803b15801561080f57600080fd5b505af1158015610823573d6000803e3d6000fd5b505050506040513d602081101561083957600080fd5b810190808051906020019092919050505090508073ffffffffffffffffffffffffffffffffffffffff1663c36af4606040518163ffffffff167c0100000000000000000000000000000000000000000000000000000000028152600401600060405180830381600087803b1580156108b057600080fd5b505af11580156108c4573d6000803e3d6000fd5b505050506040513d6000823e3d601f19601f8201168201806040525060a08110156108ee57600080fd5b8101908091908260600180519060200190929190805164010000000081111561091657600080fd5b8281019050602081018481111561092c57600080fd5b815185600182028301116401000000008211171561094957600080fd5b5050929190505050909150508092505081915050919050565b60405180807f7265736f6c7665720000000000000000000000000000000000000000000000008152506008019050604051809103902081565b600060010260405180807f6574680000000000000000000000000000000000000000000000000000000000815250600301905060405180910390206040516020018083600019166000191681526020018260001916600019168152602001925050506040516020818303038152906040526040518082805190602001908083835b602083101515610a415780518252602082019150602081019050602083039250610a1c565b6001836020036101000a0380198251168184511680821785525050505050509050019150506040518091039020815600a165627a7a723058208f92454ca030eee31b88ac1600ec7a69ce93f9bb03cd7bdb0a0c96d7f98a841e0029",
  "source": "pragma solidity 0.4.24;\n\nimport \"@aragon/os/contracts/factory/DAOFactory.sol\";\nimport \"@aragon/os/contracts/apm/Repo.sol\";\nimport \"@aragon/os/contracts/lib/ens/ENS.sol\";\nimport \"@aragon/os/contracts/lib/ens/PublicResolver.sol\";\nimport \"@aragon/os/contracts/apm/APMNamehash.sol\";\n\nimport \"@aragon/apps-token-manager/contracts/TokenManager.sol\";\nimport \"@aragon/apps-shared-minime/contracts/MiniMeToken.sol\";\n\n// import \"voting/contracts/Voting.sol\";\n\n//import \"./CounterApp.sol\";\nimport \"./Voting.sol\";\n\ncontract KitBase is APMNamehash {\n    ENS public ens;\n    DAOFactory public fac;\n\n    event DeployInstance(address dao);\n    event InstalledApp(address appProxy, bytes32 appId);\n\n    constructor (DAOFactory _fac, ENS _ens) {\n        ens = _ens;\n\n        // If no factory is passed, get it from on-chain bare-kit\n        if (address(_fac) == address(0)) {\n            bytes32 bareKit = apmNamehash(\"bare-kit\");\n            fac = KitBase(latestVersionAppBase(bareKit)).fac();\n        } else {\n            fac = _fac;\n        }\n    }\n\n    function latestVersionAppBase(bytes32 appId) public view returns (address base) {\n        Repo repo = Repo(PublicResolver(ens.resolver(appId)).addr(appId));\n        (,base,) = repo.getLatest();\n\n        return base;\n    }\n}\n\ncontract Kit is KitBase {\n    MiniMeTokenFactory tokenFactory;\n\n    uint256 constant PCT = 10 ** 16;\n    address constant ANY_ENTITY = address(-1);\n\n    constructor (ENS ens) KitBase(DAOFactory(0), ens) {\n        tokenFactory = new MiniMeTokenFactory();\n    }\n\n    function newInstance() public {\n        Kernel dao = fac.newDAO(this);\n        ACL acl = ACL(dao.acl());\n        acl.createPermission(this, dao, dao.APP_MANAGER_ROLE(), this);\n\n        address root = msg.sender;\n        bytes32 votingAppId = apmNamehash(\"voting\");\n        bytes32 tokenManagerAppId = apmNamehash(\"token-manager\");\n\n        Voting voting = Voting(dao.newAppInstance(votingAppId, latestVersionAppBase(votingAppId)));\n        TokenManager tokenManager = TokenManager(dao.newAppInstance(tokenManagerAppId, latestVersionAppBase(tokenManagerAppId)));\n\n        MiniMeToken token = tokenFactory.createCloneToken(MiniMeToken(0), 0, \"App token\", 0, \"APP\", true);\n        token.changeController(tokenManager);\n\n        tokenManager.initialize(token, true, 0, true);\n        // Initialize apps\n        voting.initialize(token, 50 * PCT, 20 * PCT, 1 days);\n\n        acl.createPermission(this, tokenManager, tokenManager.MINT_ROLE(), this);\n        tokenManager.mint(root, 1); // Give one token to root\n\n        acl.createPermission(ANY_ENTITY, voting, voting.CREATE_VOTES_ROLE(), root);\n\n        acl.grantPermission(voting, tokenManager, tokenManager.MINT_ROLE());\n\n        // Clean up permissions\n        acl.grantPermission(root, dao, dao.APP_MANAGER_ROLE());\n        acl.revokePermission(this, dao, dao.APP_MANAGER_ROLE());\n        acl.setPermissionManager(root, dao, dao.APP_MANAGER_ROLE());\n\n        acl.grantPermission(root, acl, acl.CREATE_PERMISSIONS_ROLE());\n        acl.revokePermission(this, acl, acl.CREATE_PERMISSIONS_ROLE());\n        acl.setPermissionManager(root, acl, acl.CREATE_PERMISSIONS_ROLE());\n\n        DeployInstance(dao);\n    }\n}\n",
  "sourcePath": "/Users/corneliusihle/GIT/ETHBerlin/new/zkdao/contracts/Kit.sol",
  "compiler": {
    "name": "solc",
    "version": "0.4.24+commit.e67f0147.Emscripten.clang"
  },
  "schemaVersion": "2.0.1",
  "updatedAt": "2018-09-08T13:56:43.990Z"
}