{
  "contractName": "Repo",
  "abi": [
    {
      "constant": true,
      "inputs": [],
      "name": "hasInitialized",
      "outputs": [
        {
          "name": "",
          "type": "bool"
        }
      ],
      "payable": false,
      "stateMutability": "view",
      "type": "function"
    },
    {
      "constant": true,
      "inputs": [],
      "name": "KERNEL_APP_ID",
      "outputs": [
        {
          "name": "",
          "type": "bytes32"
        }
      ],
      "payable": false,
      "stateMutability": "view",
      "type": "function"
    },
    {
      "constant": true,
      "inputs": [],
      "name": "APP_ADDR_NAMESPACE",
      "outputs": [
        {
          "name": "",
          "type": "bytes32"
        }
      ],
      "payable": false,
      "stateMutability": "view",
      "type": "function"
    },
    {
      "constant": true,
      "inputs": [],
      "name": "getRecoveryVault",
      "outputs": [
        {
          "name": "",
          "type": "address"
        }
      ],
      "payable": false,
      "stateMutability": "view",
      "type": "function"
    },
    {
      "constant": true,
      "inputs": [],
      "name": "EVMSCRIPT_REGISTRY_APP_ID",
      "outputs": [
        {
          "name": "",
          "type": "bytes32"
        }
      ],
      "payable": false,
      "stateMutability": "view",
      "type": "function"
    },
    {
      "constant": true,
      "inputs": [],
      "name": "CORE_NAMESPACE",
      "outputs": [
        {
          "name": "",
          "type": "bytes32"
        }
      ],
      "payable": false,
      "stateMutability": "view",
      "type": "function"
    },
    {
      "constant": true,
      "inputs": [
        {
          "name": "token",
          "type": "address"
        }
      ],
      "name": "allowRecoverability",
      "outputs": [
        {
          "name": "",
          "type": "bool"
        }
      ],
      "payable": false,
      "stateMutability": "view",
      "type": "function"
    },
    {
      "constant": true,
      "inputs": [],
      "name": "appId",
      "outputs": [
        {
          "name": "",
          "type": "bytes32"
        }
      ],
      "payable": false,
      "stateMutability": "view",
      "type": "function"
    },
    {
      "constant": true,
      "inputs": [],
      "name": "ETH",
      "outputs": [
        {
          "name": "",
          "type": "address"
        }
      ],
      "payable": false,
      "stateMutability": "view",
      "type": "function"
    },
    {
      "constant": true,
      "inputs": [
        {
          "name": "",
          "type": "uint256"
        }
      ],
      "name": "versions",
      "outputs": [
        {
          "name": "contractAddress",
          "type": "address"
        },
        {
          "name": "contentURI",
          "type": "bytes"
        }
      ],
      "payable": false,
      "stateMutability": "view",
      "type": "function"
    },
    {
      "constant": true,
      "inputs": [],
      "name": "getInitializationBlock",
      "outputs": [
        {
          "name": "",
          "type": "uint256"
        }
      ],
      "payable": false,
      "stateMutability": "view",
      "type": "function"
    },
    {
      "constant": false,
      "inputs": [
        {
          "name": "_token",
          "type": "address"
        }
      ],
      "name": "transferToVault",
      "outputs": [],
      "payable": false,
      "stateMutability": "nonpayable",
      "type": "function"
    },
    {
      "constant": true,
      "inputs": [
        {
          "name": "_sender",
          "type": "address"
        },
        {
          "name": "_role",
          "type": "bytes32"
        },
        {
          "name": "_params",
          "type": "uint256[]"
        }
      ],
      "name": "canPerform",
      "outputs": [
        {
          "name": "",
          "type": "bool"
        }
      ],
      "payable": false,
      "stateMutability": "view",
      "type": "function"
    },
    {
      "constant": true,
      "inputs": [],
      "name": "CREATE_VERSION_ROLE",
      "outputs": [
        {
          "name": "",
          "type": "bytes32"
        }
      ],
      "payable": false,
      "stateMutability": "view",
      "type": "function"
    },
    {
      "constant": true,
      "inputs": [],
      "name": "ACL_APP_ID",
      "outputs": [
        {
          "name": "",
          "type": "bytes32"
        }
      ],
      "payable": false,
      "stateMutability": "view",
      "type": "function"
    },
    {
      "constant": true,
      "inputs": [],
      "name": "kernel",
      "outputs": [
        {
          "name": "",
          "type": "address"
        }
      ],
      "payable": false,
      "stateMutability": "view",
      "type": "function"
    },
    {
      "constant": true,
      "inputs": [],
      "name": "APP_BASES_NAMESPACE",
      "outputs": [
        {
          "name": "",
          "type": "bytes32"
        }
      ],
      "payable": false,
      "stateMutability": "view",
      "type": "function"
    },
    {
      "constant": true,
      "inputs": [],
      "name": "isPetrified",
      "outputs": [
        {
          "name": "",
          "type": "bool"
        }
      ],
      "payable": false,
      "stateMutability": "view",
      "type": "function"
    },
    {
      "constant": true,
      "inputs": [
        {
          "name": "_script",
          "type": "bytes"
        }
      ],
      "name": "getExecutor",
      "outputs": [
        {
          "name": "",
          "type": "address"
        }
      ],
      "payable": false,
      "stateMutability": "view",
      "type": "function"
    },
    {
      "anonymous": false,
      "inputs": [
        {
          "indexed": false,
          "name": "versionId",
          "type": "uint256"
        },
        {
          "indexed": false,
          "name": "semanticVersion",
          "type": "uint16[3]"
        }
      ],
      "name": "NewVersion",
      "type": "event"
    },
    {
      "anonymous": false,
      "inputs": [
        {
          "indexed": true,
          "name": "executor",
          "type": "address"
        },
        {
          "indexed": false,
          "name": "script",
          "type": "bytes"
        },
        {
          "indexed": false,
          "name": "input",
          "type": "bytes"
        },
        {
          "indexed": false,
          "name": "returnData",
          "type": "bytes"
        }
      ],
      "name": "ScriptResult",
      "type": "event"
    },
    {
      "constant": false,
      "inputs": [],
      "name": "initialize",
      "outputs": [],
      "payable": false,
      "stateMutability": "nonpayable",
      "type": "function"
    },
    {
      "constant": false,
      "inputs": [
        {
          "name": "_newSemanticVersion",
          "type": "uint16[3]"
        },
        {
          "name": "_contractAddress",
          "type": "address"
        },
        {
          "name": "_contentURI",
          "type": "bytes"
        }
      ],
      "name": "newVersion",
      "outputs": [],
      "payable": false,
      "stateMutability": "nonpayable",
      "type": "function"
    },
    {
      "constant": true,
      "inputs": [],
      "name": "getLatest",
      "outputs": [
        {
          "name": "semanticVersion",
          "type": "uint16[3]"
        },
        {
          "name": "contractAddress",
          "type": "address"
        },
        {
          "name": "contentURI",
          "type": "bytes"
        }
      ],
      "payable": false,
      "stateMutability": "view",
      "type": "function"
    },
    {
      "constant": true,
      "inputs": [
        {
          "name": "_contractAddress",
          "type": "address"
        }
      ],
      "name": "getLatestForContractAddress",
      "outputs": [
        {
          "name": "semanticVersion",
          "type": "uint16[3]"
        },
        {
          "name": "contractAddress",
          "type": "address"
        },
        {
          "name": "contentURI",
          "type": "bytes"
        }
      ],
      "payable": false,
      "stateMutability": "view",
      "type": "function"
    },
    {
      "constant": true,
      "inputs": [
        {
          "name": "_semanticVersion",
          "type": "uint16[3]"
        }
      ],
      "name": "getBySemanticVersion",
      "outputs": [
        {
          "name": "semanticVersion",
          "type": "uint16[3]"
        },
        {
          "name": "contractAddress",
          "type": "address"
        },
        {
          "name": "contentURI",
          "type": "bytes"
        }
      ],
      "payable": false,
      "stateMutability": "view",
      "type": "function"
    },
    {
      "constant": true,
      "inputs": [
        {
          "name": "_versionId",
          "type": "uint256"
        }
      ],
      "name": "getByVersionId",
      "outputs": [
        {
          "name": "semanticVersion",
          "type": "uint16[3]"
        },
        {
          "name": "contractAddress",
          "type": "address"
        },
        {
          "name": "contentURI",
          "type": "bytes"
        }
      ],
      "payable": false,
      "stateMutability": "view",
      "type": "function"
    },
    {
      "constant": true,
      "inputs": [],
      "name": "getVersionsCount",
      "outputs": [
        {
          "name": "",
          "type": "uint256"
        }
      ],
      "payable": false,
      "stateMutability": "view",
      "type": "function"
    },
    {
      "constant": true,
      "inputs": [
        {
          "name": "_oldVersion",
          "type": "uint16[3]"
        },
        {
          "name": "_newVersion",
          "type": "uint16[3]"
        }
      ],
      "name": "isValidBump",
      "outputs": [
        {
          "name": "",
          "type": "bool"
        }
      ],
      "payable": false,
      "stateMutability": "pure",
      "type": "function"
    }
  ],
  "bytecode": "0x60806040526200001d62000023640100000000026401000000009004565b6200015b565b60006200003e62000087640100000000026401000000009004565b1415156200004b57600080fd5b620000857fffffffffffffffffffffffffffffffffffffffffffffffffffffffffffffffff620000d4640100000000026401000000009004565b565b6000620000cf7febb05b386a8d34882b8711d156f463690983dc47815980fb82aeeff1aa43579e6001026000191662000149640100000000026200204a176401000000009004565b905090565b6000620000ef62000087640100000000026401000000009004565b141515620000fc57600080fd5b62000146817febb05b386a8d34882b8711d156f463690983dc47815980fb82aeeff1aa43579e600102600019166200015464010000000002620021cd179091906401000000009004565b50565b600081549050919050565b8082555050565b61247d806200016b6000396000f30060806040526004361061015f576000357c0100000000000000000000000000000000000000000000000000000000900463ffffffff1680630803fac0146101645780631113ed0d14610193578063178e6079146101c657806332f0a3b5146101f95780634c3ba2681461025057806360b1e0571461037d57806373053410146103b0578063737e7d4f14610468578063756f6049146105705780637e7db6e1146105a357806380afdea8146105fe5780638129fc1c146106315780638322fff21461064857806387aee00e1461069f5780638b3dd749146107785780639a6fe50c146107a35780639d4941d8146108c1578063a1658fad14610904578063a7bdf16e146109b0578063aa61924a14610a49578063c36af46014610a7c578063c6d48e0d14610b6e578063cbcc65eb14610b99578063d4aae0c414610bcc578063db8a61d414610c23578063de4796ed14610c56578063f92a79ff14610c85575b600080fd5b34801561017057600080fd5b50610179610d2e565b604051808215151515815260200191505060405180910390f35b34801561019f57600080fd5b506101a8610d59565b60405180826000191660001916815260200191505060405180910390f35b3480156101d257600080fd5b506101db610d80565b60405180826000191660001916815260200191505060405180910390f35b34801561020557600080fd5b5061020e610da7565b604051808273ffffffffffffffffffffffffffffffffffffffff1673ffffffffffffffffffffffffffffffffffffffff16815260200191505060405180910390f35b34801561025c57600080fd5b506102a06004803603810190808060600190600380602002604051908101604052809291908260036020028082843782019150505050509192919290505050610e96565b6040518084600360200280838360005b838110156102cb5780820151818401526020810190506102b0565b505050509050018373ffffffffffffffffffffffffffffffffffffffff1673ffffffffffffffffffffffffffffffffffffffff16815260200180602001828103825283818151815260200191508051906020019080838360005b83811015610340578082015181840152602081019050610325565b50505050905090810190601f16801561036d5780820380516001836020036101000a031916815260200191505b5094505050505060405180910390f35b34801561038957600080fd5b50610392610edb565b60405180826000191660001916815260200191505060405180910390f35b3480156103bc57600080fd5b506104666004803603810190808060600190600380602002604051908101604052809291908260036020028082843782019150505050509192919290803573ffffffffffffffffffffffffffffffffffffffff169060200190929190803590602001908201803590602001908080601f0160208091040260200160405190810160405280939291908181526020018383808284378201915050505050509192919290505050610f02565b005b34801561047457600080fd5b5061049360048036038101908080359060200190929190505050611313565b6040518084600360200280838360005b838110156104be5780820151818401526020810190506104a3565b505050509050018373ffffffffffffffffffffffffffffffffffffffff1673ffffffffffffffffffffffffffffffffffffffff16815260200180602001828103825283818151815260200191508051906020019080838360005b83811015610533578082015181840152602081019050610518565b50505050905090810190601f1680156105605780820380516001836020036101000a031916815260200191505b5094505050505060405180910390f35b34801561057c57600080fd5b5061058561148c565b60405180826000191660001916815260200191505060405180910390f35b3480156105af57600080fd5b506105e4600480360381019080803573ffffffffffffffffffffffffffffffffffffffff1690602001909291905050506114b3565b604051808215151515815260200191505060405180910390f35b34801561060a57600080fd5b506106136114be565b60405180826000191660001916815260200191505060405180910390f35b34801561063d57600080fd5b506106466114f5565b005b34801561065457600080fd5b5061065d611515565b604051808273ffffffffffffffffffffffffffffffffffffffff1673ffffffffffffffffffffffffffffffffffffffff16815260200191505060405180910390f35b3480156106ab57600080fd5b506106ca6004803603810190808035906020019092919050505061151a565b604051808373ffffffffffffffffffffffffffffffffffffffff1673ffffffffffffffffffffffffffffffffffffffff16815260200180602001828103825283818151815260200191508051906020019080838360005b8381101561073c578082015181840152602081019050610721565b50505050905090810190601f1680156107695780820380516001836020036101000a031916815260200191505b50935050505060405180910390f35b34801561078457600080fd5b5061078d611605565b6040518082815260200191505060405180910390f35b3480156107af57600080fd5b506107e4600480360381019080803573ffffffffffffffffffffffffffffffffffffffff16906020019092919050505061163c565b6040518084600360200280838360005b8381101561080f5780820151818401526020810190506107f4565b505050509050018373ffffffffffffffffffffffffffffffffffffffff1673ffffffffffffffffffffffffffffffffffffffff16815260200180602001828103825283818151815260200191508051906020019080838360005b83811015610884578082015181840152602081019050610869565b50505050905090810190601f1680156108b15780820380516001836020036101000a031916815260200191505b5094505050505060405180910390f35b3480156108cd57600080fd5b50610902600480360381019080803573ffffffffffffffffffffffffffffffffffffffff16906020019092919050505061169d565b005b34801561091057600080fd5b50610996600480360381019080803573ffffffffffffffffffffffffffffffffffffffff169060200190929190803560001916906020019092919080359060200190820180359060200190808060200260200160405190810160405280939291908181526020018383602002808284378201915050505050509192919290505050611927565b604051808215151515815260200191505060405180910390f35b3480156109bc57600080fd5b50610a2f60048036038101908080606001906003806020026040519081016040528092919082600360200280828437820191505050505091929192908060600190600380602002604051908101604052809291908260036020028082843782019150505050509192919290505050611b39565b604051808215151515815260200191505060405180910390f35b348015610a5557600080fd5b50610a5e611c46565b60405180826000191660001916815260200191505060405180910390f35b348015610a8857600080fd5b50610a91611c6d565b6040518084600360200280838360005b83811015610abc578082015181840152602081019050610aa1565b505050509050018373ffffffffffffffffffffffffffffffffffffffff1673ffffffffffffffffffffffffffffffffffffffff16815260200180602001828103825283818151815260200191508051906020019080838360005b83811015610b31578082015181840152602081019050610b16565b50505050905090810190601f168015610b5e5780820380516001836020036101000a031916815260200191505b5094505050505060405180910390f35b348015610b7a57600080fd5b50610b83611c95565b6040518082815260200191505060405180910390f35b348015610ba557600080fd5b50610bae611cba565b60405180826000191660001916815260200191505060405180910390f35b348015610bd857600080fd5b50610be1611ce1565b604051808273ffffffffffffffffffffffffffffffffffffffff1673ffffffffffffffffffffffffffffffffffffffff16815260200191505060405180910390f35b348015610c2f57600080fd5b50610c38611d18565b60405180826000191660001916815260200191505060405180910390f35b348015610c6257600080fd5b50610c6b611d3f565b604051808215151515815260200191505060405180910390f35b348015610c9157600080fd5b50610cec600480360381019080803590602001908201803590602001908080601f0160208091040260200160405190810160405280939291908181526020018383808284378201915050505050509192919290505050611d70565b604051808273ffffffffffffffffffffffffffffffffffffffff1673ffffffffffffffffffffffffffffffffffffffff16815260200191505060405180910390f35b600080610d39611605565b905060008114158015610d53575080610d50611e8f565b10155b91505090565b7f3b4bf6bf3ad5000ecf0f989d5befde585c6860fea3e574a4fab4c49d1c177d9c60010281565b7fd6f028ca0e8edb4a8c9757ca4fdccab25fa1e0317da1188108f7d2dee14902fb60010281565b60008073ffffffffffffffffffffffffffffffffffffffff16610dc8611ce1565b73ffffffffffffffffffffffffffffffffffffffff1614151515610deb57600080fd5b610df3611ce1565b73ffffffffffffffffffffffffffffffffffffffff166332f0a3b56040518163ffffffff167c0100000000000000000000000000000000000000000000000000000000028152600401602060405180830381600087803b158015610e5657600080fd5b505af1158015610e6a573d6000803e3d6000fd5b505050506040513d6020811015610e8057600080fd5b8101908080519060200190929190505050905090565b610e9e6121d4565b60006060610ece60016000610eb287611e97565b6000191660001916815260200190815260200160002054611313565b9250925092509193909250565b7fddbcfd564f642ab5627cf68b9b7d374fb4f8a36e941a75d89c87998cef03bd6160010281565b600080610f0d6121d4565b60007f1f56cfecd3595a2e6cc1a7e6cb0b20df84cdbd92eff2fee554e70e4e45a9a7d8600102610f6e33826000604051908082528060200260200182016040528015610f685781602001602082028038833980820191505090505b50611927565b1515610f7957600080fd5b869450600080805490501115611126576000600160008054905003815481101515610fa057fe5b9060005260206000209060030201935061102184600001600380602002604051908101604052809291908260038015611016576020028201916000905b82829054906101000a900461ffff1661ffff1681526020019060020190602082600101049283019260010382029150808411610fdd5790505b505050505089611b39565b151561102c57600080fd5b60008573ffffffffffffffffffffffffffffffffffffffff161415611073578360010160009054906101000a900473ffffffffffffffffffffffffffffffffffffffff1694505b8473ffffffffffffffffffffffffffffffffffffffff168460010160009054906101000a900473ffffffffffffffffffffffffffffffffffffffff1673ffffffffffffffffffffffffffffffffffffffff16148061111657508360000160006003811015156110de57fe5b601091828204019190066002029054906101000a900461ffff1661ffff1688600060038110151561110b57fe5b602002015161ffff16115b151561112157600080fd5b611155565b600160008181805490500191508161113e91906121f7565b506111498389611b39565b151561115457600080fd5b5b600160006060604051908101604052808b81526020018873ffffffffffffffffffffffffffffffffffffffff16815260200189815250908060018154018082558091505090600182039060005260206000209060030201600090919290919091506000820151816000019060036111cd929190612229565b5060208201518160010160006101000a81548173ffffffffffffffffffffffffffffffffffffffff021916908373ffffffffffffffffffffffffffffffffffffffff16021790555060408201518160020190805190602001906112319291906122c6565b50505003915081600160006112458b611e97565b600019166000191681526020019081526020016000208190555081600260008773ffffffffffffffffffffffffffffffffffffffff1673ffffffffffffffffffffffffffffffffffffffff168152602001908152602001600020819055507e3aea8189d1a0aa3ebdb05219cd4c2a663166706e949e9d6e8aa63718ca43fd82896040518083815260200182600360200280838360005b838110156112f65780820151818401526020810190506112db565b505050509050019250505060405180910390a15050505050505050565b61131b6121d4565b600060606000808511151561132f57600080fd5b60008581548110151561133e57fe5b90600052602060002090600302019050806000018160010160009054906101000a900473ffffffffffffffffffffffffffffffffffffffff1682600201826003806020026040519081016040528092919082600380156113db576020028201916000905b82829054906101000a900461ffff1661ffff16815260200190600201906020826001010492830192600103820291508084116113a25790505b50505050509250808054600181600116156101000203166002900480601f0160208091040260200160405190810160405280929190818152602001828054600181600116156101000203166002900480156114775780601f1061144c57610100808354040283529160200191611477565b820191906000526020600020905b81548152906001019060200180831161145a57829003601f168201915b50505050509050935093509350509193909250565b7fc681a85306374a5ab27f0bbc385296a54bcd314a1948b6cf61c4ea1bc44bb9f860010281565b600060019050919050565b60006114f07fd625496217aa6a3453eecb9c3489dc5a53e6c67b444329ea2b2cbc9ff547639b60010260001916611fe6565b905090565b60006114ff611605565b14151561150b57600080fd5b611513611ff1565b565b600081565b60008181548110151561152957fe5b90600052602060002090600302016000915090508060010160009054906101000a900473ffffffffffffffffffffffffffffffffffffffff1690806002018054600181600116156101000203166002900480601f0160208091040260200160405190810160405280929190818152602001828054600181600116156101000203166002900480156115fb5780601f106115d0576101008083540402835291602001916115fb565b820191906000526020600020905b8154815290600101906020018083116115de57829003601f168201915b5050505050905082565b60006116377febb05b386a8d34882b8711d156f463690983dc47815980fb82aeeff1aa43579e6001026000191661204a565b905090565b6116446121d4565b60006060611690600260008673ffffffffffffffffffffffffffffffffffffffff1673ffffffffffffffffffffffffffffffffffffffff16815260200190815260200160002054611313565b9250925092509193909250565b6000806116a9836114b3565b15156116b457600080fd5b6116bc610da7565b91506116c782612055565b15156116d257600080fd5b600073ffffffffffffffffffffffffffffffffffffffff168373ffffffffffffffffffffffffffffffffffffffff16141561176a578173ffffffffffffffffffffffffffffffffffffffff166108fc3073ffffffffffffffffffffffffffffffffffffffff16319081150290604051600060405180830381858888f19350505050158015611764573d6000803e3d6000fd5b50611922565b8273ffffffffffffffffffffffffffffffffffffffff166370a08231306040518263ffffffff167c0100000000000000000000000000000000000000000000000000000000028152600401808273ffffffffffffffffffffffffffffffffffffffff1673ffffffffffffffffffffffffffffffffffffffff168152602001915050602060405180830381600087803b15801561180557600080fd5b505af1158015611819573d6000803e3d6000fd5b505050506040513d602081101561182f57600080fd5b810190808051906020019092919050505090508273ffffffffffffffffffffffffffffffffffffffff1663a9059cbb83836040518363ffffffff167c0100000000000000000000000000000000000000000000000000000000028152600401808373ffffffffffffffffffffffffffffffffffffffff1673ffffffffffffffffffffffffffffffffffffffff16815260200182815260200192505050602060405180830381600087803b1580156118e557600080fd5b505af11580156118f9573d6000803e3d6000fd5b505050506040513d602081101561190f57600080fd5b8101908080519060200190929190505050505b505050565b60008060606000611936610d2e565b15156119455760009350611b2f565b61194d611ce1565b9250600073ffffffffffffffffffffffffffffffffffffffff168373ffffffffffffffffffffffffffffffffffffffff16141561198d5760009350611b2f565b6000855111156119a557602085510290508491508082525b8273ffffffffffffffffffffffffffffffffffffffff1663fdef9106883089866040518563ffffffff167c0100000000000000000000000000000000000000000000000000000000028152600401808573ffffffffffffffffffffffffffffffffffffffff1673ffffffffffffffffffffffffffffffffffffffff1681526020018473ffffffffffffffffffffffffffffffffffffffff1673ffffffffffffffffffffffffffffffffffffffff168152602001836000191660001916815260200180602001828103825283818151815260200191508051906020019080838360005b83811015611aa2578082015181840152602081019050611a87565b50505050905090810190601f168015611acf5780820380516001836020036101000a031916815260200191505b5095505050505050602060405180830381600087803b158015611af157600080fd5b505af1158015611b05573d6000803e3d6000fd5b505050506040513d6020811015611b1b57600080fd5b810190808051906020019092919050505093505b5050509392505050565b60008060008090505b6003811015611c3a578115611b7f5760008482600381101515611b6157fe5b602002015161ffff16141515611b7a5760009250611c3e565b611c2d565b8481600381101515611b8d57fe5b602002015161ffff168482600381101515611ba457fe5b602002015161ffff16141515611c2c578381600381101515611bc257fe5b602002015161ffff168582600381101515611bd957fe5b602002015161ffff161180611c19575060018582600381101515611bf957fe5b60200201518583600381101515611c0c57fe5b60200201510361ffff1614155b15611c275760009250611c3e565b600191505b5b8080600101915050611b42565b8192505b505092915050565b7f1f56cfecd3595a2e6cc1a7e6cb0b20df84cdbd92eff2fee554e70e4e45a9a7d860010281565b611c756121d4565b60006060611c8a600160008054905003611313565b925092509250909192565b600080600080549050905060008111611caf576000611cb4565b600181035b91505090565b7fe3262375f45a6e2026b7e7b18c2b807434f2508fe1a2a3dfb493c7df8f4aad6a60010281565b6000611d137f4172f0f7d2289153072b0a6ca36959e0cbe2efc3afe50fc81636caa96338137b600102600019166120a7565b905090565b7ff1f3eb40f5bc1ad1344716ced8b8a0431d840b5783aea1fd01786bc26f35ac0f60010281565b60007fffffffffffffffffffffffffffffffffffffffffffffffffffffffffffffffff611d6a611605565b14905090565b6000611d7a6120b2565b73ffffffffffffffffffffffffffffffffffffffff166304bf2a7f836040518263ffffffff167c01000000000000000000000000000000000000000000000000000000000281526004018080602001828103825283818151815260200191508051906020019080838360005b83811015611e01578082015181840152602081019050611de6565b50505050905090810190601f168015611e2e5780820380516001836020036101000a031916815260200191505b5092505050602060405180830381600087803b158015611e4d57600080fd5b505af1158015611e61573d6000803e3d6000fd5b505050506040513d6020811015611e7757600080fd5b81019080805190602001909291905050509050919050565b600043905090565b6000816000600381101515611ea857fe5b6020020151826001600381101515611ebc57fe5b6020020151836002600381101515611ed057fe5b6020020151604051602001808461ffff1661ffff167e010000000000000000000000000000000000000000000000000000000000000281526002018361ffff1661ffff167e010000000000000000000000000000000000000000000000000000000000000281526002018261ffff1661ffff167e0100000000000000000000000000000000000000000000000000000000000002815260020193505050506040516020818303038152906040526040518082805190602001908083835b602083101515611fb25780518252602082019150602081019050602083039250611f8d565b6001836020036101000a03801982511681845116808217855250505050505090500191505060405180910390209050919050565b600081549050919050565b6000611ffb611605565b14151561200757600080fd5b612048612012611e8f565b7febb05b386a8d34882b8711d156f463690983dc47815980fb82aeeff1aa43579e600102600019166121cd90919063ffffffff16565b565b600081549050919050565b600080600073ffffffffffffffffffffffffffffffffffffffff168373ffffffffffffffffffffffffffffffffffffffff16141561209657600091506120a1565b823b90506000811191505b50919050565b600081549050919050565b6000806120bd611ce1565b73ffffffffffffffffffffffffffffffffffffffff1663be00bbd87fd6f028ca0e8edb4a8c9757ca4fdccab25fa1e0317da1188108f7d2dee14902fb6001027fddbcfd564f642ab5627cf68b9b7d374fb4f8a36e941a75d89c87998cef03bd616001026040518363ffffffff167c0100000000000000000000000000000000000000000000000000000000028152600401808360001916600019168152602001826000191660001916815260200192505050602060405180830381600087803b15801561218957600080fd5b505af115801561219d573d6000803e3d6000fd5b505050506040513d60208110156121b357600080fd5b810190808051906020019092919050505090508091505090565b8082555050565b606060405190810160405280600390602082028038833980820191505090505090565b815481835581811115612224576003028160030283600052602060002091820191016122239190612346565b5b505050565b826003600f016010900481019282156122b55791602002820160005b8382111561228557835183826101000a81548161ffff021916908361ffff1602179055509260200192600201602081600101049283019260010302612245565b80156122b35782816101000a81549061ffff0219169055600201602081600101049283019260010302612285565b505b5090506122c291906123ac565b5090565b828054600181600116156101000203166002900490600052602060002090601f016020900481019282601f1061230757805160ff1916838001178555612335565b82800160010185558215612335579182015b82811115612334578251825591602001919060010190612319565b5b50905061234291906123dd565b5090565b6123a991905b808211156123a557600080820160006123659190612402565b6001820160006101000a81549073ffffffffffffffffffffffffffffffffffffffff021916905560028201600061239c9190612409565b5060030161234c565b5090565b90565b6123da91905b808211156123d657600081816101000a81549061ffff0219169055506001016123b2565b5090565b90565b6123ff91905b808211156123fb5760008160009055506001016123e3565b5090565b90565b5060009055565b50805460018160011615610100020316600290046000825580601f1061242f575061244e565b601f01602090049060005260206000209081019061244d91906123dd565b5b505600a165627a7a7230582087bd0fa1e6cefc6a9d21b0cb5c01a2b7ae7447983408450317d842e07f89ba250029",
  "source": "pragma solidity 0.4.24;\n\nimport \"../apps/AragonApp.sol\";\n\n\n/* solium-disable function-order */\n// Allow public initialize() to be first\ncontract Repo is AragonApp {\n    struct Version {\n        uint16[3] semanticVersion;\n        address contractAddress;\n        bytes contentURI;\n    }\n\n    Version[] public versions;\n    mapping (bytes32 => uint256) internal versionIdForSemantic;\n    mapping (address => uint256) internal latestVersionIdForContract;\n\n    // bytes32 constant public CREATE_VERSION_ROLE = keccak256(\"CREATE_VERSION_ROLE\");\n    bytes32 constant public CREATE_VERSION_ROLE = 0x1f56cfecd3595a2e6cc1a7e6cb0b20df84cdbd92eff2fee554e70e4e45a9a7d8;\n\n    event NewVersion(uint256 versionId, uint16[3] semanticVersion);\n\n    /**\n    * @dev Initialize can only be called once. It saves the block number in which it was initialized.\n    * @notice Initializes a Repo to be usable\n    */\n    function initialize() public onlyInit {\n        initialized();\n    }\n\n    /**\n    * @notice Create new version for repo\n    * @param _newSemanticVersion Semantic version for new repo version\n    * @param _contractAddress address for smart contract logic for version (if set to 0, it uses last versions' contractAddress)\n    * @param _contentURI External URI for fetching new version's content\n    */\n    function newVersion(\n        uint16[3] _newSemanticVersion,\n        address _contractAddress,\n        bytes _contentURI\n    ) public auth(CREATE_VERSION_ROLE)\n    {\n        address contractAddress = _contractAddress;\n        if (versions.length > 0) {\n            Version storage lastVersion = versions[versions.length - 1];\n            require(isValidBump(lastVersion.semanticVersion, _newSemanticVersion));\n            if (contractAddress == 0) {\n                contractAddress = lastVersion.contractAddress;\n            }\n            // Only allows smart contract change on major version bumps\n            require(lastVersion.contractAddress == contractAddress || _newSemanticVersion[0] > lastVersion.semanticVersion[0]);\n        } else {\n            versions.length += 1;\n            uint16[3] memory zeroVersion;\n            require(isValidBump(zeroVersion, _newSemanticVersion));\n        }\n\n        uint versionId = versions.push(Version(_newSemanticVersion, contractAddress, _contentURI)) - 1;\n        versionIdForSemantic[semanticVersionHash(_newSemanticVersion)] = versionId;\n        latestVersionIdForContract[contractAddress] = versionId;\n\n        emit NewVersion(versionId, _newSemanticVersion);\n    }\n\n    function getLatest() public view returns (uint16[3] semanticVersion, address contractAddress, bytes contentURI) {\n        return getByVersionId(versions.length - 1);\n    }\n\n    function getLatestForContractAddress(address _contractAddress)\n        public\n        view\n        returns (uint16[3] semanticVersion, address contractAddress, bytes contentURI)\n    {\n        return getByVersionId(latestVersionIdForContract[_contractAddress]);\n    }\n\n    function getBySemanticVersion(uint16[3] _semanticVersion)\n        public\n        view\n        returns (uint16[3] semanticVersion, address contractAddress, bytes contentURI)\n    {\n        return getByVersionId(versionIdForSemantic[semanticVersionHash(_semanticVersion)]);\n    }\n\n    function getByVersionId(uint _versionId) public view returns (uint16[3] semanticVersion, address contractAddress, bytes contentURI) {\n        require(_versionId > 0);\n        Version storage version = versions[_versionId];\n        return (version.semanticVersion, version.contractAddress, version.contentURI);\n    }\n\n    function getVersionsCount() public view returns (uint256) {\n        uint256 len = versions.length;\n        return len > 0 ? len - 1 : 0;\n    }\n\n    function isValidBump(uint16[3] _oldVersion, uint16[3] _newVersion) public pure returns (bool) {\n        bool hasBumped;\n        uint i = 0;\n        while (i < 3) {\n            if (hasBumped) {\n                if (_newVersion[i] != 0) {\n                    return false;\n                }\n            } else if (_newVersion[i] != _oldVersion[i]) {\n                if (_oldVersion[i] > _newVersion[i] || _newVersion[i] - _oldVersion[i] != 1) {\n                    return false;\n                }\n                hasBumped = true;\n            }\n            i++;\n        }\n        return hasBumped;\n    }\n\n    function semanticVersionHash(uint16[3] version) internal pure returns (bytes32) {\n        return keccak256(abi.encodePacked(version[0], version[1], version[2]));\n    }\n}\n",
  "sourcePath": "@aragon/os/contracts/apm/Repo.sol",
  "compiler": {
    "name": "solc",
    "version": "0.4.24+commit.e67f0147.Emscripten.clang"
  },
  "schemaVersion": "2.0.1",
  "updatedAt": "2018-09-08T13:56:44.166Z"
}