{
  "contractName": "TokenManager",
  "abi": [
    {
      "constant": true,
      "inputs": [
        {
          "name": "",
          "type": "address"
        }
      ],
      "name": "everHeld",
      "outputs": [
        {
          "name": "",
          "type": "bool"
        }
      ],
      "payable": false,
      "stateMutability": "view",
      "type": "function"
    },
    {
      "constant": true,
      "inputs": [],
      "name": "hasInitialized",
      "outputs": [
        {
          "name": "",
          "type": "bool"
        }
      ],
      "payable": false,
      "stateMutability": "view",
      "type": "function"
    },
    {
      "constant": true,
      "inputs": [],
      "name": "KERNEL_APP_ID",
      "outputs": [
        {
          "name": "",
          "type": "bytes32"
        }
      ],
      "payable": false,
      "stateMutability": "view",
      "type": "function"
    },
    {
      "constant": true,
      "inputs": [],
      "name": "APP_ADDR_NAMESPACE",
      "outputs": [
        {
          "name": "",
          "type": "bytes32"
        }
      ],
      "payable": false,
      "stateMutability": "view",
      "type": "function"
    },
    {
      "constant": true,
      "inputs": [
        {
          "name": "",
          "type": "uint256"
        }
      ],
      "name": "holders",
      "outputs": [
        {
          "name": "",
          "type": "address"
        }
      ],
      "payable": false,
      "stateMutability": "view",
      "type": "function"
    },
    {
      "constant": true,
      "inputs": [],
      "name": "getRecoveryVault",
      "outputs": [
        {
          "name": "",
          "type": "address"
        }
      ],
      "payable": false,
      "stateMutability": "view",
      "type": "function"
    },
    {
      "constant": true,
      "inputs": [],
      "name": "EVMSCRIPT_REGISTRY_APP_ID",
      "outputs": [
        {
          "name": "",
          "type": "bytes32"
        }
      ],
      "payable": false,
      "stateMutability": "view",
      "type": "function"
    },
    {
      "constant": true,
      "inputs": [],
      "name": "CORE_NAMESPACE",
      "outputs": [
        {
          "name": "",
          "type": "bytes32"
        }
      ],
      "payable": false,
      "stateMutability": "view",
      "type": "function"
    },
    {
      "constant": true,
      "inputs": [
        {
          "name": "token",
          "type": "address"
        }
      ],
      "name": "allowRecoverability",
      "outputs": [
        {
          "name": "",
          "type": "bool"
        }
      ],
      "payable": false,
      "stateMutability": "view",
      "type": "function"
    },
    {
      "constant": true,
      "inputs": [],
      "name": "appId",
      "outputs": [
        {
          "name": "",
          "type": "bytes32"
        }
      ],
      "payable": false,
      "stateMutability": "view",
      "type": "function"
    },
    {
      "constant": true,
      "inputs": [],
      "name": "ETH",
      "outputs": [
        {
          "name": "",
          "type": "address"
        }
      ],
      "payable": false,
      "stateMutability": "view",
      "type": "function"
    },
    {
      "constant": true,
      "inputs": [],
      "name": "ISSUE_ROLE",
      "outputs": [
        {
          "name": "",
          "type": "bytes32"
        }
      ],
      "payable": false,
      "stateMutability": "view",
      "type": "function"
    },
    {
      "constant": true,
      "inputs": [],
      "name": "getInitializationBlock",
      "outputs": [
        {
          "name": "",
          "type": "uint256"
        }
      ],
      "payable": false,
      "stateMutability": "view",
      "type": "function"
    },
    {
      "constant": false,
      "inputs": [
        {
          "name": "_token",
          "type": "address"
        }
      ],
      "name": "transferToVault",
      "outputs": [],
      "payable": false,
      "stateMutability": "nonpayable",
      "type": "function"
    },
    {
      "constant": true,
      "inputs": [
        {
          "name": "_sender",
          "type": "address"
        },
        {
          "name": "_role",
          "type": "bytes32"
        },
        {
          "name": "_params",
          "type": "uint256[]"
        }
      ],
      "name": "canPerform",
      "outputs": [
        {
          "name": "",
          "type": "bool"
        }
      ],
      "payable": false,
      "stateMutability": "view",
      "type": "function"
    },
    {
      "constant": true,
      "inputs": [],
      "name": "ASSIGN_ROLE",
      "outputs": [
        {
          "name": "",
          "type": "bytes32"
        }
      ],
      "payable": false,
      "stateMutability": "view",
      "type": "function"
    },
    {
      "constant": true,
      "inputs": [],
      "name": "BURN_ROLE",
      "outputs": [
        {
          "name": "",
          "type": "bytes32"
        }
      ],
      "payable": false,
      "stateMutability": "view",
      "type": "function"
    },
    {
      "constant": true,
      "inputs": [],
      "name": "ACL_APP_ID",
      "outputs": [
        {
          "name": "",
          "type": "bytes32"
        }
      ],
      "payable": false,
      "stateMutability": "view",
      "type": "function"
    },
    {
      "constant": true,
      "inputs": [],
      "name": "kernel",
      "outputs": [
        {
          "name": "",
          "type": "address"
        }
      ],
      "payable": false,
      "stateMutability": "view",
      "type": "function"
    },
    {
      "constant": true,
      "inputs": [],
      "name": "APP_BASES_NAMESPACE",
      "outputs": [
        {
          "name": "",
          "type": "bytes32"
        }
      ],
      "payable": false,
      "stateMutability": "view",
      "type": "function"
    },
    {
      "constant": true,
      "inputs": [],
      "name": "isPetrified",
      "outputs": [
        {
          "name": "",
          "type": "bool"
        }
      ],
      "payable": false,
      "stateMutability": "view",
      "type": "function"
    },
    {
      "constant": true,
      "inputs": [],
      "name": "MINT_ROLE",
      "outputs": [
        {
          "name": "",
          "type": "bytes32"
        }
      ],
      "payable": false,
      "stateMutability": "view",
      "type": "function"
    },
    {
      "constant": true,
      "inputs": [],
      "name": "maxAccountTokens",
      "outputs": [
        {
          "name": "",
          "type": "uint256"
        }
      ],
      "payable": false,
      "stateMutability": "view",
      "type": "function"
    },
    {
      "constant": true,
      "inputs": [],
      "name": "REVOKE_VESTINGS_ROLE",
      "outputs": [
        {
          "name": "",
          "type": "bytes32"
        }
      ],
      "payable": false,
      "stateMutability": "view",
      "type": "function"
    },
    {
      "constant": true,
      "inputs": [
        {
          "name": "_script",
          "type": "bytes"
        }
      ],
      "name": "getExecutor",
      "outputs": [
        {
          "name": "",
          "type": "address"
        }
      ],
      "payable": false,
      "stateMutability": "view",
      "type": "function"
    },
    {
      "constant": true,
      "inputs": [],
      "name": "token",
      "outputs": [
        {
          "name": "",
          "type": "address"
        }
      ],
      "payable": false,
      "stateMutability": "view",
      "type": "function"
    },
    {
      "constant": true,
      "inputs": [],
      "name": "logHolders",
      "outputs": [
        {
          "name": "",
          "type": "bool"
        }
      ],
      "payable": false,
      "stateMutability": "view",
      "type": "function"
    },
    {
      "anonymous": false,
      "inputs": [
        {
          "indexed": true,
          "name": "receiver",
          "type": "address"
        },
        {
          "indexed": false,
          "name": "vestingId",
          "type": "uint256"
        },
        {
          "indexed": false,
          "name": "amount",
          "type": "uint256"
        }
      ],
      "name": "NewVesting",
      "type": "event"
    },
    {
      "anonymous": false,
      "inputs": [
        {
          "indexed": true,
          "name": "receiver",
          "type": "address"
        },
        {
          "indexed": false,
          "name": "vestingId",
          "type": "uint256"
        },
        {
          "indexed": false,
          "name": "nonVestedAmount",
          "type": "uint256"
        }
      ],
      "name": "RevokeVesting",
      "type": "event"
    },
    {
      "anonymous": false,
      "inputs": [
        {
          "indexed": true,
          "name": "executor",
          "type": "address"
        },
        {
          "indexed": false,
          "name": "script",
          "type": "bytes"
        },
        {
          "indexed": false,
          "name": "input",
          "type": "bytes"
        },
        {
          "indexed": false,
          "name": "returnData",
          "type": "bytes"
        }
      ],
      "name": "ScriptResult",
      "type": "event"
    },
    {
      "constant": false,
      "inputs": [
        {
          "name": "_token",
          "type": "address"
        },
        {
          "name": "_transferable",
          "type": "bool"
        },
        {
          "name": "_maxAccountTokens",
          "type": "uint256"
        },
        {
          "name": "_logHolders",
          "type": "bool"
        }
      ],
      "name": "initialize",
      "outputs": [],
      "payable": false,
      "stateMutability": "nonpayable",
      "type": "function"
    },
    {
      "constant": false,
      "inputs": [
        {
          "name": "_receiver",
          "type": "address"
        },
        {
          "name": "_amount",
          "type": "uint256"
        }
      ],
      "name": "mint",
      "outputs": [],
      "payable": false,
      "stateMutability": "nonpayable",
      "type": "function"
    },
    {
      "constant": false,
      "inputs": [
        {
          "name": "_amount",
          "type": "uint256"
        }
      ],
      "name": "issue",
      "outputs": [],
      "payable": false,
      "stateMutability": "nonpayable",
      "type": "function"
    },
    {
      "constant": false,
      "inputs": [
        {
          "name": "_receiver",
          "type": "address"
        },
        {
          "name": "_amount",
          "type": "uint256"
        }
      ],
      "name": "assign",
      "outputs": [],
      "payable": false,
      "stateMutability": "nonpayable",
      "type": "function"
    },
    {
      "constant": false,
      "inputs": [
        {
          "name": "_holder",
          "type": "address"
        },
        {
          "name": "_amount",
          "type": "uint256"
        }
      ],
      "name": "burn",
      "outputs": [],
      "payable": false,
      "stateMutability": "nonpayable",
      "type": "function"
    },
    {
      "constant": false,
      "inputs": [
        {
          "name": "_receiver",
          "type": "address"
        },
        {
          "name": "_amount",
          "type": "uint256"
        },
        {
          "name": "_start",
          "type": "uint64"
        },
        {
          "name": "_cliff",
          "type": "uint64"
        },
        {
          "name": "_vested",
          "type": "uint64"
        },
        {
          "name": "_revokable",
          "type": "bool"
        }
      ],
      "name": "assignVested",
      "outputs": [
        {
          "name": "",
          "type": "uint256"
        }
      ],
      "payable": false,
      "stateMutability": "nonpayable",
      "type": "function"
    },
    {
      "constant": false,
      "inputs": [
        {
          "name": "_holder",
          "type": "address"
        },
        {
          "name": "_vestingId",
          "type": "uint256"
        }
      ],
      "name": "revokeVesting",
      "outputs": [],
      "payable": false,
      "stateMutability": "nonpayable",
      "type": "function"
    },
    {
      "constant": false,
      "inputs": [
        {
          "name": "_evmScript",
          "type": "bytes"
        }
      ],
      "name": "forward",
      "outputs": [],
      "payable": false,
      "stateMutability": "nonpayable",
      "type": "function"
    },
    {
      "constant": true,
      "inputs": [],
      "name": "isForwarder",
      "outputs": [
        {
          "name": "",
          "type": "bool"
        }
      ],
      "payable": false,
      "stateMutability": "pure",
      "type": "function"
    },
    {
      "constant": true,
      "inputs": [
        {
          "name": "_sender",
          "type": "address"
        },
        {
          "name": "",
          "type": "bytes"
        }
      ],
      "name": "canForward",
      "outputs": [
        {
          "name": "",
          "type": "bool"
        }
      ],
      "payable": false,
      "stateMutability": "view",
      "type": "function"
    },
    {
      "constant": true,
      "inputs": [],
      "name": "allHolders",
      "outputs": [
        {
          "name": "",
          "type": "address[]"
        }
      ],
      "payable": false,
      "stateMutability": "view",
      "type": "function"
    },
    {
      "constant": true,
      "inputs": [
        {
          "name": "_recipient",
          "type": "address"
        },
        {
          "name": "_vestingId",
          "type": "uint256"
        }
      ],
      "name": "getVesting",
      "outputs": [
        {
          "name": "amount",
          "type": "uint256"
        },
        {
          "name": "start",
          "type": "uint64"
        },
        {
          "name": "cliff",
          "type": "uint64"
        },
        {
          "name": "vesting",
          "type": "uint64"
        },
        {
          "name": "revokable",
          "type": "bool"
        }
      ],
      "payable": false,
      "stateMutability": "view",
      "type": "function"
    },
    {
      "constant": false,
      "inputs": [
        {
          "name": "_from",
          "type": "address"
        },
        {
          "name": "_to",
          "type": "address"
        },
        {
          "name": "_amount",
          "type": "uint256"
        }
      ],
      "name": "onTransfer",
      "outputs": [
        {
          "name": "",
          "type": "bool"
        }
      ],
      "payable": false,
      "stateMutability": "nonpayable",
      "type": "function"
    },
    {
      "constant": true,
      "inputs": [
        {
          "name": "_holder",
          "type": "address"
        }
      ],
      "name": "tokenGrantsCount",
      "outputs": [
        {
          "name": "",
          "type": "uint256"
        }
      ],
      "payable": false,
      "stateMutability": "view",
      "type": "function"
    },
    {
      "constant": true,
      "inputs": [
        {
          "name": "_holder",
          "type": "address"
        }
      ],
      "name": "spendableBalanceOf",
      "outputs": [
        {
          "name": "",
          "type": "uint256"
        }
      ],
      "payable": false,
      "stateMutability": "view",
      "type": "function"
    },
    {
      "constant": true,
      "inputs": [
        {
          "name": "_holder",
          "type": "address"
        },
        {
          "name": "_time",
          "type": "uint256"
        }
      ],
      "name": "transferableBalance",
      "outputs": [
        {
          "name": "",
          "type": "uint256"
        }
      ],
      "payable": false,
      "stateMutability": "view",
      "type": "function"
    },
    {
      "constant": false,
      "inputs": [
        {
          "name": "",
          "type": "address"
        }
      ],
      "name": "proxyPayment",
      "outputs": [
        {
          "name": "",
          "type": "bool"
        }
      ],
      "payable": true,
      "stateMutability": "payable",
      "type": "function"
    },
    {
      "constant": false,
      "inputs": [
        {
          "name": "_owner",
          "type": "address"
        },
        {
          "name": "_spender",
          "type": "address"
        },
        {
          "name": "_amount",
          "type": "uint256"
        }
      ],
      "name": "onApprove",
      "outputs": [
        {
          "name": "",
          "type": "bool"
        }
      ],
      "payable": false,
      "stateMutability": "nonpayable",
      "type": "function"
    }
  ],
  "bytecode": "0x60806040526200001d62000023640100000000026401000000009004565b6200015b565b60006200003e62000087640100000000026401000000009004565b1415156200004b57600080fd5b620000857fffffffffffffffffffffffffffffffffffffffffffffffffffffffffffffffff620000d4640100000000026401000000009004565b565b6000620000cf7febb05b386a8d34882b8711d156f463690983dc47815980fb82aeeff1aa43579e600102600019166200014964010000000002620034fb176401000000009004565b905090565b6000620000ef62000087640100000000026401000000009004565b141515620000fc57600080fd5b62000146817febb05b386a8d34882b8711d156f463690983dc47815980fb82aeeff1aa43579e60010260001916620001546401000000000262003d51179091906401000000009004565b50565b600081549050919050565b8082555050565b613ddc806200016b6000396000f300608060405260043610610225576000357c0100000000000000000000000000000000000000000000000000000000900463ffffffff16806302a72a4c1461022a57806303f413d1146102815780630803fac0146102dc5780630f8f8b831461030b5780631113ed0d14610362578063178e60791461039557806321cb18cd146103c85780632a11ced01461047157806332f0a3b5146104de5780633e05a36d1461053557806340c10f19146105f25780634a3931491461063f57806360b1e057146106c457806372f8393c146106f7578063756f6049146107585780637e7db6e11461078b57806380afdea8146107e65780638322fff214610819578063856222f1146108705780638b3dd749146108a35780639d4941d8146108ce5780639dc29fac14610911578063a1658fad1461095e578063a51d9a8e14610a0a578063b930908f14610a3d578063be76048814610a70578063c0774df314610abd578063c80a3aa614610b5e578063cbcc65eb14610bca578063cc872b6614610bfd578063d4aae0c414610c2a578063d948d46814610c81578063da682aeb14610cea578063db8a61d414610d6f578063de4796ed14610da2578063e918c62f14610dd1578063e9a9c85014610e36578063ecfda43214610e69578063edc168f114610e94578063f48c305414610ec7578063f92a79ff14610f15578063fa6799f214610fbe578063fc0c546a1461100b578063fd2c0d6814611062578063fd64eccb14611091575b600080fd5b34801561023657600080fd5b5061026b600480360381019080803573ffffffffffffffffffffffffffffffffffffffff1690602001909291905050506110c0565b6040518082815260200191505060405180910390f35b34801561028d57600080fd5b506102c2600480360381019080803573ffffffffffffffffffffffffffffffffffffffff16906020019092919050505061110c565b604051808215151515815260200191505060405180910390f35b3480156102e857600080fd5b506102f161112c565b604051808215151515815260200191505060405180910390f35b34801561031757600080fd5b5061034c600480360381019080803573ffffffffffffffffffffffffffffffffffffffff169060200190929190505050611157565b6040518082815260200191505060405180910390f35b34801561036e57600080fd5b5061037761116a565b60405180826000191660001916815260200191505060405180910390f35b3480156103a157600080fd5b506103aa611191565b60405180826000191660001916815260200191505060405180910390f35b3480156103d457600080fd5b5061045b600480360381019080803573ffffffffffffffffffffffffffffffffffffffff16906020019092919080359060200190929190803567ffffffffffffffff169060200190929190803567ffffffffffffffff169060200190929190803567ffffffffffffffff1690602001909291908035151590602001909291905050506111b8565b6040518082815260200191505060405180910390f35b34801561047d57600080fd5b5061049c60048036038101908080359060200190929190505050611458565b604051808273ffffffffffffffffffffffffffffffffffffffff1673ffffffffffffffffffffffffffffffffffffffff16815260200191505060405180910390f35b3480156104ea57600080fd5b506104f3611496565b604051808273ffffffffffffffffffffffffffffffffffffffff1673ffffffffffffffffffffffffffffffffffffffff16815260200191505060405180910390f35b34801561054157600080fd5b50610580600480360381019080803573ffffffffffffffffffffffffffffffffffffffff16906020019092919080359060200190929190505050611585565b604051808681526020018567ffffffffffffffff1667ffffffffffffffff1681526020018467ffffffffffffffff1667ffffffffffffffff1681526020018367ffffffffffffffff1667ffffffffffffffff168152602001821515151581526020019550505050505060405180910390f35b3480156105fe57600080fd5b5061063d600480360381019080803573ffffffffffffffffffffffffffffffffffffffff16906020019092919080359060200190929190505050611661565b005b34801561064b57600080fd5b506106aa600480360381019080803573ffffffffffffffffffffffffffffffffffffffff169060200190929190803573ffffffffffffffffffffffffffffffffffffffff169060200190929190803590602001909291905050506116dc565b604051808215151515815260200191505060405180910390f35b3480156106d057600080fd5b506106d9611804565b60405180826000191660001916815260200191505060405180910390f35b34801561070357600080fd5b50610742600480360381019080803573ffffffffffffffffffffffffffffffffffffffff1690602001909291908035906020019092919050505061182b565b6040518082815260200191505060405180910390f35b34801561076457600080fd5b5061076d611a7d565b60405180826000191660001916815260200191505060405180910390f35b34801561079757600080fd5b506107cc600480360381019080803573ffffffffffffffffffffffffffffffffffffffff169060200190929190505050611aa4565b604051808215151515815260200191505060405180910390f35b3480156107f257600080fd5b506107fb611aaf565b60405180826000191660001916815260200191505060405180910390f35b34801561082557600080fd5b5061082e611ae6565b604051808273ffffffffffffffffffffffffffffffffffffffff1673ffffffffffffffffffffffffffffffffffffffff16815260200191505060405180910390f35b34801561087c57600080fd5b50610885611aeb565b60405180826000191660001916815260200191505060405180910390f35b3480156108af57600080fd5b506108b8611b24565b6040518082815260200191505060405180910390f35b3480156108da57600080fd5b5061090f600480360381019080803573ffffffffffffffffffffffffffffffffffffffff169060200190929190505050611b5b565b005b34801561091d57600080fd5b5061095c600480360381019080803573ffffffffffffffffffffffffffffffffffffffff16906020019092919080359060200190929190505050611de5565b005b34801561096a57600080fd5b506109f0600480360381019080803573ffffffffffffffffffffffffffffffffffffffff169060200190929190803560001916906020019092919080359060200190820180359060200190808060200260200160405190810160405280939291908181526020018383602002808284378201915050505050509192919290505050611f41565b604051808215151515815260200191505060405180910390f35b348015610a1657600080fd5b50610a1f612153565b60405180826000191660001916815260200191505060405180910390f35b348015610a4957600080fd5b50610a5261218c565b60405180826000191660001916815260200191505060405180910390f35b348015610a7c57600080fd5b50610abb600480360381019080803573ffffffffffffffffffffffffffffffffffffffff169060200190929190803590602001909291905050506121c5565b005b348015610ac957600080fd5b50610b44600480360381019080803573ffffffffffffffffffffffffffffffffffffffff169060200190929190803590602001908201803590602001908080601f016020809104026020016040519081016040528093929190818152602001838380828437820191505050505050919291929050505061222b565b604051808215151515815260200191505060405180910390f35b348015610b6a57600080fd5b50610b7361232e565b6040518080602001828103825283818151815260200191508051906020019060200280838360005b83811015610bb6578082015181840152602081019050610b9b565b505050509050019250505060405180910390f35b348015610bd657600080fd5b50610bdf6123bc565b60405180826000191660001916815260200191505060405180910390f35b348015610c0957600080fd5b50610c28600480360381019080803590602001909291905050506123e3565b005b348015610c3657600080fd5b50610c3f612447565b604051808273ffffffffffffffffffffffffffffffffffffffff1673ffffffffffffffffffffffffffffffffffffffff16815260200191505060405180910390f35b348015610c8d57600080fd5b50610ce8600480360381019080803590602001908201803590602001908080601f016020809104026020016040519081016040528093929190818152602001838380828437820191505050505050919291929050505061247e565b005b348015610cf657600080fd5b50610d55600480360381019080803573ffffffffffffffffffffffffffffffffffffffff169060200190929190803573ffffffffffffffffffffffffffffffffffffffff16906020019092919080359060200190929190505050612591565b604051808215151515815260200191505060405180910390f35b348015610d7b57600080fd5b50610d8461259e565b60405180826000191660001916815260200191505060405180910390f35b348015610dae57600080fd5b50610db76125c5565b604051808215151515815260200191505060405180910390f35b348015610ddd57600080fd5b50610e34600480360381019080803573ffffffffffffffffffffffffffffffffffffffff169060200190929190803515159060200190929190803590602001909291908035151590602001909291905050506125f6565b005b348015610e4257600080fd5b50610e4b6128fb565b60405180826000191660001916815260200191505060405180910390f35b348015610e7557600080fd5b50610e7e612934565b6040518082815260200191505060405180910390f35b348015610ea057600080fd5b50610ea961293a565b60405180826000191660001916815260200191505060405180910390f35b610efb600480360381019080803573ffffffffffffffffffffffffffffffffffffffff169060200190929190505050612973565b604051808215151515815260200191505060405180910390f35b348015610f2157600080fd5b50610f7c600480360381019080803590602001908201803590602001908080601f01602080910402602001604051908101604052809392919081815260200183838082843782019150505050505091929192905050506129d9565b604051808273ffffffffffffffffffffffffffffffffffffffff1673ffffffffffffffffffffffffffffffffffffffff16815260200191505060405180910390f35b348015610fca57600080fd5b50611009600480360381019080803573ffffffffffffffffffffffffffffffffffffffff16906020019092919080359060200190929190505050612af8565b005b34801561101757600080fd5b50611020612eb9565b604051808273ffffffffffffffffffffffffffffffffffffffff1673ffffffffffffffffffffffffffffffffffffffff16815260200191505060405180910390f35b34801561106e57600080fd5b50611077612ede565b604051808215151515815260200191505060405180910390f35b34801561109d57600080fd5b506110a6612ef1565b604051808215151515815260200191505060405180910390f35b6000600360008373ffffffffffffffffffffffffffffffffffffffff1673ffffffffffffffffffffffffffffffffffffffff168152602001908152602001600020805490509050919050565b60046020528060005260406000206000915054906101000a900460ff1681565b600080611137611b24565b90506000811415801561115157508061114e612efa565b10155b91505090565b6000611163824261182b565b9050919050565b7f3b4bf6bf3ad5000ecf0f989d5befde585c6860fea3e574a4fab4c49d1c177d9c60010281565b7fd6f028ca0e8edb4a8c9757ca4fdccab25fa1e0317da1188108f7d2dee14902fb60010281565b60006111c2613d60565b600060405180807f41535349474e5f524f4c45000000000000000000000000000000000000000000815250600b01905060405180910390206112048a8a612f02565b61120f338383611f41565b151561121a57600080fd5b60326112258c6110c0565b10151561123157600080fd5b8767ffffffffffffffff168967ffffffffffffffff161115801561126957508667ffffffffffffffff168867ffffffffffffffff1611155b151561127457600080fd5b60a0604051908101604052808b81526020018a67ffffffffffffffff1681526020018967ffffffffffffffff1681526020018867ffffffffffffffff16815260200187151581525093506001600360008d73ffffffffffffffffffffffffffffffffffffffff1673ffffffffffffffffffffffffffffffffffffffff16815260200190815260200160002085908060018154018082558091505090600182039060005260206000209060020201600090919290919091506000820151816000015560208201518160010160006101000a81548167ffffffffffffffff021916908367ffffffffffffffff16021790555060408201518160010160086101000a81548167ffffffffffffffff021916908367ffffffffffffffff16021790555060608201518160010160106101000a81548167ffffffffffffffff021916908367ffffffffffffffff16021790555060808201518160010160186101000a81548160ff02191690831515021790555050500392506113f18b8b612f2c565b8a73ffffffffffffffffffffffffffffffffffffffff167f627ad26dcfe82ec79b33fda0ddd062f6fab9f4914acac8345f79090dfd86fb54848c604051808381526020018281526020019250505060405180910390a2829450505050509695505050505050565b60058181548110151561146757fe5b906000526020600020016000915054906101000a900473ffffffffffffffffffffffffffffffffffffffff1681565b60008073ffffffffffffffffffffffffffffffffffffffff166114b7612447565b73ffffffffffffffffffffffffffffffffffffffff16141515156114da57600080fd5b6114e2612447565b73ffffffffffffffffffffffffffffffffffffffff166332f0a3b56040518163ffffffff167c0100000000000000000000000000000000000000000000000000000000028152600401602060405180830381600087803b15801561154557600080fd5b505af1158015611559573d6000803e3d6000fd5b505050506040513d602081101561156f57600080fd5b8101908080519060200190929190505050905090565b600080600080600080600360008973ffffffffffffffffffffffffffffffffffffffff1673ffffffffffffffffffffffffffffffffffffffff168152602001908152602001600020878154811015156115da57fe5b90600052602060002090600202019050806000015495508060010160009054906101000a900467ffffffffffffffff1694508060010160089054906101000a900467ffffffffffffffff1693508060010160109054906101000a900467ffffffffffffffff1692508060010160189054906101000a900460ff169150509295509295909350565b60405180807f4d494e545f524f4c450000000000000000000000000000000000000000000000815250600901905060405180910390206116a18383612f02565b6116ac338383611f41565b15156116b757600080fd5b6116c18484613096565b15156116cc57600080fd5b6116d684846131ae565b50505050565b60008060006116e961112c565b15156116f457600080fd5b6000809054906101000a900473ffffffffffffffffffffffffffffffffffffffff1673ffffffffffffffffffffffffffffffffffffffff163373ffffffffffffffffffffffffffffffffffffffff1614151561174f57600080fd5b3073ffffffffffffffffffffffffffffffffffffffff168673ffffffffffffffffffffffffffffffffffffffff1614806117b457503073ffffffffffffffffffffffffffffffffffffffff168573ffffffffffffffffffffffffffffffffffffffff16145b91508115156117ed576117c78585613096565b90508015806117de5750836117dc874261182b565b105b156117ec57600092506117fb565b5b6117f6856132ce565b600192505b50509392505050565b7fddbcfd564f642ab5627cf68b9b7d374fb4f8a36e941a75d89c87998cef03bd6160010281565b60008060008060008061183d886110c0565b945060009350600092505b8483101561196757600360008973ffffffffffffffffffffffffffffffffffffffff1673ffffffffffffffffffffffffffffffffffffffff1681526020019081526020016000208381548110151561189c57fe5b9060005260206000209060020201915061193582600001546118bd896133ff565b67ffffffffffffffff168460010160009054906101000a900467ffffffffffffffff1667ffffffffffffffff168560010160089054906101000a900467ffffffffffffffff1667ffffffffffffffff168660010160109054906101000a900467ffffffffffffffff1667ffffffffffffffff16613442565b905061194a81856134ae90919063ffffffff16565b93506119606001846134ae90919063ffffffff16565b9250611848565b611a70846000809054906101000a900473ffffffffffffffffffffffffffffffffffffffff1673ffffffffffffffffffffffffffffffffffffffff166370a082318b6040518263ffffffff167c0100000000000000000000000000000000000000000000000000000000028152600401808273ffffffffffffffffffffffffffffffffffffffff1673ffffffffffffffffffffffffffffffffffffffff168152602001915050602060405180830381600087803b158015611a2757600080fd5b505af1158015611a3b573d6000803e3d6000fd5b505050506040513d6020811015611a5157600080fd5b81019080805190602001909291905050506134cf90919063ffffffff16565b9550505050505092915050565b7fc681a85306374a5ab27f0bbc385296a54bcd314a1948b6cf61c4ea1bc44bb9f860010281565b600060019050919050565b6000611ae17fd625496217aa6a3453eecb9c3489dc5a53e6c67b444329ea2b2cbc9ff547639b600102600019166134f0565b905090565b600081565b60405180807f49535355455f524f4c4500000000000000000000000000000000000000000000815250600a019050604051809103902081565b6000611b567febb05b386a8d34882b8711d156f463690983dc47815980fb82aeeff1aa43579e600102600019166134fb565b905090565b600080611b6783611aa4565b1515611b7257600080fd5b611b7a611496565b9150611b8582613506565b1515611b9057600080fd5b600073ffffffffffffffffffffffffffffffffffffffff168373ffffffffffffffffffffffffffffffffffffffff161415611c28578173ffffffffffffffffffffffffffffffffffffffff166108fc3073ffffffffffffffffffffffffffffffffffffffff16319081150290604051600060405180830381858888f19350505050158015611c22573d6000803e3d6000fd5b50611de0565b8273ffffffffffffffffffffffffffffffffffffffff166370a08231306040518263ffffffff167c0100000000000000000000000000000000000000000000000000000000028152600401808273ffffffffffffffffffffffffffffffffffffffff1673ffffffffffffffffffffffffffffffffffffffff168152602001915050602060405180830381600087803b158015611cc357600080fd5b505af1158015611cd7573d6000803e3d6000fd5b505050506040513d6020811015611ced57600080fd5b810190808051906020019092919050505090508273ffffffffffffffffffffffffffffffffffffffff1663a9059cbb83836040518363ffffffff167c0100000000000000000000000000000000000000000000000000000000028152600401808373ffffffffffffffffffffffffffffffffffffffff1673ffffffffffffffffffffffffffffffffffffffff16815260200182815260200192505050602060405180830381600087803b158015611da357600080fd5b505af1158015611db7573d6000803e3d6000fd5b505050506040513d6020811015611dcd57600080fd5b8101908080519060200190929190505050505b505050565b60405180807f4255524e5f524f4c45000000000000000000000000000000000000000000000081525060090190506040518091039020611e258383612f02565b611e30338383611f41565b1515611e3b57600080fd5b6000809054906101000a900473ffffffffffffffffffffffffffffffffffffffff1673ffffffffffffffffffffffffffffffffffffffff1663d3ce77fe85856040518363ffffffff167c0100000000000000000000000000000000000000000000000000000000028152600401808373ffffffffffffffffffffffffffffffffffffffff1673ffffffffffffffffffffffffffffffffffffffff16815260200182815260200192505050602060405180830381600087803b158015611eff57600080fd5b505af1158015611f13573d6000803e3d6000fd5b505050506040513d6020811015611f2957600080fd5b81019080805190602001909291905050505050505050565b60008060606000611f5061112c565b1515611f5f5760009350612149565b611f67612447565b9250600073ffffffffffffffffffffffffffffffffffffffff168373ffffffffffffffffffffffffffffffffffffffff161415611fa75760009350612149565b600085511115611fbf57602085510290508491508082525b8273ffffffffffffffffffffffffffffffffffffffff1663fdef9106883089866040518563ffffffff167c0100000000000000000000000000000000000000000000000000000000028152600401808573ffffffffffffffffffffffffffffffffffffffff1673ffffffffffffffffffffffffffffffffffffffff1681526020018473ffffffffffffffffffffffffffffffffffffffff1673ffffffffffffffffffffffffffffffffffffffff168152602001836000191660001916815260200180602001828103825283818151815260200191508051906020019080838360005b838110156120bc5780820151818401526020810190506120a1565b50505050905090810190601f1680156120e95780820380516001836020036101000a031916815260200191505b5095505050505050602060405180830381600087803b15801561210b57600080fd5b505af115801561211f573d6000803e3d6000fd5b505050506040513d602081101561213557600080fd5b810190808051906020019092919050505093505b5050509392505050565b60405180807f41535349474e5f524f4c45000000000000000000000000000000000000000000815250600b019050604051809103902081565b60405180807f4255524e5f524f4c4500000000000000000000000000000000000000000000008152506009019050604051809103902081565b60405180807f41535349474e5f524f4c45000000000000000000000000000000000000000000815250600b01905060405180910390206122058383612f02565b612210338383611f41565b151561221b57600080fd5b6122258484612f2c565b50505050565b6000806000809054906101000a900473ffffffffffffffffffffffffffffffffffffffff1673ffffffffffffffffffffffffffffffffffffffff166370a08231856040518263ffffffff167c0100000000000000000000000000000000000000000000000000000000028152600401808273ffffffffffffffffffffffffffffffffffffffff1673ffffffffffffffffffffffffffffffffffffffff168152602001915050602060405180830381600087803b1580156122ea57600080fd5b505af11580156122fe573d6000803e3d6000fd5b505050506040513d602081101561231457600080fd5b810190808051906020019092919050505011905092915050565b606060058054806020026020016040519081016040528092919081815260200182805480156123b257602002820191906000526020600020905b8160009054906101000a900473ffffffffffffffffffffffffffffffffffffffff1673ffffffffffffffffffffffffffffffffffffffff1681526020019060010190808311612368575b5050505050905090565b7fe3262375f45a6e2026b7e7b18c2b807434f2508fe1a2a3dfb493c7df8f4aad6a60010281565b60405180807f49535355455f524f4c4500000000000000000000000000000000000000000000815250600a019050604051809103902061242282613558565b61242d338383611f41565b151561243857600080fd5b61244230846131ae565b505050565b60006124797f4172f0f7d2289153072b0a6ca36959e0cbe2efc3afe50fc81636caa96338137b600102600019166135b0565b905090565b60608061248961112c565b151561249457600080fd5b61249e338461222b565b15156124a957600080fd5b60006040519080825280601f01601f1916602001820160405280156124dd5781602001602082028038833980820191505090505b50915060016040519080825280602002602001820160405280156125105781602001602082028038833980820191505090505b5090506000809054906101000a900473ffffffffffffffffffffffffffffffffffffffff1681600081518110151561254457fe5b9060200190602002019073ffffffffffffffffffffffffffffffffffffffff16908173ffffffffffffffffffffffffffffffffffffffff168152505061258b8383836135bb565b50505050565b6000600190509392505050565b7ff1f3eb40f5bc1ad1344716ced8b8a0431d840b5783aea1fd01786bc26f35ac0f60010281565b60007fffffffffffffffffffffffffffffffffffffffffffffffffffffffffffffffff6125f0611b24565b14905090565b6000612600611b24565b14151561260c57600080fd5b612614613a8f565b3073ffffffffffffffffffffffffffffffffffffffff168473ffffffffffffffffffffffffffffffffffffffff1663f77c47916040518163ffffffff167c0100000000000000000000000000000000000000000000000000000000028152600401602060405180830381600087803b15801561268f57600080fd5b505af11580156126a3573d6000803e3d6000fd5b505050506040513d60208110156126b957600080fd5b810190808051906020019092919050505073ffffffffffffffffffffffffffffffffffffffff161415156126ec57600080fd5b836000806101000a81548173ffffffffffffffffffffffffffffffffffffffff021916908373ffffffffffffffffffffffffffffffffffffffff1602179055506000821461273a578161275c565b7fffffffffffffffffffffffffffffffffffffffffffffffffffffffffffffffff5b60018190555080600260006101000a81548160ff0219169083151502179055508215156000809054906101000a900473ffffffffffffffffffffffffffffffffffffffff1673ffffffffffffffffffffffffffffffffffffffff1663bef97c876040518163ffffffff167c0100000000000000000000000000000000000000000000000000000000028152600401602060405180830381600087803b15801561280457600080fd5b505af1158015612818573d6000803e3d6000fd5b505050506040513d602081101561282e57600080fd5b810190808051906020019092919050505015151415156128f5576000809054906101000a900473ffffffffffffffffffffffffffffffffffffffff1673ffffffffffffffffffffffffffffffffffffffff1663f41e60c5846040518263ffffffff167c01000000000000000000000000000000000000000000000000000000000281526004018082151515158152602001915050600060405180830381600087803b1580156128dc57600080fd5b505af11580156128f0573d6000803e3d6000fd5b505050505b50505050565b60405180807f4d494e545f524f4c4500000000000000000000000000000000000000000000008152506009019050604051809103902081565b60015481565b60405180807f5245564f4b455f56455354494e47535f524f4c450000000000000000000000008152506014019050604051809103902081565b60008060009054906101000a900473ffffffffffffffffffffffffffffffffffffffff1673ffffffffffffffffffffffffffffffffffffffff163373ffffffffffffffffffffffffffffffffffffffff161415156129d057600080fd5b60009050919050565b60006129e3613ae8565b73ffffffffffffffffffffffffffffffffffffffff166304bf2a7f836040518263ffffffff167c01000000000000000000000000000000000000000000000000000000000281526004018080602001828103825283818151815260200191508051906020019080838360005b83811015612a6a578082015181840152602081019050612a4f565b50505050905090810190601f168015612a975780820380516001836020036101000a031916815260200191505b5092505050602060405180830381600087803b158015612ab657600080fd5b505af1158015612aca573d6000803e3d6000fd5b505050506040513d6020811015612ae057600080fd5b81019080805190602001909291905050509050919050565b60008060405180807f5245564f4b455f56455354494e47535f524f4c4500000000000000000000000081525060140190506040518091039020612b3a85613c03565b612b45338383611f41565b1515612b5057600080fd5b600360008773ffffffffffffffffffffffffffffffffffffffff1673ffffffffffffffffffffffffffffffffffffffff16815260200190815260200160002085815481101515612b9c57fe5b906000526020600020906002020193508360010160189054906101000a900460ff161515612bc957600080fd5b612c518460000154612bd9613c2b565b67ffffffffffffffff168660010160009054906101000a900467ffffffffffffffff1667ffffffffffffffff168760010160089054906101000a900467ffffffffffffffff1667ffffffffffffffff168860010160109054906101000a900467ffffffffffffffff1667ffffffffffffffff16613442565b9250600360008773ffffffffffffffffffffffffffffffffffffffff1673ffffffffffffffffffffffffffffffffffffffff16815260200190815260200160002085815481101515612c9f57fe5b90600052602060002090600202016000808201600090556001820160006101000a81549067ffffffffffffffff02191690556001820160086101000a81549067ffffffffffffffff02191690556001820160106101000a81549067ffffffffffffffff02191690556001820160186101000a81549060ff021916905550506000809054906101000a900473ffffffffffffffffffffffffffffffffffffffff1673ffffffffffffffffffffffffffffffffffffffff166323b872dd8730866040518463ffffffff167c0100000000000000000000000000000000000000000000000000000000028152600401808473ffffffffffffffffffffffffffffffffffffffff1673ffffffffffffffffffffffffffffffffffffffff1681526020018373ffffffffffffffffffffffffffffffffffffffff1673ffffffffffffffffffffffffffffffffffffffff1681526020018281526020019350505050602060405180830381600087803b158015612e1557600080fd5b505af1158015612e29573d6000803e3d6000fd5b505050506040513d6020811015612e3f57600080fd5b81019080805190602001909291905050501515612e5b57600080fd5b8573ffffffffffffffffffffffffffffffffffffffff167fafc516b1509f836efdc27d64d966d14f82ef53f456f0de74c12ac8a651a084cc8685604051808381526020018281526020019250505060405180910390a2505050505050565b6000809054906101000a900473ffffffffffffffffffffffffffffffffffffffff1681565b600260009054906101000a900460ff1681565b60006001905090565b600043905090565b6060612f248373ffffffffffffffffffffffffffffffffffffffff1683613c42565b905092915050565b612f3461112c565b1515612f3f57600080fd5b612f498282613096565b1515612f5457600080fd5b6000809054906101000a900473ffffffffffffffffffffffffffffffffffffffff1673ffffffffffffffffffffffffffffffffffffffff166323b872dd3084846040518463ffffffff167c0100000000000000000000000000000000000000000000000000000000028152600401808473ffffffffffffffffffffffffffffffffffffffff1673ffffffffffffffffffffffffffffffffffffffff1681526020018373ffffffffffffffffffffffffffffffffffffffff1673ffffffffffffffffffffffffffffffffffffffff1681526020018281526020019350505050602060405180830381600087803b15801561304c57600080fd5b505af1158015613060573d6000803e3d6000fd5b505050506040513d602081101561307657600080fd5b8101908080519060200190929190505050151561309257600080fd5b5050565b60006001546131a4836000809054906101000a900473ffffffffffffffffffffffffffffffffffffffff1673ffffffffffffffffffffffffffffffffffffffff166370a08231876040518263ffffffff167c0100000000000000000000000000000000000000000000000000000000028152600401808273ffffffffffffffffffffffffffffffffffffffff1673ffffffffffffffffffffffffffffffffffffffff168152602001915050602060405180830381600087803b15801561315b57600080fd5b505af115801561316f573d6000803e3d6000fd5b505050506040513d602081101561318557600080fd5b81019080805190602001909291905050506134ae90919063ffffffff16565b1115905092915050565b6131b661112c565b15156131c157600080fd5b6000809054906101000a900473ffffffffffffffffffffffffffffffffffffffff1673ffffffffffffffffffffffffffffffffffffffff1663827f32c083836040518363ffffffff167c0100000000000000000000000000000000000000000000000000000000028152600401808373ffffffffffffffffffffffffffffffffffffffff1673ffffffffffffffffffffffffffffffffffffffff16815260200182815260200192505050602060405180830381600087803b15801561328557600080fd5b505af1158015613299573d6000803e3d6000fd5b505050506040513d60208110156132af57600080fd5b8101908080519060200190929190505050506132ca826132ce565b5050565b600260009054906101000a900460ff1615806133335750600460008273ffffffffffffffffffffffffffffffffffffffff1673ffffffffffffffffffffffffffffffffffffffff16815260200190815260200160002060009054906101000a900460ff165b1561333d576133fc565b6001600460008373ffffffffffffffffffffffffffffffffffffffff1673ffffffffffffffffffffffffffffffffffffffff16815260200190815260200160002060006101000a81548160ff02191690831515021790555060058190806001815401808255809150509060018203906000526020600020016000909192909190916101000a81548173ffffffffffffffffffffffffffffffffffffffff021916908373ffffffffffffffffffffffffffffffffffffffff160217905550505b50565b60007fffffffffffffffffffffffffffffffffffffffffffffffffffffffffffffffff67ffffffffffffffff16821115151561343a57600080fd5b819050919050565b600080828610151561345757600091506134a4565b83861015613467578691506134a4565b61348c61347d8861347889896134cf565b613cb9565b61348785886134cf565b613cf7565b90506134a181886134cf90919063ffffffff16565b91505b5095945050505050565b60008082840190508381101515156134c557600080fd5b8091505092915050565b6000808383111515156134e157600080fd5b82840390508091505092915050565b600081549050919050565b600081549050919050565b600080600073ffffffffffffffffffffffffffffffffffffffff168373ffffffffffffffffffffffffffffffffffffffff1614156135475760009150613552565b823b90506000811191505b50919050565b6060600160405190808252806020026020018201604052801561358a5781602001602082028038833980820191505090505b5090508181600081518110151561359d57fe5b9060200190602002018181525050919050565b600081549050919050565b606060008060606135ca61112c565b15156135d557600080fd5b6000806135e0612447565b91506135ea611aaf565b90506135f5896129d9565b9450600073ffffffffffffffffffffffffffffffffffffffff168573ffffffffffffffffffffffffffffffffffffffff161415151561363357600080fd5b8473ffffffffffffffffffffffffffffffffffffffff1663279cea3590507c01000000000000000000000000000000000000000000000000000000000293508473ffffffffffffffffffffffffffffffffffffffff16848a8a8a60405160240180806020018060200180602001848103845287818151815260200191508051906020019080838360005b838110156136d85780820151818401526020810190506136bd565b50505050905090810190601f1680156137055780820380516001836020036101000a031916815260200191505b50848103835286818151815260200191508051906020019080838360005b8381101561373e578082015181840152602081019050613723565b50505050905090810190601f16801561376b5780820380516001836020036101000a031916815260200191505b50848103825285818151815260200191508051906020019060200280838360005b838110156137a757808201518184015260208101905061378c565b505050509050019650505050505050604051602081830303815290604052907bffffffffffffffffffffffffffffffffffffffffffffffffffffffff19166020820180517bffffffffffffffffffffffffffffffffffffffffffffffffffffffff838183161783525050505060405180828051906020019080838360005b83811015613840578082015181840152602081019050613825565b50505050905090810190601f16801561386d5780820380516001836020036101000a031916815260200191505b50915050600060405180830381855af4915050151561388b57600080fd5b613893613d21565b92508473ffffffffffffffffffffffffffffffffffffffff167f5229a5dba83a54ae8cb5b51bdd6de9474cacbe9dd332f5185f3a4f4f2e3f4ad98a8a8660405180806020018060200180602001848103845287818151815260200191508051906020019080838360005b838110156139185780820151818401526020810190506138fd565b50505050905090810190601f1680156139455780820380516001836020036101000a031916815260200191505b50848103835286818151815260200191508051906020019080838360005b8381101561397e578082015181840152602081019050613963565b50505050905090810190601f1680156139ab5780820380516001836020036101000a031916815260200191505b50848103825285818151815260200191508051906020019080838360005b838110156139e45780820151818401526020810190506139c9565b50505050905090810190601f168015613a115780820380516001836020036101000a031916815260200191505b50965050505050505060405180910390a28295508173ffffffffffffffffffffffffffffffffffffffff16613a44612447565b73ffffffffffffffffffffffffffffffffffffffff16141515613a6657600080fd5b8060001916613a73611aaf565b60001916141515613a8357600080fd5b50505050509392505050565b6000613a99611b24565b141515613aa557600080fd5b613ae6613ab0612efa565b7febb05b386a8d34882b8711d156f463690983dc47815980fb82aeeff1aa43579e60010260001916613d5190919063ffffffff16565b565b600080613af3612447565b73ffffffffffffffffffffffffffffffffffffffff1663be00bbd87fd6f028ca0e8edb4a8c9757ca4fdccab25fa1e0317da1188108f7d2dee14902fb6001027fddbcfd564f642ab5627cf68b9b7d374fb4f8a36e941a75d89c87998cef03bd616001026040518363ffffffff167c0100000000000000000000000000000000000000000000000000000000028152600401808360001916600019168152602001826000191660001916815260200192505050602060405180830381600087803b158015613bbf57600080fd5b505af1158015613bd3573d6000803e3d6000fd5b505050506040513d6020811015613be957600080fd5b810190808051906020019092919050505090508091505090565b6060613c248273ffffffffffffffffffffffffffffffffffffffff16613558565b9050919050565b6000613c3d613c38613d58565b6133ff565b905090565b60606002604051908082528060200260200182016040528015613c745781602001602082028038833980820191505090505b50905082816000815181101515613c8757fe5b906020019060200201818152505081816001815181101515613ca557fe5b906020019060200201818152505092915050565b6000806000841415613cce5760009150613cf0565b8284029050828482811515613cdf57fe5b04141515613cec57600080fd5b8091505b5092915050565b600080600083111515613d0957600080fd5b8284811515613d1457fe5b0490508091505092915050565b60603d8060008114613d48576040519250602082018301604052602082036020843e613d49565b5b505080905090565b8082555050565b600042905090565b60a06040519081016040528060008152602001600067ffffffffffffffff168152602001600067ffffffffffffffff168152602001600067ffffffffffffffff16815260200160001515815250905600a165627a7a72305820d89db70f4d61a69f691b7e4db81e829bfefa7f4cce79e49e1ca6eaeb71167d260029",
  "source": "/*\n * SPDX-License-Identitifer:    GPL-3.0-or-later\n */\n\n/* solium-disable function-order */\n\npragma solidity 0.4.24;\n\nimport \"@aragon/os/contracts/apps/AragonApp.sol\";\nimport \"@aragon/os/contracts/common/IForwarder.sol\";\nimport \"@aragon/os/contracts/common/Uint256Helpers.sol\";\n\nimport \"@aragon/os/contracts/lib/token/ERC20.sol\";\nimport \"@aragon/os/contracts/lib/math/SafeMath.sol\";\n\nimport \"@aragon/apps-shared-minime/contracts/ITokenController.sol\";\nimport \"@aragon/apps-shared-minime/contracts/MiniMeToken.sol\";\n\n\ncontract TokenManager is ITokenController, IForwarder, AragonApp {\n    using SafeMath for uint256;\n    using Uint256Helpers for uint256;\n\n    MiniMeToken public token;\n    uint256 public maxAccountTokens;\n    bool public logHolders;\n\n    bytes32 constant public MINT_ROLE = keccak256(\"MINT_ROLE\");\n    bytes32 constant public ISSUE_ROLE = keccak256(\"ISSUE_ROLE\");\n    bytes32 constant public ASSIGN_ROLE = keccak256(\"ASSIGN_ROLE\");\n    bytes32 constant public REVOKE_VESTINGS_ROLE = keccak256(\"REVOKE_VESTINGS_ROLE\");\n    bytes32 constant public BURN_ROLE = keccak256(\"BURN_ROLE\");\n\n    uint256 constant MAX_VESTINGS_PER_ADDRESS = 50;\n    struct TokenVesting {\n        uint256 amount;\n        uint64 start;\n        uint64 cliff;\n        uint64 vesting;\n        bool revokable;\n    }\n\n    mapping (address => TokenVesting[]) internal vestings;\n    mapping (address => bool) public everHeld;\n\n    // Returns all holders the token had (since managing it).\n    // Some of them can have a balance of 0.\n    address[] public holders;\n\n\n    // Other token specific events can be watched on the token address directly (avoid duplication)\n    event NewVesting(address indexed receiver, uint256 vestingId, uint256 amount);\n    event RevokeVesting(address indexed receiver, uint256 vestingId, uint256 nonVestedAmount);\n\n    /**\n    * @notice Initializes Token Manager for `_token.symbol(): string`, `transerable ? 'T' : 'Not t'`ransferable`_maxAccountTokens > 0 ? ', with a maximum of ' _maxAccountTokens ' per account' : ''` and with`_logHolders ? '' : 'out'` storage of token holders.\n    * @param _token MiniMeToken address for the managed token (Token Manager instance must be already set as the token controller)\n    * @param _transferable whether the token can be transferred by holders\n    * @param _maxAccountTokens Maximum amount of tokens an account can have (0 for infinite tokens)\n    * @param _logHolders Whether the Token Manager will store all token holders (makes token transfers more expensive!)\n    */\n    function initialize(\n        MiniMeToken _token,\n        bool _transferable,\n        uint256 _maxAccountTokens,\n        bool _logHolders\n    )\n        external\n        onlyInit\n    {\n        initialized();\n\n        require(_token.controller() == address(this));\n\n        token = _token;\n        maxAccountTokens = _maxAccountTokens == 0 ? uint256(-1) : _maxAccountTokens;\n        logHolders = _logHolders;\n\n        if (token.transfersEnabled() != _transferable) {\n            token.enableTransfers(_transferable);\n        }\n    }\n\n    /**\n    * @notice Mint `_amount / 10^18` tokens for `_receiver`\n    * @param _receiver The address receiving the tokens\n    * @param _amount Number of tokens minted\n    */\n    function mint(address _receiver, uint256 _amount) external authP(MINT_ROLE, arr(_receiver, _amount)) {\n        require(isBalanceIncreaseAllowed(_receiver, _amount));\n        _mint(_receiver, _amount);\n    }\n\n    /**\n    * @notice Mint `_amount / 10^18` tokens for the Token Manager\n    * @param _amount Number of tokens minted\n    */\n    function issue(uint256 _amount) external authP(ISSUE_ROLE, arr(_amount)) {\n        _mint(address(this), _amount);\n    }\n\n    /**\n    * @notice Assign `_amount / 10^18` tokens to `_receiver` from Token Manager's holdings\n    * @param _receiver The address receiving the tokens\n    * @param _amount Number of tokens transferred\n    */\n    function assign(address _receiver, uint256 _amount) external authP(ASSIGN_ROLE, arr(_receiver, _amount)) {\n        _assign(_receiver, _amount);\n    }\n\n    /**\n    * @notice Burn `_amount / 10^18` tokens from `_holder`\n    * @param _holder Holder being removed tokens\n    * @param _amount Number of tokens being burned\n    */\n    function burn(address _holder, uint256 _amount) external authP(BURN_ROLE, arr(_holder, _amount)) {\n        // minime.destroyTokens() never returns false, only reverts on failure\n        token.destroyTokens(_holder, _amount);\n    }\n\n    /**\n    * @notice Assign `_amount / 10^18` tokens to `_receiver` from the Token Manager's holdings with a `_revokable : 'revokable' : ''` vesting starting at `_start`, cliff at `_cliff` (first portion of tokens transferable), and completed vesting at `_vesting` (all tokens transferable)\n    * @param _receiver The address receiving the tokens\n    * @param _amount Number of tokens vested\n    * @param _start Date the vesting calculations start\n    * @param _cliff Date when the initial portion of tokens are transferable\n    * @param _vested Date when all tokens are transferable\n    * @param _revokable Whether the vesting can be revoked by the Token Manager\n    */\n    function assignVested(\n        address _receiver,\n        uint256 _amount,\n        uint64 _start,\n        uint64 _cliff,\n        uint64 _vested,\n        bool _revokable\n    )\n        external\n        authP(ASSIGN_ROLE, arr(_receiver, _amount))\n        returns (uint256)\n    {\n        require(tokenGrantsCount(_receiver) < MAX_VESTINGS_PER_ADDRESS);\n\n        require(_start <= _cliff && _cliff <= _vested);\n\n        TokenVesting memory tokenVesting = TokenVesting(\n            _amount,\n            _start,\n            _cliff,\n            _vested,\n            _revokable\n        );\n        uint256 vestingId = vestings[_receiver].push(tokenVesting) - 1;\n\n        _assign(_receiver, _amount);\n\n        emit NewVesting(_receiver, vestingId, _amount);\n\n        return vestingId;\n    }\n\n    /**\n    * @notice Revoke vesting `_vestingId` from `_holder`, returning unvested tokens to Token Manager\n    * @param _holder Address getting vesting revoked\n    * @param _vestingId Numeric id of the vesting\n    */\n    function revokeVesting(address _holder, uint256 _vestingId) external authP(REVOKE_VESTINGS_ROLE, arr(_holder)) {\n        TokenVesting storage v = vestings[_holder][_vestingId];\n        require(v.revokable);\n\n        uint256 nonVested = calculateNonVestedTokens(\n            v.amount,\n            getTimestamp64(),\n            v.start,\n            v.cliff,\n            v.vesting\n        );\n\n        // To make vestingIds immutable over time, we just zero out the revoked vesting\n        delete vestings[_holder][_vestingId];\n\n        // transferFrom always works as controller\n        // onTransfer hook always allows if transfering to token controller\n        require(token.transferFrom(_holder, address(this), nonVested));\n\n        emit RevokeVesting(_holder, _vestingId, nonVested);\n    }\n\n    /**\n    * @notice Execute desired action as a token holder\n    * @dev IForwarder interface conformance. Forwards any token holder action.\n    * @param _evmScript Script being executed\n    */\n    function forward(bytes _evmScript) public isInitialized {\n        require(canForward(msg.sender, _evmScript));\n        bytes memory input = new bytes(0); // TODO: Consider input for this\n        address[] memory blacklist = new address[](1);\n        blacklist[0] = address(token);\n        runScript(_evmScript, input, blacklist);\n    }\n\n    function isForwarder() public pure returns (bool) {\n        return true;\n    }\n\n    function canForward(address _sender, bytes) public view returns (bool) {\n        return token.balanceOf(_sender) > 0;\n    }\n\n    function allHolders() public view returns (address[]) { return holders; }\n\n    function getVesting(\n        address _recipient,\n        uint256 _vestingId\n    )\n        public\n        view\n        returns (\n            uint256 amount,\n            uint64 start,\n            uint64 cliff,\n            uint64 vesting,\n            bool revokable\n        )\n    {\n        TokenVesting storage tokenVesting = vestings[_recipient][_vestingId];\n        amount = tokenVesting.amount;\n        start = tokenVesting.start;\n        cliff = tokenVesting.cliff;\n        vesting = tokenVesting.vesting;\n        revokable = tokenVesting.revokable;\n    }\n\n    /*\n    * @dev Notifies the controller about a token transfer allowing the controller to decide whether to allow it or react if desired (only callable from the token)\n    * @param _from The origin of the transfer\n    * @param _to The destination of the transfer\n    * @param _amount The amount of the transfer\n    * @return False if the controller does not authorize the transfer\n    */\n    function onTransfer(address _from, address _to, uint _amount) public isInitialized returns (bool) {\n        require(msg.sender == address(token));\n\n        bool includesTokenManager = _from == address(this) || _to == address(this);\n\n        if (!includesTokenManager) {\n            bool toCanReceive = isBalanceIncreaseAllowed(_to, _amount);\n            if (!toCanReceive || transferableBalance(_from, now) < _amount) {\n                return false;\n            }\n        }\n\n        _logHolderIfNeeded(_to);\n\n        return true;\n    }\n\n    function isBalanceIncreaseAllowed(address _receiver, uint _inc) internal view returns (bool) {\n        return token.balanceOf(_receiver).add(_inc) <= maxAccountTokens;\n    }\n\n    function tokenGrantsCount(address _holder) public view returns (uint256) {\n        return vestings[_holder].length;\n    }\n\n    function spendableBalanceOf(address _holder) public view returns (uint256) {\n        return transferableBalance(_holder, now);\n    }\n\n    function transferableBalance(address _holder, uint256 _time) public view returns (uint256) {\n        uint256 vs = tokenGrantsCount(_holder);\n        uint256 totalNonTransferable = 0;\n\n        for (uint256 i = 0; i < vs; i = i.add(1)) {\n            TokenVesting storage v = vestings[_holder][i];\n            uint nonTransferable = calculateNonVestedTokens(\n                v.amount,\n                _time.toUint64(),\n                v.start,\n                v.cliff,\n                v.vesting\n            );\n            totalNonTransferable = totalNonTransferable.add(nonTransferable);\n        }\n\n        return token.balanceOf(_holder).sub(totalNonTransferable);\n    }\n\n    /**\n    * @dev Calculate amount of non-vested tokens at a specifc time\n    * @param tokens The total amount of tokens vested\n    * @param time The time at which to check\n    * @param start The date vesting started\n    * @param cliff The cliff period\n    * @param vested The fully vested date\n    * @return The amount of non-vested tokens of a specific grant\n    *  transferableTokens\n    *   |                         _/--------   vestedTokens rect\n    *   |                       _/\n    *   |                     _/\n    *   |                   _/\n    *   |                 _/\n    *   |                /\n    *   |              .|\n    *   |            .  |\n    *   |          .    |\n    *   |        .      |\n    *   |      .        |\n    *   |    .          |\n    *   +===+===========+---------+----------> time\n    *      Start       Cliff    Vested\n    */\n    function calculateNonVestedTokens(\n        uint256 tokens,\n        uint256 time,\n        uint256 start,\n        uint256 cliff,\n        uint256 vested) private pure returns (uint256)\n    {\n        // Shortcuts for before cliff and after vested cases.\n        if (time >= vested) {\n            return 0;\n        }\n        if (time < cliff) {\n            return tokens;\n        }\n\n        // Interpolate all vested tokens.\n        // As before cliff the shortcut returns 0, we can use just calculate a value\n        // in the vesting rect (as shown in above's figure)\n\n        // vestedTokens = tokens * (time - start) / (vested - start)\n        uint256 vestedTokens = SafeMath.div(\n            SafeMath.mul(\n                tokens,\n                SafeMath.sub(\n                    time,\n                    start\n                )\n            ),\n            SafeMath.sub(\n                vested,\n                start\n            )\n        );\n\n        // tokens - vestedTokens\n        return tokens.sub(vestedTokens);\n    }\n\n    function _assign(address _receiver, uint256 _amount) internal isInitialized {\n        require(isBalanceIncreaseAllowed(_receiver, _amount));\n        // Must use transferFrom() as transfer() does not give the token controller full control\n        require(token.transferFrom(this, _receiver, _amount));\n    }\n\n    function _mint(address _receiver, uint256 _amount) internal isInitialized {\n        token.generateTokens(_receiver, _amount); // minime.generateTokens() never returns false\n        _logHolderIfNeeded(_receiver);\n    }\n\n    function _logHolderIfNeeded(address _newHolder) internal {\n        // costs 3 sstores (2 full (20k gas) and 1 increase (5k gas)), but makes frontend easier\n        if (!logHolders || everHeld[_newHolder]) {\n            return;\n        }\n\n        everHeld[_newHolder] = true;\n        holders.push(_newHolder);\n    }\n\n    /**\n    * @notice Called when ether is sent to the MiniMe Token contract\n    * @return True if the ether is accepted, false for it to throw\n    */\n    function proxyPayment(address) public payable returns (bool) {\n        // Even though it is tested, solidity-coverage doesnt get it because\n        // MiniMeToken is not instrumented and entire tx is reverted\n        require(msg.sender == address(token));\n        return false;\n    }\n\n    /**\n    * @dev Notifies the controller about an approval allowing the controller to react if desired\n    * @param _owner The address that calls `approve()`\n    * @param _spender The spender in the `approve()` call\n    * @param _amount The amount in the `approve()` call\n    * @return False if the controller does not authorize the approval\n    */\n    function onApprove(address _owner, address _spender, uint _amount) public returns (bool) {\n        _owner;\n        _spender;\n        _amount;\n        return true;\n    }\n}\n",
  "sourcePath": "@aragon/apps-token-manager/contracts/TokenManager.sol",
  "compiler": {
    "name": "solc",
    "version": "0.4.24+commit.e67f0147.Emscripten.clang"
  },
  "schemaVersion": "2.0.1",
  "updatedAt": "2018-09-08T13:56:44.026Z"
}