{
  "contractName": "Voting",
  "abi": [
    {
      "constant": true,
      "inputs": [],
      "name": "hasInitialized",
      "outputs": [
        {
          "name": "",
          "type": "bool"
        }
      ],
      "payable": false,
      "stateMutability": "view",
      "type": "function"
    },
    {
      "constant": true,
      "inputs": [],
      "name": "KERNEL_APP_ID",
      "outputs": [
        {
          "name": "",
          "type": "bytes32"
        }
      ],
      "payable": false,
      "stateMutability": "view",
      "type": "function"
    },
    {
      "constant": true,
      "inputs": [],
      "name": "APP_ADDR_NAMESPACE",
      "outputs": [
        {
          "name": "",
          "type": "bytes32"
        }
      ],
      "payable": false,
      "stateMutability": "view",
      "type": "function"
    },
    {
      "constant": true,
      "inputs": [],
      "name": "getRecoveryVault",
      "outputs": [
        {
          "name": "",
          "type": "address"
        }
      ],
      "payable": false,
      "stateMutability": "view",
      "type": "function"
    },
    {
      "constant": true,
      "inputs": [],
      "name": "MODIFY_QUORUM_ROLE",
      "outputs": [
        {
          "name": "",
          "type": "bytes32"
        }
      ],
      "payable": false,
      "stateMutability": "view",
      "type": "function"
    },
    {
      "constant": true,
      "inputs": [],
      "name": "EVMSCRIPT_REGISTRY_APP_ID",
      "outputs": [
        {
          "name": "",
          "type": "bytes32"
        }
      ],
      "payable": false,
      "stateMutability": "view",
      "type": "function"
    },
    {
      "constant": true,
      "inputs": [],
      "name": "CORE_NAMESPACE",
      "outputs": [
        {
          "name": "",
          "type": "bytes32"
        }
      ],
      "payable": false,
      "stateMutability": "view",
      "type": "function"
    },
    {
      "constant": true,
      "inputs": [
        {
          "name": "token",
          "type": "address"
        }
      ],
      "name": "allowRecoverability",
      "outputs": [
        {
          "name": "",
          "type": "bool"
        }
      ],
      "payable": false,
      "stateMutability": "view",
      "type": "function"
    },
    {
      "constant": true,
      "inputs": [],
      "name": "appId",
      "outputs": [
        {
          "name": "",
          "type": "bytes32"
        }
      ],
      "payable": false,
      "stateMutability": "view",
      "type": "function"
    },
    {
      "constant": true,
      "inputs": [],
      "name": "ETH",
      "outputs": [
        {
          "name": "",
          "type": "address"
        }
      ],
      "payable": false,
      "stateMutability": "view",
      "type": "function"
    },
    {
      "constant": true,
      "inputs": [],
      "name": "getInitializationBlock",
      "outputs": [
        {
          "name": "",
          "type": "uint256"
        }
      ],
      "payable": false,
      "stateMutability": "view",
      "type": "function"
    },
    {
      "constant": false,
      "inputs": [
        {
          "name": "_token",
          "type": "address"
        }
      ],
      "name": "transferToVault",
      "outputs": [],
      "payable": false,
      "stateMutability": "nonpayable",
      "type": "function"
    },
    {
      "constant": true,
      "inputs": [
        {
          "name": "_sender",
          "type": "address"
        },
        {
          "name": "_role",
          "type": "bytes32"
        },
        {
          "name": "_params",
          "type": "uint256[]"
        }
      ],
      "name": "canPerform",
      "outputs": [
        {
          "name": "",
          "type": "bool"
        }
      ],
      "payable": false,
      "stateMutability": "view",
      "type": "function"
    },
    {
      "constant": true,
      "inputs": [],
      "name": "voteTime",
      "outputs": [
        {
          "name": "",
          "type": "uint64"
        }
      ],
      "payable": false,
      "stateMutability": "view",
      "type": "function"
    },
    {
      "constant": true,
      "inputs": [],
      "name": "CREATE_VOTES_ROLE",
      "outputs": [
        {
          "name": "",
          "type": "bytes32"
        }
      ],
      "payable": false,
      "stateMutability": "view",
      "type": "function"
    },
    {
      "constant": true,
      "inputs": [],
      "name": "ACL_APP_ID",
      "outputs": [
        {
          "name": "",
          "type": "bytes32"
        }
      ],
      "payable": false,
      "stateMutability": "view",
      "type": "function"
    },
    {
      "constant": true,
      "inputs": [],
      "name": "kernel",
      "outputs": [
        {
          "name": "",
          "type": "address"
        }
      ],
      "payable": false,
      "stateMutability": "view",
      "type": "function"
    },
    {
      "constant": true,
      "inputs": [],
      "name": "APP_BASES_NAMESPACE",
      "outputs": [
        {
          "name": "",
          "type": "bytes32"
        }
      ],
      "payable": false,
      "stateMutability": "view",
      "type": "function"
    },
    {
      "constant": true,
      "inputs": [],
      "name": "minAcceptQuorumPct",
      "outputs": [
        {
          "name": "",
          "type": "uint256"
        }
      ],
      "payable": false,
      "stateMutability": "view",
      "type": "function"
    },
    {
      "constant": true,
      "inputs": [],
      "name": "isPetrified",
      "outputs": [
        {
          "name": "",
          "type": "bool"
        }
      ],
      "payable": false,
      "stateMutability": "view",
      "type": "function"
    },
    {
      "constant": true,
      "inputs": [
        {
          "name": "_script",
          "type": "bytes"
        }
      ],
      "name": "getExecutor",
      "outputs": [
        {
          "name": "",
          "type": "address"
        }
      ],
      "payable": false,
      "stateMutability": "view",
      "type": "function"
    },
    {
      "constant": true,
      "inputs": [],
      "name": "supportRequiredPct",
      "outputs": [
        {
          "name": "",
          "type": "uint256"
        }
      ],
      "payable": false,
      "stateMutability": "view",
      "type": "function"
    },
    {
      "constant": true,
      "inputs": [],
      "name": "token",
      "outputs": [
        {
          "name": "",
          "type": "address"
        }
      ],
      "payable": false,
      "stateMutability": "view",
      "type": "function"
    },
    {
      "constant": true,
      "inputs": [],
      "name": "PCT_BASE",
      "outputs": [
        {
          "name": "",
          "type": "uint256"
        }
      ],
      "payable": false,
      "stateMutability": "view",
      "type": "function"
    },
    {
      "anonymous": false,
      "inputs": [
        {
          "indexed": true,
          "name": "voteId",
          "type": "uint256"
        }
      ],
      "name": "StartVote",
      "type": "event"
    },
    {
      "anonymous": false,
      "inputs": [
        {
          "indexed": true,
          "name": "voteId",
          "type": "uint256"
        },
        {
          "indexed": true,
          "name": "voter",
          "type": "address"
        },
        {
          "indexed": false,
          "name": "supports",
          "type": "bool"
        },
        {
          "indexed": false,
          "name": "stake",
          "type": "uint256"
        }
      ],
      "name": "CastVote",
      "type": "event"
    },
    {
      "anonymous": false,
      "inputs": [
        {
          "indexed": true,
          "name": "voteId",
          "type": "uint256"
        }
      ],
      "name": "ExecuteVote",
      "type": "event"
    },
    {
      "anonymous": false,
      "inputs": [
        {
          "indexed": false,
          "name": "minAcceptQuorumPct",
          "type": "uint256"
        }
      ],
      "name": "ChangeMinQuorum",
      "type": "event"
    },
    {
      "anonymous": false,
      "inputs": [
        {
          "indexed": true,
          "name": "executor",
          "type": "address"
        },
        {
          "indexed": false,
          "name": "script",
          "type": "bytes"
        },
        {
          "indexed": false,
          "name": "input",
          "type": "bytes"
        },
        {
          "indexed": false,
          "name": "returnData",
          "type": "bytes"
        }
      ],
      "name": "ScriptResult",
      "type": "event"
    },
    {
      "constant": false,
      "inputs": [
        {
          "name": "_token",
          "type": "address"
        },
        {
          "name": "_supportRequiredPct",
          "type": "uint256"
        },
        {
          "name": "_minAcceptQuorumPct",
          "type": "uint256"
        },
        {
          "name": "_voteTime",
          "type": "uint64"
        }
      ],
      "name": "initialize",
      "outputs": [],
      "payable": false,
      "stateMutability": "nonpayable",
      "type": "function"
    },
    {
      "constant": false,
      "inputs": [
        {
          "name": "_minAcceptQuorumPct",
          "type": "uint256"
        }
      ],
      "name": "changeMinAcceptQuorumPct",
      "outputs": [],
      "payable": false,
      "stateMutability": "nonpayable",
      "type": "function"
    },
    {
      "constant": false,
      "inputs": [
        {
          "name": "_executionScript",
          "type": "bytes"
        },
        {
          "name": "_metadata",
          "type": "string"
        }
      ],
      "name": "newVote",
      "outputs": [
        {
          "name": "voteId",
          "type": "uint256"
        }
      ],
      "payable": false,
      "stateMutability": "nonpayable",
      "type": "function"
    },
    {
      "constant": false,
      "inputs": [
        {
          "name": "_executionScript",
          "type": "bytes"
        },
        {
          "name": "_metadata",
          "type": "string"
        },
        {
          "name": "_castVote",
          "type": "bool"
        }
      ],
      "name": "newVote",
      "outputs": [
        {
          "name": "voteId",
          "type": "uint256"
        }
      ],
      "payable": false,
      "stateMutability": "nonpayable",
      "type": "function"
    },
    {
      "constant": false,
      "inputs": [
        {
          "name": "_voteId",
          "type": "uint256"
        },
        {
          "name": "_supports",
          "type": "bool"
        },
        {
          "name": "_executesIfDecided",
          "type": "bool"
        }
      ],
      "name": "vote",
      "outputs": [],
      "payable": false,
      "stateMutability": "nonpayable",
      "type": "function"
    },
    {
      "constant": false,
      "inputs": [
        {
          "name": "_voteId",
          "type": "uint256"
        }
      ],
      "name": "executeVote",
      "outputs": [],
      "payable": false,
      "stateMutability": "nonpayable",
      "type": "function"
    },
    {
      "constant": true,
      "inputs": [],
      "name": "isForwarder",
      "outputs": [
        {
          "name": "",
          "type": "bool"
        }
      ],
      "payable": false,
      "stateMutability": "pure",
      "type": "function"
    },
    {
      "constant": false,
      "inputs": [
        {
          "name": "_evmScript",
          "type": "bytes"
        }
      ],
      "name": "forward",
      "outputs": [],
      "payable": false,
      "stateMutability": "nonpayable",
      "type": "function"
    },
    {
      "constant": true,
      "inputs": [
        {
          "name": "_sender",
          "type": "address"
        },
        {
          "name": "_evmCallScript",
          "type": "bytes"
        }
      ],
      "name": "canForward",
      "outputs": [
        {
          "name": "",
          "type": "bool"
        }
      ],
      "payable": false,
      "stateMutability": "view",
      "type": "function"
    },
    {
      "constant": true,
      "inputs": [
        {
          "name": "_voteId",
          "type": "uint256"
        },
        {
          "name": "_voter",
          "type": "address"
        }
      ],
      "name": "canVote",
      "outputs": [
        {
          "name": "",
          "type": "bool"
        }
      ],
      "payable": false,
      "stateMutability": "view",
      "type": "function"
    },
    {
      "constant": true,
      "inputs": [
        {
          "name": "_voteId",
          "type": "uint256"
        }
      ],
      "name": "canExecute",
      "outputs": [
        {
          "name": "",
          "type": "bool"
        }
      ],
      "payable": false,
      "stateMutability": "view",
      "type": "function"
    },
    {
      "constant": true,
      "inputs": [
        {
          "name": "_voteId",
          "type": "uint256"
        }
      ],
      "name": "getVote",
      "outputs": [
        {
          "name": "open",
          "type": "bool"
        },
        {
          "name": "executed",
          "type": "bool"
        },
        {
          "name": "creator",
          "type": "address"
        },
        {
          "name": "startDate",
          "type": "uint64"
        },
        {
          "name": "snapshotBlock",
          "type": "uint256"
        },
        {
          "name": "minAcceptQuorum",
          "type": "uint256"
        },
        {
          "name": "yea",
          "type": "uint256"
        },
        {
          "name": "nay",
          "type": "uint256"
        },
        {
          "name": "totalVoters",
          "type": "uint256"
        },
        {
          "name": "script",
          "type": "bytes"
        }
      ],
      "payable": false,
      "stateMutability": "view",
      "type": "function"
    },
    {
      "constant": true,
      "inputs": [
        {
          "name": "_voteId",
          "type": "uint256"
        }
      ],
      "name": "getVoteMetadata",
      "outputs": [
        {
          "name": "",
          "type": "string"
        }
      ],
      "payable": false,
      "stateMutability": "view",
      "type": "function"
    },
    {
      "constant": true,
      "inputs": [
        {
          "name": "_voteId",
          "type": "uint256"
        },
        {
          "name": "_voter",
          "type": "address"
        }
      ],
      "name": "getVoterState",
      "outputs": [
        {
          "name": "",
          "type": "uint8"
        }
      ],
      "payable": false,
      "stateMutability": "view",
      "type": "function"
    }
  ],
  "bytecode": "0x60806040526200001d62000023640100000000026401000000009004565b6200015b565b60006200003e62000087640100000000026401000000009004565b1415156200004b57600080fd5b620000857fffffffffffffffffffffffffffffffffffffffffffffffffffffffffffffffff620000d4640100000000026401000000009004565b565b6000620000cf7febb05b386a8d34882b8711d156f463690983dc47815980fb82aeeff1aa43579e600102600019166200014964010000000002620024c7176401000000009004565b905090565b6000620000ef62000087640100000000026401000000009004565b141515620000fc57600080fd5b62000146817febb05b386a8d34882b8711d156f463690983dc47815980fb82aeeff1aa43579e60010260001916620001546401000000000262002b73179091906401000000009004565b50565b600081549050919050565b8082555050565b6133e2806200016b6000396000f3006080604052600436106101d8576000357c0100000000000000000000000000000000000000000000000000000000900463ffffffff168063036e4220146101dd5780630803fac01461020a5780631113ed0d14610239578063178e60791461026c57806324160baa1461029f57806332f0a3b5146103125780633c624c75146103695780633ee31e701461039c5780634b12311c146104075780635a55c1f01461047657806360b1e057146105a3578063756f6049146105d65780637e7db6e11461060957806380afdea8146106645780638322fff2146106975780638b3dd749146106ee5780639d4941d814610719578063a1658fad1461075c578063bcf93dd614610808578063be2c64d414610847578063c05218c61461087a578063c0774df314610920578063cbcc65eb146109c1578063cc63604a146109f4578063cdb2867b14610a39578063d4aae0c414610a9e578063d5db2c8014610af5578063d948d46814610b5c578063db8a61d414610bc5578063dc474b1a14610bf8578063de4796ed14610c23578063df133bca14610c52578063f92a79ff14610c97578063f98a4eca14610d40578063fad167ab14610d6d578063fc0c546a14610d98578063fc157cb414610def578063fd64eccb14610e1a575b600080fd5b3480156101e957600080fd5b5061020860048036038101908080359060200190929190505050610e49565b005b34801561021657600080fd5b5061021f610f17565b604051808215151515815260200191505060405180910390f35b34801561024557600080fd5b5061024e610f42565b60405180826000191660001916815260200191505060405180910390f35b34801561027857600080fd5b50610281610f69565b60405180826000191660001916815260200191505060405180910390f35b3480156102ab57600080fd5b506102fc600480360381019080803590602001908201803590602001919091929391929390803590602001908201803590602001919091929391929390803515159060200190929190505050610f90565b6040518082815260200191505060405180910390f35b34801561031e57600080fd5b50610327611089565b604051808273ffffffffffffffffffffffffffffffffffffffff1673ffffffffffffffffffffffffffffffffffffffff16815260200191505060405180910390f35b34801561037557600080fd5b5061037e611178565b60405180826000191660001916815260200191505060405180910390f35b3480156103a857600080fd5b50610405600480360381019080803573ffffffffffffffffffffffffffffffffffffffff1690602001909291908035906020019092919080359060200190929190803567ffffffffffffffff1690602001909291905050506111b1565b005b34801561041357600080fd5b5061045260048036038101908080359060200190929190803573ffffffffffffffffffffffffffffffffffffffff16906020019092919050505061129a565b6040518082600281111561046257fe5b60ff16815260200191505060405180910390f35b34801561048257600080fd5b506104a16004803603810190808035906020019092919050505061130f565b604051808b1515151581526020018a1515151581526020018973ffffffffffffffffffffffffffffffffffffffff1673ffffffffffffffffffffffffffffffffffffffff1681526020018867ffffffffffffffff1667ffffffffffffffff16815260200187815260200186815260200185815260200184815260200183815260200180602001828103825283818151815260200191508051906020019080838360005b8381101561055f578082015181840152602081019050610544565b50505050905090810190601f16801561058c5780820380516001836020036101000a031916815260200191505b509b50505050505050505050505060405180910390f35b3480156105af57600080fd5b506105b8611471565b60405180826000191660001916815260200191505060405180910390f35b3480156105e257600080fd5b506105eb611498565b60405180826000191660001916815260200191505060405180910390f35b34801561061557600080fd5b5061064a600480360381019080803573ffffffffffffffffffffffffffffffffffffffff1690602001909291905050506114bf565b604051808215151515815260200191505060405180910390f35b34801561067057600080fd5b506106796114ca565b60405180826000191660001916815260200191505060405180910390f35b3480156106a357600080fd5b506106ac611501565b604051808273ffffffffffffffffffffffffffffffffffffffff1673ffffffffffffffffffffffffffffffffffffffff16815260200191505060405180910390f35b3480156106fa57600080fd5b50610703611506565b6040518082815260200191505060405180910390f35b34801561072557600080fd5b5061075a600480360381019080803573ffffffffffffffffffffffffffffffffffffffff16906020019092919050505061153d565b005b34801561076857600080fd5b506107ee600480360381019080803573ffffffffffffffffffffffffffffffffffffffff1690602001909291908035600019169060200190929190803590602001908201803590602001908080602002602001604051908101604052809392919081815260200183836020028082843782019150505050505091929192905050506117c7565b604051808215151515815260200191505060405180910390f35b34801561081457600080fd5b5061081d6119d9565b604051808267ffffffffffffffff1667ffffffffffffffff16815260200191505060405180910390f35b34801561085357600080fd5b5061085c6119f3565b60405180826000191660001916815260200191505060405180910390f35b34801561088657600080fd5b506108a560048036038101908080359060200190929190505050611a2c565b6040518080602001828103825283818151815260200191508051906020019080838360005b838110156108e55780820151818401526020810190506108ca565b50505050905090810190601f1680156109125780820380516001836020036101000a031916815260200191505b509250505060405180910390f35b34801561092c57600080fd5b506109a7600480360381019080803573ffffffffffffffffffffffffffffffffffffffff169060200190929190803590602001908201803590602001908080601f0160208091040260200160405190810160405280939291908181526020018383808284378201915050505050509192919290505050611aee565b604051808215151515815260200191505060405180910390f35b3480156109cd57600080fd5b506109d6611b3f565b60405180826000191660001916815260200191505060405180910390f35b348015610a0057600080fd5b50610a1f60048036038101908080359060200190929190505050611b66565b604051808215151515815260200191505060405180910390f35b348015610a4557600080fd5b50610a8460048036038101908080359060200190929190803573ffffffffffffffffffffffffffffffffffffffff169060200190929190505050611c53565b604051808215151515815260200191505060405180910390f35b348015610aaa57600080fd5b50610ab3611d95565b604051808273ffffffffffffffffffffffffffffffffffffffff1673ffffffffffffffffffffffffffffffffffffffff16815260200191505060405180910390f35b348015610b0157600080fd5b50610b46600480360381019080803590602001908201803590602001919091929391929390803590602001908201803590602001919091929391929390505050611dcc565b6040518082815260200191505060405180910390f35b348015610b6857600080fd5b50610bc3600480360381019080803590602001908201803590602001908080601f0160208091040260200160405190810160405280939291908181526020018383808284378201915050505050509192919290505050611ec5565b005b348015610bd157600080fd5b50610bda611efa565b60405180826000191660001916815260200191505060405180910390f35b348015610c0457600080fd5b50610c0d611f21565b6040518082815260200191505060405180910390f35b348015610c2f57600080fd5b50610c38611f27565b604051808215151515815260200191505060405180910390f35b348015610c5e57600080fd5b50610c9560048036038101908080359060200190929190803515159060200190929190803515159060200190929190505050611f58565b005b348015610ca357600080fd5b50610cfe600480360381019080803590602001908201803590602001908080601f0160208091040260200160405190810160405280939291908181526020018383808284378201915050505050509192919290505050611f91565b604051808273ffffffffffffffffffffffffffffffffffffffff1673ffffffffffffffffffffffffffffffffffffffff16815260200191505060405180910390f35b348015610d4c57600080fd5b50610d6b600480360381019080803590602001909291905050506120b0565b005b348015610d7957600080fd5b50610d826120e3565b6040518082815260200191505060405180910390f35b348015610da457600080fd5b50610dad6120e9565b604051808273ffffffffffffffffffffffffffffffffffffffff1673ffffffffffffffffffffffffffffffffffffffff16815260200191505060405180910390f35b348015610dfb57600080fd5b50610e0461210e565b6040518082815260200191505060405180910390f35b348015610e2657600080fd5b50610e2f61211a565b604051808215151515815260200191505060405180910390f35b60405180807f4d4f444946595f51554f52554d5f524f4c45000000000000000000000000000081525060120190506040518091039020610e8b82600254612123565b610e963383836117c7565b1515610ea157600080fd5b610ea9610f17565b1515610eb457600080fd5b600083111515610ec357600080fd5b8260015410151515610ed457600080fd5b826002819055507f28bb663e324957c72fa46db87d8afa7591b1c293b2c7ad06e3574eace993ff6d836040518082815260200191505060405180910390a1505050565b600080610f22611506565b905060008114158015610f3c575080610f3961219a565b10155b91505090565b7f3b4bf6bf3ad5000ecf0f989d5befde585c6860fea3e574a4fab4c49d1c177d9c60010281565b7fd6f028ca0e8edb4a8c9757ca4fdccab25fa1e0317da1188108f7d2dee14902fb60010281565b600060405180807f4352454154455f564f5445535f524f4c450000000000000000000000000000008152506011019050604051809103902061100333826000604051908082528060200260200182016040528015610ffd5781602001602082028038833980820191505090505b506117c7565b151561100e57600080fd5b61107d87878080601f01602080910402602001604051908101604052809392919081815260200183838082843782019150505050505086868080601f016020809104026020016040519081016040528093929190818152602001838380828437820191505050505050856121a2565b91505095945050505050565b60008073ffffffffffffffffffffffffffffffffffffffff166110aa611d95565b73ffffffffffffffffffffffffffffffffffffffff16141515156110cd57600080fd5b6110d5611d95565b73ffffffffffffffffffffffffffffffffffffffff166332f0a3b56040518163ffffffff167c0100000000000000000000000000000000000000000000000000000000028152600401602060405180830381600087803b15801561113857600080fd5b505af115801561114c573d6000803e3d6000fd5b505050506040513d602081101561116257600080fd5b8101908080519060200190929190505050905090565b60405180807f4d4f444946595f51554f52554d5f524f4c4500000000000000000000000000008152506012019050604051809103902081565b60006111bb611506565b1415156111c757600080fd5b6111cf6123de565b6000821115156111de57600080fd5b670de0b6b3a764000083111515156111f557600080fd5b81831015151561120457600080fd5b836000806101000a81548173ffffffffffffffffffffffffffffffffffffffff021916908373ffffffffffffffffffffffffffffffffffffffff160217905550826001819055508160028190555080600360006101000a81548167ffffffffffffffff021916908367ffffffffffffffff16021790555060016004818180549050019150816112939190613112565b5050505050565b60006004838154811015156112ab57fe5b90600052602060002090600a020160090160008373ffffffffffffffffffffffffffffffffffffffff1673ffffffffffffffffffffffffffffffffffffffff16815260200190815260200160002060009054906101000a900460ff16905092915050565b60008060008060008060008060006060600060048c81548110151561133057fe5b90600052602060002090600a0201905061134981612437565b9a508060080160009054906101000a900460ff1699508060000160009054906101000a900473ffffffffffffffffffffffffffffffffffffffff1698508060000160149054906101000a900467ffffffffffffffff1697508060010154965080600201549550806003015494508060040154935080600501549250806007018054600181600116156101000203166002900480601f01602080910402602001604051908101604052809291908181526020018280546001816001161561010002031660029004801561145c5780601f106114315761010080835404028352916020019161145c565b820191906000526020600020905b81548152906001019060200180831161143f57829003601f168201915b50505050509150509193959799509193959799565b7fddbcfd564f642ab5627cf68b9b7d374fb4f8a36e941a75d89c87998cef03bd6160010281565b7fc681a85306374a5ab27f0bbc385296a54bcd314a1948b6cf61c4ea1bc44bb9f860010281565b600060019050919050565b60006114fc7fd625496217aa6a3453eecb9c3489dc5a53e6c67b444329ea2b2cbc9ff547639b600102600019166124bc565b905090565b600081565b60006115387febb05b386a8d34882b8711d156f463690983dc47815980fb82aeeff1aa43579e600102600019166124c7565b905090565b600080611549836114bf565b151561155457600080fd5b61155c611089565b9150611567826124d2565b151561157257600080fd5b600073ffffffffffffffffffffffffffffffffffffffff168373ffffffffffffffffffffffffffffffffffffffff16141561160a578173ffffffffffffffffffffffffffffffffffffffff166108fc3073ffffffffffffffffffffffffffffffffffffffff16319081150290604051600060405180830381858888f19350505050158015611604573d6000803e3d6000fd5b506117c2565b8273ffffffffffffffffffffffffffffffffffffffff166370a08231306040518263ffffffff167c0100000000000000000000000000000000000000000000000000000000028152600401808273ffffffffffffffffffffffffffffffffffffffff1673ffffffffffffffffffffffffffffffffffffffff168152602001915050602060405180830381600087803b1580156116a557600080fd5b505af11580156116b9573d6000803e3d6000fd5b505050506040513d60208110156116cf57600080fd5b810190808051906020019092919050505090508273ffffffffffffffffffffffffffffffffffffffff1663a9059cbb83836040518363ffffffff167c0100000000000000000000000000000000000000000000000000000000028152600401808373ffffffffffffffffffffffffffffffffffffffff1673ffffffffffffffffffffffffffffffffffffffff16815260200182815260200192505050602060405180830381600087803b15801561178557600080fd5b505af1158015611799573d6000803e3d6000fd5b505050506040513d60208110156117af57600080fd5b8101908080519060200190929190505050505b505050565b600080606060006117d6610f17565b15156117e557600093506119cf565b6117ed611d95565b9250600073ffffffffffffffffffffffffffffffffffffffff168373ffffffffffffffffffffffffffffffffffffffff16141561182d57600093506119cf565b60008551111561184557602085510290508491508082525b8273ffffffffffffffffffffffffffffffffffffffff1663fdef9106883089866040518563ffffffff167c0100000000000000000000000000000000000000000000000000000000028152600401808573ffffffffffffffffffffffffffffffffffffffff1673ffffffffffffffffffffffffffffffffffffffff1681526020018473ffffffffffffffffffffffffffffffffffffffff1673ffffffffffffffffffffffffffffffffffffffff168152602001836000191660001916815260200180602001828103825283818151815260200191508051906020019080838360005b83811015611942578082015181840152602081019050611927565b50505050905090810190601f16801561196f5780820380516001836020036101000a031916815260200191505b5095505050505050602060405180830381600087803b15801561199157600080fd5b505af11580156119a5573d6000803e3d6000fd5b505050506040513d60208110156119bb57600080fd5b810190808051906020019092919050505093505b5050509392505050565b600360009054906101000a900467ffffffffffffffff1681565b60405180807f4352454154455f564f5445535f524f4c450000000000000000000000000000008152506011019050604051809103902081565b6060600482815481101515611a3d57fe5b90600052602060002090600a02016006018054600181600116156101000203166002900480601f016020809104026020016040519081016040528092919081815260200182805460018160011615610100020316600290048015611ae25780601f10611ab757610100808354040283529160200191611ae2565b820191906000526020600020905b815481529060010190602001808311611ac557829003601f168201915b50505050509050919050565b6000611b378360405180807f4352454154455f564f5445535f524f4c4500000000000000000000000000000081525060110190506040518091039020611b32612524565b6117c7565b905092915050565b7fe3262375f45a6e2026b7e7b18c2b807434f2508fe1a2a3dfb493c7df8f4aad6a60010281565b6000806000600484815481101515611b7a57fe5b90600052602060002090600a020191508160080160009054906101000a900460ff1615611baa5760009250611c4c565b611bbf82600301548360050154600154612529565b15611bcd5760019250611c4c565b611be88260040154836003015461257590919063ffffffff16565b9050611bf382612437565b15611c015760009250611c4c565b611c12826003015482600154612529565b1515611c215760009250611c4c565b611c38826003015483600501548460020154612529565b1515611c475760009250611c4c565b600192505b5050919050565b600080600484815481101515611c6557fe5b90600052602060002090600a02019050611c7e81612437565b8015611d8c575060008060009054906101000a900473ffffffffffffffffffffffffffffffffffffffff1673ffffffffffffffffffffffffffffffffffffffff16634ee2cd7e8584600101546040518363ffffffff167c0100000000000000000000000000000000000000000000000000000000028152600401808373ffffffffffffffffffffffffffffffffffffffff1673ffffffffffffffffffffffffffffffffffffffff16815260200182815260200192505050602060405180830381600087803b158015611d4f57600080fd5b505af1158015611d63573d6000803e3d6000fd5b505050506040513d6020811015611d7957600080fd5b8101908080519060200190929190505050115b91505092915050565b6000611dc77f4172f0f7d2289153072b0a6ca36959e0cbe2efc3afe50fc81636caa96338137b60010260001916612596565b905090565b600060405180807f4352454154455f564f5445535f524f4c4500000000000000000000000000000081525060110190506040518091039020611e3f33826000604051908082528060200260200182016040528015611e395781602001602082028038833980820191505090505b506117c7565b1515611e4a57600080fd5b611eba86868080601f01602080910402602001604051908101604052809392919081815260200183838082843782019150505050505085858080601f01602080910402602001604051908101604052809392919081815260200183838082843782019150505050505060016121a2565b915050949350505050565b611ecf3382611aee565b1515611eda57600080fd5b611ef681602060405190810160405280600081525060016121a2565b5050565b7ff1f3eb40f5bc1ad1344716ced8b8a0431d840b5783aea1fd01786bc26f35ac0f60010281565b60025481565b60007fffffffffffffffffffffffffffffffffffffffffffffffffffffffffffffffff611f52611506565b14905090565b611f60610f17565b1515611f6b57600080fd5b611f758333611c53565b1515611f8057600080fd5b611f8c838333846125a1565b505050565b6000611f9b6128d7565b73ffffffffffffffffffffffffffffffffffffffff166304bf2a7f836040518263ffffffff167c01000000000000000000000000000000000000000000000000000000000281526004018080602001828103825283818151815260200191508051906020019080838360005b83811015612022578082015181840152602081019050612007565b50505050905090810190601f16801561204f5780820380516001836020036101000a031916815260200191505b5092505050602060405180830381600087803b15801561206e57600080fd5b505af1158015612082573d6000803e3d6000fd5b505050506040513d602081101561209857600080fd5b81019080805190602001909291905050509050919050565b6120b8610f17565b15156120c357600080fd5b6120cc81611b66565b15156120d757600080fd5b6120e0816129f2565b50565b60015481565b6000809054906101000a900473ffffffffffffffffffffffffffffffffffffffff1681565b670de0b6b3a764000081565b60006001905090565b606060026040519080825280602002602001820160405280156121555781602001602082028038833980820191505090505b5090508281600081518110151561216857fe5b90602001906020020181815250508181600181518110151561218657fe5b906020019060200201818152505092915050565b600043905090565b6000806121ad610f17565b15156121b857600080fd5b600480548091906001016121cc9190613112565b91506004828154811015156121dd57fe5b90600052602060002090600a0201905084816007019080519060200190612205929190613144565b50338160000160006101000a81548173ffffffffffffffffffffffffffffffffffffffff021916908373ffffffffffffffffffffffffffffffffffffffff160217905550428160000160146101000a81548167ffffffffffffffff021916908367ffffffffffffffff1602179055508381600601908051906020019061228c9291906131c4565b50600161229761219a565b0381600101819055506000809054906101000a900473ffffffffffffffffffffffffffffffffffffffff1673ffffffffffffffffffffffffffffffffffffffff1663981b24d082600101546040518263ffffffff167c010000000000000000000000000000000000000000000000000000000002815260040180828152602001915050602060405180830381600087803b15801561233457600080fd5b505af1158015612348573d6000803e3d6000fd5b505050506040513d602081101561235e57600080fd5b810190808051906020019092919050505081600501819055506002548160020181905550817f33c2d6285ba1442f7dd954820743aacec7468bc52e1671024b948f48f132264060405160405180910390a28280156123c257506123c18233611c53565b5b156123d6576123d58260013360016125a1565b5b509392505050565b60006123e8611506565b1415156123f457600080fd5b6124356123ff61219a565b7febb05b386a8d34882b8711d156f463690983dc47815980fb82aeeff1aa43579e60010260001916612b7390919063ffffffff16565b565b6000612484600360009054906101000a900467ffffffffffffffff168360000160149054906101000a900467ffffffffffffffff1667ffffffffffffffff16612b7a90919063ffffffff16565b67ffffffffffffffff164267ffffffffffffffff161080156124b557508160080160009054906101000a900460ff16155b9050919050565b600081549050919050565b600081549050919050565b600080600073ffffffffffffffffffffffffffffffffffffffff168373ffffffffffffffffffffffffffffffffffffffff161415612513576000915061251e565b823b90506000811191505b50919050565b606090565b600080600084141561253e576000915061256d565b8361255a670de0b6b3a764000087612baf90919063ffffffff16565b81151561256357fe5b0490508281101591505b509392505050565b600080828401905083811015151561258c57600080fd5b8091505092915050565b600081549050919050565b60008060006004878154811015156125b557fe5b90600052602060002090600a020192506000809054906101000a900473ffffffffffffffffffffffffffffffffffffffff1673ffffffffffffffffffffffffffffffffffffffff16634ee2cd7e8685600101546040518363ffffffff167c0100000000000000000000000000000000000000000000000000000000028152600401808373ffffffffffffffffffffffffffffffffffffffff1673ffffffffffffffffffffffffffffffffffffffff16815260200182815260200192505050602060405180830381600087803b15801561268d57600080fd5b505af11580156126a1573d6000803e3d6000fd5b505050506040513d60208110156126b757600080fd5b810190808051906020019092919050505091508260090160008673ffffffffffffffffffffffffffffffffffffffff1673ffffffffffffffffffffffffffffffffffffffff16815260200190815260200160002060009054906101000a900460ff1690506001600281111561272857fe5b81600281111561273457fe5b141561275a57612751828460030154612bed90919063ffffffff16565b83600301819055505b60028081111561276657fe5b81600281111561277257fe5b14156127985761278f828460040154612bed90919063ffffffff16565b83600401819055505b85156127c2576127b582846003015461257590919063ffffffff16565b83600301819055506127e2565b6127d982846004015461257590919063ffffffff16565b83600401819055505b856127ee5760026127f1565b60015b8360090160008773ffffffffffffffffffffffffffffffffffffffff1673ffffffffffffffffffffffffffffffffffffffff16815260200190815260200160002060006101000a81548160ff0219169083600281111561284d57fe5b02179055508473ffffffffffffffffffffffffffffffffffffffff16877fb34ee265e3d4f5ec4e8b52d59b2a9be8fceca2f274ebc080d8fba797fea9391f888560405180831515151581526020018281526020019250505060405180910390a38380156128bf57506128be87611b66565b5b156128ce576128cd876129f2565b5b50505050505050565b6000806128e2611d95565b73ffffffffffffffffffffffffffffffffffffffff1663be00bbd87fd6f028ca0e8edb4a8c9757ca4fdccab25fa1e0317da1188108f7d2dee14902fb6001027fddbcfd564f642ab5627cf68b9b7d374fb4f8a36e941a75d89c87998cef03bd616001026040518363ffffffff167c0100000000000000000000000000000000000000000000000000000000028152600401808360001916600019168152602001826000191660001916815260200192505050602060405180830381600087803b1580156129ae57600080fd5b505af11580156129c2573d6000803e3d6000fd5b505050506040513d60208110156129d857600080fd5b810190808051906020019092919050505090508091505090565b60006060600483815481101515612a0557fe5b90600052602060002090600a0201915060018260080160006101000a81548160ff02191690831515021790555060006040519080825280601f01601f191660200182016040528015612a665781602001602082028038833980820191505090505b509050612b40826007018054600181600116156101000203166002900480601f016020809104026020016040519081016040528092919081815260200182805460018160011615610100020316600290048015612b045780601f10612ad957610100808354040283529160200191612b04565b820191906000526020600020905b815481529060010190602001808311612ae757829003601f168201915b5050505050826000604051908082528060200260200182016040528015612b3a5781602001602082028038833980820191505090505b50612c0e565b50827fbf8e2b108bb7c980e08903a8a46527699d5e84905a082d56dacb4150725c8cab60405160405180910390a2505050565b8082555050565b60008082840190508367ffffffffffffffff168167ffffffffffffffff1610151515612ba557600080fd5b8091505092915050565b6000806000841415612bc45760009150612be6565b8284029050828482811515612bd557fe5b04141515612be257600080fd5b8091505b5092915050565b600080838311151515612bff57600080fd5b82840390508091505092915050565b60606000806060612c1d610f17565b1515612c2857600080fd5b600080612c33611d95565b9150612c3d6114ca565b9050612c4889611f91565b9450600073ffffffffffffffffffffffffffffffffffffffff168573ffffffffffffffffffffffffffffffffffffffff1614151515612c8657600080fd5b8473ffffffffffffffffffffffffffffffffffffffff1663279cea3590507c01000000000000000000000000000000000000000000000000000000000293508473ffffffffffffffffffffffffffffffffffffffff16848a8a8a60405160240180806020018060200180602001848103845287818151815260200191508051906020019080838360005b83811015612d2b578082015181840152602081019050612d10565b50505050905090810190601f168015612d585780820380516001836020036101000a031916815260200191505b50848103835286818151815260200191508051906020019080838360005b83811015612d91578082015181840152602081019050612d76565b50505050905090810190601f168015612dbe5780820380516001836020036101000a031916815260200191505b50848103825285818151815260200191508051906020019060200280838360005b83811015612dfa578082015181840152602081019050612ddf565b505050509050019650505050505050604051602081830303815290604052907bffffffffffffffffffffffffffffffffffffffffffffffffffffffff19166020820180517bffffffffffffffffffffffffffffffffffffffffffffffffffffffff838183161783525050505060405180828051906020019080838360005b83811015612e93578082015181840152602081019050612e78565b50505050905090810190601f168015612ec05780820380516001836020036101000a031916815260200191505b50915050600060405180830381855af49150501515612ede57600080fd5b612ee66130e2565b92508473ffffffffffffffffffffffffffffffffffffffff167f5229a5dba83a54ae8cb5b51bdd6de9474cacbe9dd332f5185f3a4f4f2e3f4ad98a8a8660405180806020018060200180602001848103845287818151815260200191508051906020019080838360005b83811015612f6b578082015181840152602081019050612f50565b50505050905090810190601f168015612f985780820380516001836020036101000a031916815260200191505b50848103835286818151815260200191508051906020019080838360005b83811015612fd1578082015181840152602081019050612fb6565b50505050905090810190601f168015612ffe5780820380516001836020036101000a031916815260200191505b50848103825285818151815260200191508051906020019080838360005b8381101561303757808201518184015260208101905061301c565b50505050905090810190601f1680156130645780820380516001836020036101000a031916815260200191505b50965050505050505060405180910390a28295508173ffffffffffffffffffffffffffffffffffffffff16613097611d95565b73ffffffffffffffffffffffffffffffffffffffff161415156130b957600080fd5b80600019166130c66114ca565b600019161415156130d657600080fd5b50505050509392505050565b60603d8060008114613109576040519250602082018301604052602082036020843e61310a565b5b505080905090565b81548183558181111561313f57600a0281600a02836000526020600020918201910161313e9190613244565b5b505050565b828054600181600116156101000203166002900490600052602060002090601f016020900481019282601f1061318557805160ff19168380011785556131b3565b828001600101855582156131b3579182015b828111156131b2578251825591602001919060010190613197565b5b5090506131c09190613301565b5090565b828054600181600116156101000203166002900490600052602060002090601f016020900481019282601f1061320557805160ff1916838001178555613233565b82800160010185558215613233579182015b82811115613232578251825591602001919060010190613217565b5b5090506132409190613301565b5090565b6132fe91905b808211156132fa57600080820160006101000a81549073ffffffffffffffffffffffffffffffffffffffff02191690556000820160146101000a81549067ffffffffffffffff0219169055600182016000905560028201600090556003820160009055600482016000905560058201600090556006820160006132cd9190613326565b6007820160006132dd919061336e565b6008820160006101000a81549060ff021916905550600a0161324a565b5090565b90565b61332391905b8082111561331f576000816000905550600101613307565b5090565b90565b50805460018160011615610100020316600290046000825580601f1061334c575061336b565b601f01602090049060005260206000209081019061336a9190613301565b5b50565b50805460018160011615610100020316600290046000825580601f1061339457506133b3565b601f0160209004906000526020600020908101906133b29190613301565b5b505600a165627a7a723058204c65b6d98ce8be0f9d80afd5ce3b9fbd24616e61e2688d8a7673c34a05e3d2ca0029",
  "source": "/*\n * SPDX-License-Identitifer:    GPL-3.0-or-later\n */\n\npragma solidity 0.4.24;\n\nimport \"@aragon/os/contracts/apps/AragonApp.sol\";\n\nimport \"@aragon/os/contracts/common/IForwarder.sol\";\nimport \"@aragon/apps-shared-minime/contracts/MiniMeToken.sol\";\nimport \"@aragon/os/contracts/lib/math/SafeMath.sol\";\nimport \"@aragon/os/contracts/lib/math/SafeMath64.sol\";\nimport \"@aragon/os/contracts/lib/misc/Migrations.sol\";\n\n\ncontract Voting is IForwarder, AragonApp {\n    using SafeMath for uint256;\n    using SafeMath64 for uint64;\n\n    MiniMeToken public token;\n    uint256 public supportRequiredPct;\n    uint256 public minAcceptQuorumPct;\n    uint64 public voteTime;\n\n    uint256 constant public PCT_BASE = 10 ** 18; // 0% = 0; 1% = 10^16; 100% = 10^18\n\n    bytes32 constant public CREATE_VOTES_ROLE = keccak256(\"CREATE_VOTES_ROLE\");\n    bytes32 constant public MODIFY_QUORUM_ROLE = keccak256(\"MODIFY_QUORUM_ROLE\");\n\n    enum VoterState { Absent, Yea, Nay }\n\n    struct Vote {\n        address creator;\n        uint64 startDate;\n        uint256 snapshotBlock;\n        uint256 minAcceptQuorumPct;\n        uint256 yea;\n        uint256 nay;\n        uint256 totalVoters;\n        string metadata;\n        bytes executionScript;\n        bool executed;\n        mapping (address => VoterState) voters;\n    }\n\n    Vote[] internal votes; // first index is 1\n\n    event StartVote(uint256 indexed voteId);\n    event CastVote(uint256 indexed voteId, address indexed voter, bool supports, uint256 stake);\n    event ExecuteVote(uint256 indexed voteId);\n    event ChangeMinQuorum(uint256 minAcceptQuorumPct);\n\n    /**\n    * @notice Initializes Voting app with `_token.symbol(): string` for governance, minimum support of `(_supportRequiredPct - _supportRequiredPct % 10^16) / 10^14`, minimum acceptance quorum of `(_minAcceptQuorumPct - _minAcceptQuorumPct % 10^16) / 10^14` and vote duations of `(_voteTime - _voteTime % 86400) / 86400` day `_voteTime >= 172800 ? 's' : ''`\n    * @param _token MiniMeToken Address that will be used as governance token\n    * @param _supportRequiredPct Percentage of yeas in casted votes for a vote to succeed (expressed as a percentage of 10^18; eg. 10^16 = 1%, 10^18 = 100%)\n    * @param _minAcceptQuorumPct Percentage of yeas in total possible votes for a vote to succeed (expressed as a percentage of 10^18; eg. 10^16 = 1%, 10^18 = 100%)\n    * @param _voteTime Seconds that a vote will be open for token holders to vote (unless enough yeas or nays have been cast to make an early decision)\n    */\n    function initialize(\n        MiniMeToken _token,\n        uint256 _supportRequiredPct,\n        uint256 _minAcceptQuorumPct,\n        uint64 _voteTime\n    ) onlyInit external\n    {\n        initialized();\n\n        require(_minAcceptQuorumPct > 0);\n        require(_supportRequiredPct <= PCT_BASE);\n        require(_supportRequiredPct >= _minAcceptQuorumPct);\n\n        token = _token;\n        supportRequiredPct = _supportRequiredPct;\n        minAcceptQuorumPct = _minAcceptQuorumPct;\n        voteTime = _voteTime;\n\n        votes.length += 1;\n    }\n\n    /**\n    * @notice Change minimum acceptance quorum to `(_minAcceptQuorumPct - _minAcceptQuorumPct % 10^16) / 10^14`%\n    * @param _minAcceptQuorumPct New acceptance quorum\n    */\n    function changeMinAcceptQuorumPct(uint256 _minAcceptQuorumPct) authP(MODIFY_QUORUM_ROLE, arr(_minAcceptQuorumPct, minAcceptQuorumPct)) isInitialized external {\n        require(_minAcceptQuorumPct > 0);\n        require(supportRequiredPct >= _minAcceptQuorumPct);\n        minAcceptQuorumPct = _minAcceptQuorumPct;\n\n        ChangeMinQuorum(_minAcceptQuorumPct);\n    }\n\n    /**\n    * @notice Create a new vote about \"`_metadata`\"\n    * @param _executionScript EVM script to be executed on approval\n    * @param _metadata Vote metadata\n    * @return voteId Id for newly created vote\n    */\n    function newVote(bytes _executionScript, string _metadata) auth(CREATE_VOTES_ROLE) external returns (uint256 voteId) {\n        return _newVote(_executionScript, _metadata, true);\n    }\n\n    /**\n     * @notice Create a new vote about \"`_metadata`\"\n     * @param _executionScript EVM script to be executed on approval\n     * @param _metadata Vote metadata\n     * @param _castVote Whether to also cast newly created vote\n     * @return voteId id for newly created vote\n     */\n    function newVote(bytes _executionScript, string _metadata, bool _castVote) auth(CREATE_VOTES_ROLE) external returns (uint256 voteId) {\n        return _newVote(_executionScript, _metadata, _castVote);\n    }\n\n    /**\n    * @notice Vote `_supports ? 'yea' : 'nay'` in vote #`_voteId`\n    * @param _voteId Id for vote\n    * @param _supports Whether voter supports the vote\n    * @param _executesIfDecided Whether the vote should execute its action if it becomes decided\n    */\n    function vote(uint256 _voteId, bool _supports, bool _executesIfDecided) isInitialized external {\n        require(canVote(_voteId, msg.sender));\n        _vote(\n            _voteId,\n            _supports,\n            msg.sender,\n            _executesIfDecided\n        );\n    }\n\n    /**\n    * @notice Execute the result of vote #`_voteId`\n    * @param _voteId Id for vote\n    */\n    function executeVote(uint256 _voteId) isInitialized external {\n        require(canExecute(_voteId));\n        _executeVote(_voteId);\n    }\n\n    function isForwarder() public pure returns (bool) {\n        return true;\n    }\n\n    /**\n    * @notice Creates a vote to execute the desired action, and casts a support vote\n    * @dev IForwarder interface conformance\n    * @param _evmScript Start vote with script\n    */\n    function forward(bytes _evmScript) public {\n        require(canForward(msg.sender, _evmScript));\n        _newVote(_evmScript, \"\", true);\n    }\n\n    function canForward(address _sender, bytes _evmCallScript) public view returns (bool) {\n        return canPerform(_sender, CREATE_VOTES_ROLE, arr());\n    }\n\n    function canVote(uint256 _voteId, address _voter) public view returns (bool) {\n        Vote storage vote = votes[_voteId];\n\n        return _isVoteOpen(vote) && token.balanceOfAt(_voter, vote.snapshotBlock) > 0;\n    }\n\n    function canExecute(uint256 _voteId) public view returns (bool) {\n        Vote storage vote = votes[_voteId];\n\n        if (vote.executed)\n            return false;\n\n        // Voting is already decided\n        if (_isValuePct(vote.yea, vote.totalVoters, supportRequiredPct))\n            return true;\n\n        uint256 totalVotes = vote.yea.add(vote.nay);\n\n        // vote ended?\n        if (_isVoteOpen(vote))\n            return false;\n        // has Support?\n        if (!_isValuePct(vote.yea, totalVotes, supportRequiredPct))\n            return false;\n        // has Min Quorum?\n        if (!_isValuePct(vote.yea, vote.totalVoters, vote.minAcceptQuorumPct))\n            return false;\n\n        return true;\n    }\n\n    function getVote(uint256 _voteId) public view returns (bool open, bool executed, address creator, uint64 startDate, uint256 snapshotBlock, uint256 minAcceptQuorum, uint256 yea, uint256 nay, uint256 totalVoters, bytes script) {\n        Vote storage vote = votes[_voteId];\n\n        open = _isVoteOpen(vote);\n        executed = vote.executed;\n        creator = vote.creator;\n        startDate = vote.startDate;\n        snapshotBlock = vote.snapshotBlock;\n        minAcceptQuorum = vote.minAcceptQuorumPct;\n        yea = vote.yea;\n        nay = vote.nay;\n        totalVoters = vote.totalVoters;\n        script = vote.executionScript;\n    }\n\n    function getVoteMetadata(uint256 _voteId) public view returns (string) {\n        return votes[_voteId].metadata;\n    }\n\n    function getVoterState(uint256 _voteId, address _voter) public view returns (VoterState) {\n        return votes[_voteId].voters[_voter];\n    }\n\n    function _newVote(bytes _executionScript, string _metadata, bool _castVote) isInitialized internal returns (uint256 voteId) {\n        voteId = votes.length++;\n        Vote storage vote = votes[voteId];\n        vote.executionScript = _executionScript;\n        vote.creator = msg.sender;\n        vote.startDate = uint64(now);\n        vote.metadata = _metadata;\n        vote.snapshotBlock = getBlockNumber() - 1; // avoid double voting in this very block\n        vote.totalVoters = token.totalSupplyAt(vote.snapshotBlock);\n        vote.minAcceptQuorumPct = minAcceptQuorumPct;\n\n        StartVote(voteId);\n\n        if (_castVote && canVote(voteId, msg.sender)) {\n            _vote(\n                voteId,\n                true,\n                msg.sender,\n                true\n            );\n        }\n    }\n\n    function _vote(\n        uint256 _voteId,\n        bool _supports,\n        address _voter,\n        bool _executesIfDecided\n    ) internal\n    {\n        Vote storage vote = votes[_voteId];\n\n        // this could re-enter, though we can assume the governance token is not malicious\n        uint256 voterStake = token.balanceOfAt(_voter, vote.snapshotBlock);\n        VoterState state = vote.voters[_voter];\n\n        // if voter had previously voted, decrease count\n        if (state == VoterState.Yea)\n            vote.yea = vote.yea.sub(voterStake);\n        if (state == VoterState.Nay)\n            vote.nay = vote.nay.sub(voterStake);\n\n        if (_supports)\n            vote.yea = vote.yea.add(voterStake);\n        else\n            vote.nay = vote.nay.add(voterStake);\n\n        vote.voters[_voter] = _supports ? VoterState.Yea : VoterState.Nay;\n\n        CastVote(\n            _voteId,\n            _voter,\n            _supports,\n            voterStake\n        );\n\n        if (_executesIfDecided && canExecute(_voteId))\n            _executeVote(_voteId);\n    }\n\n    function _executeVote(uint256 _voteId) internal {\n        Vote storage vote = votes[_voteId];\n\n        vote.executed = true;\n\n        bytes memory input = new bytes(0); // TODO: Consider input for voting scripts\n        runScript(vote.executionScript, input, new address[](0));\n\n        ExecuteVote(_voteId);\n    }\n\n    function _isVoteOpen(Vote storage vote) internal view returns (bool) {\n        return uint64(now) < vote.startDate.add(voteTime) && !vote.executed;\n    }\n\n    /**\n    * @dev Calculates whether `_value` is at least a percentage `_pct` of `_total`\n    */\n    function _isValuePct(uint256 _value, uint256 _total, uint256 _pct) internal pure returns (bool) {\n        if (_total == 0) {\n            return false;\n        }\n\n        uint256 computedPct = _value.mul(PCT_BASE) / _total;\n\n        return computedPct >= _pct;\n    }\n}\n",
  "sourcePath": "/Users/corneliusihle/GIT/ETHBerlin/new/zkdao/contracts/Voting.sol",
  "compiler": {
    "name": "solc",
    "version": "0.4.24+commit.e67f0147.Emscripten.clang"
  },
  "schemaVersion": "2.0.1",
  "updatedAt": "2018-09-08T13:56:44.003Z"
}